{
	"data": {
		"bytecode": {
			"linkReferences": {},
			"object": "608060405260405180602001604052807f524f4c455f41444d494e00000000000000000000000000000000000000000000815250600690600162000045929190620008c6565b503480156200005357600080fd5b5060405162002b7838038062002b78833981810160405281019062000079919062000a93565b82600790805190602001906200009192919062000918565b5081600860006101000a81548173ffffffffffffffffffffffffffffffffffffffff021916908373ffffffffffffffffffffffffffffffffffffffff16021790555080600981905550620000ea620000f360201b60201c565b50505062000fc1565b620001247f53544147455f4f4e455f4e414d45000000000000000000000000000000000000620004b760201b60201c565b620001557f53544147455f54574f5f4e414d45000000000000000000000000000000000000620004b760201b60201c565b620001867f53544147455f54485245455f4e414d4500000000000000000000000000000000620004b760201b60201c565b620001b77f53544147455f464f55525f4e414d450000000000000000000000000000000000620004b760201b60201c565b620002097f53544147455f4f4e455f4e414d450000000000000000000000000000000000007f53544147455f54574f5f4e414d450000000000000000000000000000000000006200057860201b60201c565b6200025b7f53544147455f4f4e455f4e414d450000000000000000000000000000000000007f524f4c455f41444d494e000000000000000000000000000000000000000000006200068960201b60201c565b620002ad7f53544147455f54574f5f4e414d450000000000000000000000000000000000007f53544147455f54485245455f4e414d45000000000000000000000000000000006200057860201b60201c565b620002ff7f53544147455f54574f5f4e414d450000000000000000000000000000000000007f524f4c455f41444d494e000000000000000000000000000000000000000000006200068960201b60201c565b620003517f53544147455f54485245455f4e414d45000000000000000000000000000000007f53544147455f464f55525f4e414d4500000000000000000000000000000000006200057860201b60201c565b620003a37f53544147455f54485245455f4e414d45000000000000000000000000000000007f524f4c455f41444d494e000000000000000000000000000000000000000000006200068960201b60201c565b620003f57f53544147455f464f55525f4e414d4500000000000000000000000000000000007f53544147455f464956455f4e414d4500000000000000000000000000000000006200057860201b60201c565b620004477f53544147455f464f55525f4e414d4500000000000000000000000000000000007f524f4c455f41444d494e000000000000000000000000000000000000000000006200068960201b60201c565b620004787f53544147455f4f4e455f4e414d450000000000000000000000000000000000006200073260201b60201c565b620004b57f53544147455f54574f5f4e414d45000000000000000000000000000000000000620007ec60201b62000c7517620007f060201b60201c565b565b6001600082815260200190815260200160002060000160009054906101000a900460ff16156200051e576040517f08c379a0000000000000000000000000000000000000000000000000000000008152600401620005159062000c10565b60405180910390fd5b600180600083815260200190815260200160002060000160006101000a81548160ff021916908315150217905550600281908060018154018082558091505060019003906000526020600020016000909190919091505550565b816001600082815260200190815260200160002060000160009054906101000a900460ff16620005df576040517f08c379a0000000000000000000000000000000000000000000000000000000008152600401620005d69062000bee565b60405180910390fd5b816001600082815260200190815260200160002060000160009054906101000a900460ff1662000646576040517f08c379a00000000000000000000000000000000000000000000000000000000081526004016200063d9062000bee565b60405180910390fd5b6001600085815260200190815260200160002060050183908060018154018082558091505060019003906000526020600020016000909190919091505550505050565b816001600082815260200190815260200160002060000160009054906101000a900460ff16620006f0576040517f08c379a0000000000000000000000000000000000000000000000000000000008152600401620006e79062000bee565b60405180910390fd5b60016000848152602001908152602001600020600201829080600181540180825580915050600190039060005260206000200160009091909190915055505050565b6001600082815260200190815260200160002060000160009054906101000a900460ff1662000798576040517f08c379a00000000000000000000000000000000000000000000000000000000081526004016200078f9062000baa565b60405180910390fd5b6000801b60035414620007e2576040517f08c379a0000000000000000000000000000000000000000000000000000000008152600401620007d99062000bcc565b60405180910390fd5b8060038190555050565b5050565b816001600082815260200190815260200160002060000160009054906101000a900460ff1662000857576040517f08c379a00000000000000000000000000000000000000000000000000000000081526004016200084e9062000bee565b60405180910390fd5b600160008481526020019081526020016000206004018290806001815401808255809150506001900390600052602060002090600491828204019190066008029091909190916101000a81548167ffffffffffffffff021916908367ffffffffffffffff160217905550505050565b82805482825590600052602060002090810192821562000905579160200282015b8281111562000904578251825591602001919060010190620008e7565b5b509050620009149190620009a9565b5090565b828054620009269062000d16565b90600052602060002090601f0160209004810192826200094a576000855562000996565b82601f106200096557805160ff191683800117855562000996565b8280016001018555821562000996579182015b828111156200099557825182559160200191906001019062000978565b5b509050620009a59190620009c8565b5090565b5b80821115620009c4576000816000905550600101620009aa565b5090565b5b80821115620009e3576000816000905550600101620009c9565b5090565b6000620009fe620009f88462000c5b565b62000c32565b90508281526020810184848401111562000a1d5762000a1c62000de5565b5b62000a2a84828562000ce0565b509392505050565b60008151905062000a438162000f8d565b92915050565b600082601f83011262000a615762000a6062000de0565b5b815162000a73848260208601620009e7565b91505092915050565b60008151905062000a8d8162000fa7565b92915050565b60008060006060848603121562000aaf5762000aae62000def565b5b600084015167ffffffffffffffff81111562000ad05762000acf62000dea565b5b62000ade8682870162000a49565b935050602062000af18682870162000a32565b925050604062000b048682870162000a7c565b9150509250925092565b600062000b1d602a8362000c91565b915062000b2a8262000e05565b604082019050919050565b600062000b4460618362000c91565b915062000b518262000e54565b608082019050919050565b600062000b6b60228362000c91565b915062000b788262000eef565b604082019050919050565b600062000b9260238362000c91565b915062000b9f8262000f3e565b604082019050919050565b6000602082019050818103600083015262000bc58162000b0e565b9050919050565b6000602082019050818103600083015262000be78162000b35565b9050919050565b6000602082019050818103600083015262000c098162000b5c565b9050919050565b6000602082019050818103600083015262000c2b8162000b83565b9050919050565b600062000c3e62000c51565b905062000c4c828262000d4c565b919050565b6000604051905090565b600067ffffffffffffffff82111562000c795762000c7862000db1565b5b62000c848262000df4565b9050602081019050919050565b600082825260208201905092915050565b600062000caf8262000cb6565b9050919050565b600073ffffffffffffffffffffffffffffffffffffffff82169050919050565b6000819050919050565b60005b8381101562000d0057808201518184015260208101905062000ce3565b8381111562000d10576000848401525b50505050565b6000600282049050600182168062000d2f57607f821691505b6020821081141562000d465762000d4562000d82565b5b50919050565b62000d578262000df4565b810181811067ffffffffffffffff8211171562000d795762000d7862000db1565b5b80604052505050565b7f4e487b7100000000000000000000000000000000000000000000000000000000600052602260045260246000fd5b7f4e487b7100000000000000000000000000000000000000000000000000000000600052604160045260246000fd5b600080fd5b600080fd5b600080fd5b600080fd5b6000601f19601f8301169050919050565b7f74686520696e697469616c20737461746520686173206e6f74206265656e206360008201527f7265617465642079657400000000000000000000000000000000000000000000602082015250565b7f7468652063757272656e742073746174652068617320616c726561647920626560008201527f656e207365742c20736f20796f752063616e6e6f7420636f6e6669677572652060208201527f74686520696e697469616c20737461746520616e64206f76657272696465206960408201527f7400000000000000000000000000000000000000000000000000000000000000606082015250565b7f74686520737461746520686173206e6f74206265656e2063726561746564207960008201527f6574000000000000000000000000000000000000000000000000000000000000602082015250565b7f746869732073746174652068617320616c7265616479206265656e206372656160008201527f7465640000000000000000000000000000000000000000000000000000000000602082015250565b62000f988162000ca2565b811462000fa457600080fd5b50565b62000fb28162000cd6565b811462000fbe57600080fd5b50565b611ba78062000fd16000396000f3fe608060405234801561001057600080fd5b506004361061010b5760003560e01c8063a2f50784116100a2578063c6ef8f2f11610071578063c6ef8f2f146102b1578063c8691b2a146102cf578063d391014b14610302578063ed96b08d14610320578063fbcc0f3f1461033e5761010b565b8063a2f5078414610224578063a4ddb07114610242578063a7a38f0b14610260578063ac65527f146102935761010b565b806333c2c9ee116100de57806333c2c9ee146101b0578063378aa701146101cc5780635478f468146101ea578063694f1105146102085761010b565b806309648a9d14610110578063226c8952146101445780632e2bc0d514610162578063304b1bd114610180575b600080fd5b61012a600480360381019061012591906110bf565b61035a565b60405161013b959493929190611463565b60405180910390f35b61014c61070a565b6040516101599190611448565b60405180910390f35b61016a61072e565b6040516101779190611426565b60405180910390f35b61019a6004803603810190610195919061119b565b61079c565b6040516101a79190611448565b60405180910390f35b6101ca60048036038101906101c5919061112c565b6107c0565b005b6101d4610824565b6040516101e19190611448565b60405180910390f35b6101f261082e565b6040516101ff91906115b0565b60405180910390f35b610222600480360381019061021d91906110bf565b61083a565b005b61022c610a3c565b6040516102399190611448565b60405180910390f35b61024a610a60565b6040516102579190611426565b60405180910390f35b61027a6004803603810190610275919061119b565b610ab8565b60405161028a94939291906114cb565b60405180910390f35b61029b610b18565b6040516102a89190611448565b60405180910390f35b6102b9610b3c565b6040516102c69190611448565b60405180910390f35b6102e960048036038101906102e4919061119b565b610b60565b6040516102f994939291906114cb565b60405180910390f35b61030a610c2d565b6040516103179190611448565b60405180910390f35b610328610c51565b6040516103359190611448565b60405180910390f35b610358600480360381019061035391906110ec565b610c75565b005b6000606080606060008060016000888152602001908152602001600020905060008060048054905067ffffffffffffffff81111561039b5761039a6118ac565b5b6040519080825280602002602001820160405280156103c95781602001602082028036833780820191505090505b50905060005b60048054905081101561054657600160008b81526020019081526020016000206001016000600483815481106104085761040761187d565b5b90600052602060002090600891828204019190066004029054906101000a900460e01b7bffffffffffffffffffffffffffffffffffffffffffffffffffffffff19167bffffffffffffffffffffffffffffffffffffffffffffffffffffffff1916815260200190815260200160002060009054906101000a900460ff1615610533576004818154811061049e5761049d61187d565b5b90600052602060002090600891828204019190066004029054906101000a900460e01b828460ff16815181106104d7576104d661187d565b5b60200260200101907bffffffffffffffffffffffffffffffffffffffffffffffffffffffff191690817bffffffffffffffffffffffffffffffffffffffffffffffffffffffff19168152505060018361053091906116a4565b92505b808061053e906117cc565b9150506103cf565b5060008260ff1667ffffffffffffffff811115610566576105656118ac565b5b6040519080825280602002602001820160405280156105945781602001602082028036833780820191505090505b50905060005b8360ff16811015610632578281815181106105b8576105b761187d565b5b60200260200101518282815181106105d3576105d261187d565b5b60200260200101907bffffffffffffffffffffffffffffffffffffffffffffffffffffffff191690817bffffffffffffffffffffffffffffffffffffffffffffffffffffffff191681525050808061062a906117cc565b91505061059a565b50898460050185600201838760060160009054906101000a900460e01b8380548060200260200160405190810160405280929190818152602001828054801561069a57602002820191906000526020600020905b815481526020019060010190808311610686575b50505050509350828054806020026020016040519081016040528092919081815260200182805480156106ec57602002820191906000526020600020905b8154815260200190600101908083116106d8575b50505050509250985098509850985098505050505091939590929450565b7f53544147455f54574f5f4e414d4500000000000000000000000000000000000081565b606060016000600354815260200190815260200160002060050180548060200260200160405190810160405280929190818152602001828054801561079257602002820191906000526020600020905b81548152602001906001019080831161077e575b5050505050905090565b600681815481106107ac57600080fd5b906000526020600020016000915090505481565b82600790805190602001906107d6929190610f63565b5081600860006101000a81548173ffffffffffffffffffffffffffffffffffffffff021916908373ffffffffffffffffffffffffffffffffffffffff16021790555080600981905550505050565b6000600354905090565b60008080549050905090565b600060028054905011610882576040517f08c379a000000000000000000000000000000000000000000000000000000000815260040161087990611550565b60405180910390fd5b8061089461088e610824565b82610c79565b6000600354905082600381905550600060016000858152602001908152602001600020600401905060005b818054905081101561092f5761091c83868484815481106108e3576108e261187d565b5b90600052602060002090600491828204019190066008029054906101000a90048015610fe9021767ffffffffffffffff1663ffffffff16565b8080610927906117cc565b9150506108bf565b50600060405180608001604052808481526020018681526020013373ffffffffffffffffffffffffffffffffffffffff168152602001428152509080600181540180825580915050600190039060005260206000209060040201600090919091909150600082015181600001556020820151816001015560408201518160020160006101000a81548173ffffffffffffffffffffffffffffffffffffffff021916908373ffffffffffffffffffffffffffffffffffffffff1602179055506060820151816003015550507f483a31c379a4b707332853662276a3424ec44f0ccbfc20d78fd9d143694f76693383600354604051610a2e939291906113ef565b60405180910390a150505050565b7f53544147455f464956455f4e414d45000000000000000000000000000000000081565b60606002805480602002602001604051908101604052809291908181526020018280548015610aae57602002820191906000526020600020905b815481526020019060010190808311610a9a575b5050505050905090565b60008181548110610ac857600080fd5b90600052602060002090600402016000915090508060000154908060010154908060020160009054906101000a900473ffffffffffffffffffffffffffffffffffffffff16908060030154905084565b7f53544147455f4f4e455f4e414d4500000000000000000000000000000000000081565b7f53544147455f54485245455f4e414d450000000000000000000000000000000081565b60008060008060008581548110610b7a57610b7961187d565b5b90600052602060002090600402016000015460008681548110610ba057610b9f61187d565b5b90600052602060002090600402016001015460008781548110610bc657610bc561187d565b5b906000526020600020906004020160020160009054906101000a900473ffffffffffffffffffffffffffffffffffffffff1660008881548110610c0c57610c0b61187d565b5b90600052602060002090600402016003015493509350935093509193509193565b7f524f4c455f41444d494e0000000000000000000000000000000000000000000081565b7f53544147455f464f55525f4e414d45000000000000000000000000000000000081565b5050565b6001600083815260200190815260200160002060000160009054906101000a900460ff16610cdc576040517f08c379a0000000000000000000000000000000000000000000000000000000008152600401610cd390611530565b60405180910390fd5b6001600082815260200190815260200160002060000160009054906101000a900460ff16610d3f576040517f08c379a0000000000000000000000000000000000000000000000000000000008152600401610d3690611570565b60405180910390fd5b610d498282610dde565b610d88576040517f08c379a0000000000000000000000000000000000000000000000000000000008152600401610d7f90611590565b60405180910390fd5b610d9181610e9d565b610dd0576040517f08c379a0000000000000000000000000000000000000000000000000000000008152600401610dc790611510565b60405180910390fd5b610dda8282610ed0565b5050565b60008060016000858152602001908152602001600020600501905060005b8180549050811015610e955783604051602001610e1991906113d4565b60405160208183030381529060405280519060200120828281548110610e4257610e4161187d565b5b9060005260206000200154604051602001610e5d91906113d4565b604051602081830303815290604052805190602001201415610e825760019250610e95565b8080610e8d906117cc565b915050610dfc565b505092915050565b600080600160008481526020019081526020016000206002019050600081805490501415610eca57600191505b50919050565b600060016000838152602001908152602001600020600301905060005b8180549050811015610f5d57610f4a8484848481548110610f1157610f1061187d565b5b90600052602060002090600491828204019190066008029054906101000a90048015610fe9021767ffffffffffffffff1663ffffffff16565b8080610f55906117cc565b915050610eed565b50505050565b828054610f6f90611769565b90600052602060002090601f016020900481019282610f915760008555610fd8565b82601f10610faa57805160ff1916838001178555610fd8565b82800160010185558215610fd8579182015b82811115610fd7578251825591602001919060010190610fbc565b5b509050610fe59190610ff3565b5090565b610ff16118db565b565b5b8082111561100c576000816000905550600101610ff4565b5090565b600061102361101e846115f0565b6115cb565b90508281526020810184848401111561103f5761103e61190f565b5b61104a84828561175a565b509392505050565b60008135905061106181611b2c565b92915050565b60008135905061107681611b43565b92915050565b600082601f8301126110915761109061190a565b5b81356110a1848260208601611010565b91505092915050565b6000813590506110b981611b5a565b92915050565b6000602082840312156110d5576110d4611919565b5b60006110e384828501611067565b91505092915050565b6000806040838503121561110357611102611919565b5b600061111185828601611067565b925050602061112285828601611067565b9150509250929050565b60008060006060848603121561114557611144611919565b5b600084013567ffffffffffffffff81111561116357611162611914565b5b61116f8682870161107c565b935050602061118086828701611052565b9250506040611191868287016110aa565b9150509250925092565b6000602082840312156111b1576111b0611919565b5b60006111bf848285016110aa565b91505092915050565b60006111d483836112c3565b60208301905092915050565b60006111ec83836112f8565b60208301905092915050565b611201816116db565b82525050565b600061121282611641565b61121c8185611671565b935061122783611621565b8060005b8381101561125857815161123f88826111c8565b975061124a83611657565b92505060018101905061122b565b5085935050505092915050565b60006112708261164c565b61127a8185611682565b935061128583611631565b8060005b838110156112b657815161129d88826111e0565b97506112a883611664565b925050600181019050611289565b5085935050505092915050565b6112cc816116ed565b82525050565b6112db816116ed565b82525050565b6112f26112ed826116ed565b611815565b82525050565b611301816116f7565b82525050565b611310816116f7565b82525050565b6000611323606983611693565b915061132e8261192f565b608082019050919050565b6000611346603583611693565b9150611351826119ca565b604082019050919050565b6000611369602883611693565b915061137482611a19565b604082019050919050565b600061138c603383611693565b915061139782611a68565b604082019050919050565b60006113af604983611693565b91506113ba82611ab7565b606082019050919050565b6113ce81611743565b82525050565b60006113e082846112e1565b60208201915081905092915050565b600060608201905061140460008301866111f8565b61141160208301856112d2565b61141e60408301846112d2565b949350505050565b600060208201905081810360008301526114408184611207565b905092915050565b600060208201905061145d60008301846112d2565b92915050565b600060a08201905061147860008301886112d2565b818103602083015261148a8187611207565b9050818103604083015261149e8186611207565b905081810360608301526114b28185611265565b90506114c16080830184611307565b9695505050505050565b60006080820190506114e060008301876112d2565b6114ed60208301866112d2565b6114fa60408301856111f8565b61150760608301846113c5565b95945050505050565b6000602082019050818103600083015261152981611316565b9050919050565b6000602082019050818103600083015261154981611339565b9050919050565b600060208201905081810360008301526115698161135c565b9050919050565b600060208201905081810360008301526115898161137f565b9050919050565b600060208201905081810360008301526115a9816113a2565b9050919050565b60006020820190506115c560008301846113c5565b92915050565b60006115d56115e6565b90506115e1828261179b565b919050565b6000604051905090565b600067ffffffffffffffff82111561160b5761160a6118ac565b5b6116148261191e565b9050602081019050919050565b6000819050602082019050919050565b6000819050602082019050919050565b600081519050919050565b600081519050919050565b6000602082019050919050565b6000602082019050919050565b600082825260208201905092915050565b600082825260208201905092915050565b600082825260208201905092915050565b60006116af8261174d565b91506116ba8361174d565b92508260ff038211156116d0576116cf61181f565b5b828201905092915050565b60006116e682611723565b9050919050565b6000819050919050565b60007fffffffff0000000000000000000000000000000000000000000000000000000082169050919050565b600073ffffffffffffffffffffffffffffffffffffffff82169050919050565b6000819050919050565b600060ff82169050919050565b82818337600083830152505050565b6000600282049050600182168061178157607f821691505b602082108114156117955761179461184e565b5b50919050565b6117a48261191e565b810181811067ffffffffffffffff821117156117c3576117c26118ac565b5b80604052505050565b60006117d782611743565b91507fffffffffffffffffffffffffffffffffffffffffffffffffffffffffffffffff82141561180a5761180961181f565b5b600182019050919050565b6000819050919050565b7f4e487b7100000000000000000000000000000000000000000000000000000000600052601160045260246000fd5b7f4e487b7100000000000000000000000000000000000000000000000000000000600052602260045260246000fd5b7f4e487b7100000000000000000000000000000000000000000000000000000000600052603260045260246000fd5b7f4e487b7100000000000000000000000000000000000000000000000000000000600052604160045260246000fd5b7f4e487b7100000000000000000000000000000000000000000000000000000000600052605160045260246000fd5b600080fd5b600080fd5b600080fd5b600080fd5b6000601f19601f8301169050919050565b7f7468652073656e646572206f662074686973207472616e73616374696f6e206460008201527f6f6573206e6f742068617665206120726f6c65207468617420616c6c6f77732060208201527f7472616e736974696f6e206265747765656e207468652066726f6d20616e642060408201527f746f207374617465730000000000000000000000000000000000000000000000606082015250565b7f7468652066726f6d20737461746520686173206e6f74206265656e20636f6e6660008201527f69677572656420696e2074686973206f626a6563740000000000000000000000602082015250565b7f746869732073746174656d616368696e6520686173206e6f74206265656e207360008201527f6574757020796574000000000000000000000000000000000000000000000000602082015250565b7f74686520746f20737461746520686173206e6f74206265656e20636f6e66696760008201527f7572656420696e2074686973206f626a65637400000000000000000000000000602082015250565b7f74686520726571756573746564206e657874207374617465206973206e6f742060008201527f616e20616c6c6f776564206e65787420737461746520666f722074686973207460208201527f72616e736974696f6e0000000000000000000000000000000000000000000000604082015250565b611b35816116db565b8114611b4057600080fd5b50565b611b4c816116ed565b8114611b5757600080fd5b50565b611b6381611743565b8114611b6e57600080fd5b5056fea26469706673582212207536606d8e2e98b54308a9fd5921c3eb01b35ac737210d157fc48cb6830147d564736f6c63430008070033",
			"opcodes": "PUSH1 0x80 PUSH1 0x40 MSTORE PUSH1 0x40 MLOAD DUP1 PUSH1 0x20 ADD PUSH1 0x40 MSTORE DUP1 PUSH32 0x524F4C455F41444D494E00000000000000000000000000000000000000000000 DUP2 MSTORE POP PUSH1 0x6 SWAP1 PUSH1 0x1 PUSH3 0x45 SWAP3 SWAP2 SWAP1 PUSH3 0x8C6 JUMP JUMPDEST POP CALLVALUE DUP1 ISZERO PUSH3 0x53 JUMPI PUSH1 0x0 DUP1 REVERT JUMPDEST POP PUSH1 0x40 MLOAD PUSH3 0x2B78 CODESIZE SUB DUP1 PUSH3 0x2B78 DUP4 CODECOPY DUP2 DUP2 ADD PUSH1 0x40 MSTORE DUP2 ADD SWAP1 PUSH3 0x79 SWAP2 SWAP1 PUSH3 0xA93 JUMP JUMPDEST DUP3 PUSH1 0x7 SWAP1 DUP1 MLOAD SWAP1 PUSH1 0x20 ADD SWAP1 PUSH3 0x91 SWAP3 SWAP2 SWAP1 PUSH3 0x918 JUMP JUMPDEST POP DUP2 PUSH1 0x8 PUSH1 0x0 PUSH2 0x100 EXP DUP2 SLOAD DUP2 PUSH20 0xFFFFFFFFFFFFFFFFFFFFFFFFFFFFFFFFFFFFFFFF MUL NOT AND SWAP1 DUP4 PUSH20 0xFFFFFFFFFFFFFFFFFFFFFFFFFFFFFFFFFFFFFFFF AND MUL OR SWAP1 SSTORE POP DUP1 PUSH1 0x9 DUP2 SWAP1 SSTORE POP PUSH3 0xEA PUSH3 0xF3 PUSH1 0x20 SHL PUSH1 0x20 SHR JUMP JUMPDEST POP POP POP PUSH3 0xFC1 JUMP JUMPDEST PUSH3 0x124 PUSH32 0x53544147455F4F4E455F4E414D45000000000000000000000000000000000000 PUSH3 0x4B7 PUSH1 0x20 SHL PUSH1 0x20 SHR JUMP JUMPDEST PUSH3 0x155 PUSH32 0x53544147455F54574F5F4E414D45000000000000000000000000000000000000 PUSH3 0x4B7 PUSH1 0x20 SHL PUSH1 0x20 SHR JUMP JUMPDEST PUSH3 0x186 PUSH32 0x53544147455F54485245455F4E414D4500000000000000000000000000000000 PUSH3 0x4B7 PUSH1 0x20 SHL PUSH1 0x20 SHR JUMP JUMPDEST PUSH3 0x1B7 PUSH32 0x53544147455F464F55525F4E414D450000000000000000000000000000000000 PUSH3 0x4B7 PUSH1 0x20 SHL PUSH1 0x20 SHR JUMP JUMPDEST PUSH3 0x209 PUSH32 0x53544147455F4F4E455F4E414D45000000000000000000000000000000000000 PUSH32 0x53544147455F54574F5F4E414D45000000000000000000000000000000000000 PUSH3 0x578 PUSH1 0x20 SHL PUSH1 0x20 SHR JUMP JUMPDEST PUSH3 0x25B PUSH32 0x53544147455F4F4E455F4E414D45000000000000000000000000000000000000 PUSH32 0x524F4C455F41444D494E00000000000000000000000000000000000000000000 PUSH3 0x689 PUSH1 0x20 SHL PUSH1 0x20 SHR JUMP JUMPDEST PUSH3 0x2AD PUSH32 0x53544147455F54574F5F4E414D45000000000000000000000000000000000000 PUSH32 0x53544147455F54485245455F4E414D4500000000000000000000000000000000 PUSH3 0x578 PUSH1 0x20 SHL PUSH1 0x20 SHR JUMP JUMPDEST PUSH3 0x2FF PUSH32 0x53544147455F54574F5F4E414D45000000000000000000000000000000000000 PUSH32 0x524F4C455F41444D494E00000000000000000000000000000000000000000000 PUSH3 0x689 PUSH1 0x20 SHL PUSH1 0x20 SHR JUMP JUMPDEST PUSH3 0x351 PUSH32 0x53544147455F54485245455F4E414D4500000000000000000000000000000000 PUSH32 0x53544147455F464F55525F4E414D450000000000000000000000000000000000 PUSH3 0x578 PUSH1 0x20 SHL PUSH1 0x20 SHR JUMP JUMPDEST PUSH3 0x3A3 PUSH32 0x53544147455F54485245455F4E414D4500000000000000000000000000000000 PUSH32 0x524F4C455F41444D494E00000000000000000000000000000000000000000000 PUSH3 0x689 PUSH1 0x20 SHL PUSH1 0x20 SHR JUMP JUMPDEST PUSH3 0x3F5 PUSH32 0x53544147455F464F55525F4E414D450000000000000000000000000000000000 PUSH32 0x53544147455F464956455F4E414D450000000000000000000000000000000000 PUSH3 0x578 PUSH1 0x20 SHL PUSH1 0x20 SHR JUMP JUMPDEST PUSH3 0x447 PUSH32 0x53544147455F464F55525F4E414D450000000000000000000000000000000000 PUSH32 0x524F4C455F41444D494E00000000000000000000000000000000000000000000 PUSH3 0x689 PUSH1 0x20 SHL PUSH1 0x20 SHR JUMP JUMPDEST PUSH3 0x478 PUSH32 0x53544147455F4F4E455F4E414D45000000000000000000000000000000000000 PUSH3 0x732 PUSH1 0x20 SHL PUSH1 0x20 SHR JUMP JUMPDEST PUSH3 0x4B5 PUSH32 0x53544147455F54574F5F4E414D45000000000000000000000000000000000000 PUSH3 0x7EC PUSH1 0x20 SHL PUSH3 0xC75 OR PUSH3 0x7F0 PUSH1 0x20 SHL PUSH1 0x20 SHR JUMP JUMPDEST JUMP JUMPDEST PUSH1 0x1 PUSH1 0x0 DUP3 DUP2 MSTORE PUSH1 0x20 ADD SWAP1 DUP2 MSTORE PUSH1 0x20 ADD PUSH1 0x0 KECCAK256 PUSH1 0x0 ADD PUSH1 0x0 SWAP1 SLOAD SWAP1 PUSH2 0x100 EXP SWAP1 DIV PUSH1 0xFF AND ISZERO PUSH3 0x51E JUMPI PUSH1 0x40 MLOAD PUSH32 0x8C379A000000000000000000000000000000000000000000000000000000000 DUP2 MSTORE PUSH1 0x4 ADD PUSH3 0x515 SWAP1 PUSH3 0xC10 JUMP JUMPDEST PUSH1 0x40 MLOAD DUP1 SWAP2 SUB SWAP1 REVERT JUMPDEST PUSH1 0x1 DUP1 PUSH1 0x0 DUP4 DUP2 MSTORE PUSH1 0x20 ADD SWAP1 DUP2 MSTORE PUSH1 0x20 ADD PUSH1 0x0 KECCAK256 PUSH1 0x0 ADD PUSH1 0x0 PUSH2 0x100 EXP DUP2 SLOAD DUP2 PUSH1 0xFF MUL NOT AND SWAP1 DUP4 ISZERO ISZERO MUL OR SWAP1 SSTORE POP PUSH1 0x2 DUP2 SWAP1 DUP1 PUSH1 0x1 DUP2 SLOAD ADD DUP1 DUP3 SSTORE DUP1 SWAP2 POP POP PUSH1 0x1 SWAP1 SUB SWAP1 PUSH1 0x0 MSTORE PUSH1 0x20 PUSH1 0x0 KECCAK256 ADD PUSH1 0x0 SWAP1 SWAP2 SWAP1 SWAP2 SWAP1 SWAP2 POP SSTORE POP JUMP JUMPDEST DUP2 PUSH1 0x1 PUSH1 0x0 DUP3 DUP2 MSTORE PUSH1 0x20 ADD SWAP1 DUP2 MSTORE PUSH1 0x20 ADD PUSH1 0x0 KECCAK256 PUSH1 0x0 ADD PUSH1 0x0 SWAP1 SLOAD SWAP1 PUSH2 0x100 EXP SWAP1 DIV PUSH1 0xFF AND PUSH3 0x5DF JUMPI PUSH1 0x40 MLOAD PUSH32 0x8C379A000000000000000000000000000000000000000000000000000000000 DUP2 MSTORE PUSH1 0x4 ADD PUSH3 0x5D6 SWAP1 PUSH3 0xBEE JUMP JUMPDEST PUSH1 0x40 MLOAD DUP1 SWAP2 SUB SWAP1 REVERT JUMPDEST DUP2 PUSH1 0x1 PUSH1 0x0 DUP3 DUP2 MSTORE PUSH1 0x20 ADD SWAP1 DUP2 MSTORE PUSH1 0x20 ADD PUSH1 0x0 KECCAK256 PUSH1 0x0 ADD PUSH1 0x0 SWAP1 SLOAD SWAP1 PUSH2 0x100 EXP SWAP1 DIV PUSH1 0xFF AND PUSH3 0x646 JUMPI PUSH1 0x40 MLOAD PUSH32 0x8C379A000000000000000000000000000000000000000000000000000000000 DUP2 MSTORE PUSH1 0x4 ADD PUSH3 0x63D SWAP1 PUSH3 0xBEE JUMP JUMPDEST PUSH1 0x40 MLOAD DUP1 SWAP2 SUB SWAP1 REVERT JUMPDEST PUSH1 0x1 PUSH1 0x0 DUP6 DUP2 MSTORE PUSH1 0x20 ADD SWAP1 DUP2 MSTORE PUSH1 0x20 ADD PUSH1 0x0 KECCAK256 PUSH1 0x5 ADD DUP4 SWAP1 DUP1 PUSH1 0x1 DUP2 SLOAD ADD DUP1 DUP3 SSTORE DUP1 SWAP2 POP POP PUSH1 0x1 SWAP1 SUB SWAP1 PUSH1 0x0 MSTORE PUSH1 0x20 PUSH1 0x0 KECCAK256 ADD PUSH1 0x0 SWAP1 SWAP2 SWAP1 SWAP2 SWAP1 SWAP2 POP SSTORE POP POP POP POP JUMP JUMPDEST DUP2 PUSH1 0x1 PUSH1 0x0 DUP3 DUP2 MSTORE PUSH1 0x20 ADD SWAP1 DUP2 MSTORE PUSH1 0x20 ADD PUSH1 0x0 KECCAK256 PUSH1 0x0 ADD PUSH1 0x0 SWAP1 SLOAD SWAP1 PUSH2 0x100 EXP SWAP1 DIV PUSH1 0xFF AND PUSH3 0x6F0 JUMPI PUSH1 0x40 MLOAD PUSH32 0x8C379A000000000000000000000000000000000000000000000000000000000 DUP2 MSTORE PUSH1 0x4 ADD PUSH3 0x6E7 SWAP1 PUSH3 0xBEE JUMP JUMPDEST PUSH1 0x40 MLOAD DUP1 SWAP2 SUB SWAP1 REVERT JUMPDEST PUSH1 0x1 PUSH1 0x0 DUP5 DUP2 MSTORE PUSH1 0x20 ADD SWAP1 DUP2 MSTORE PUSH1 0x20 ADD PUSH1 0x0 KECCAK256 PUSH1 0x2 ADD DUP3 SWAP1 DUP1 PUSH1 0x1 DUP2 SLOAD ADD DUP1 DUP3 SSTORE DUP1 SWAP2 POP POP PUSH1 0x1 SWAP1 SUB SWAP1 PUSH1 0x0 MSTORE PUSH1 0x20 PUSH1 0x0 KECCAK256 ADD PUSH1 0x0 SWAP1 SWAP2 SWAP1 SWAP2 SWAP1 SWAP2 POP SSTORE POP POP POP JUMP JUMPDEST PUSH1 0x1 PUSH1 0x0 DUP3 DUP2 MSTORE PUSH1 0x20 ADD SWAP1 DUP2 MSTORE PUSH1 0x20 ADD PUSH1 0x0 KECCAK256 PUSH1 0x0 ADD PUSH1 0x0 SWAP1 SLOAD SWAP1 PUSH2 0x100 EXP SWAP1 DIV PUSH1 0xFF AND PUSH3 0x798 JUMPI PUSH1 0x40 MLOAD PUSH32 0x8C379A000000000000000000000000000000000000000000000000000000000 DUP2 MSTORE PUSH1 0x4 ADD PUSH3 0x78F SWAP1 PUSH3 0xBAA JUMP JUMPDEST PUSH1 0x40 MLOAD DUP1 SWAP2 SUB SWAP1 REVERT JUMPDEST PUSH1 0x0 DUP1 SHL PUSH1 0x3 SLOAD EQ PUSH3 0x7E2 JUMPI PUSH1 0x40 MLOAD PUSH32 0x8C379A000000000000000000000000000000000000000000000000000000000 DUP2 MSTORE PUSH1 0x4 ADD PUSH3 0x7D9 SWAP1 PUSH3 0xBCC JUMP JUMPDEST PUSH1 0x40 MLOAD DUP1 SWAP2 SUB SWAP1 REVERT JUMPDEST DUP1 PUSH1 0x3 DUP2 SWAP1 SSTORE POP POP JUMP JUMPDEST POP POP JUMP JUMPDEST DUP2 PUSH1 0x1 PUSH1 0x0 DUP3 DUP2 MSTORE PUSH1 0x20 ADD SWAP1 DUP2 MSTORE PUSH1 0x20 ADD PUSH1 0x0 KECCAK256 PUSH1 0x0 ADD PUSH1 0x0 SWAP1 SLOAD SWAP1 PUSH2 0x100 EXP SWAP1 DIV PUSH1 0xFF AND PUSH3 0x857 JUMPI PUSH1 0x40 MLOAD PUSH32 0x8C379A000000000000000000000000000000000000000000000000000000000 DUP2 MSTORE PUSH1 0x4 ADD PUSH3 0x84E SWAP1 PUSH3 0xBEE JUMP JUMPDEST PUSH1 0x40 MLOAD DUP1 SWAP2 SUB SWAP1 REVERT JUMPDEST PUSH1 0x1 PUSH1 0x0 DUP5 DUP2 MSTORE PUSH1 0x20 ADD SWAP1 DUP2 MSTORE PUSH1 0x20 ADD PUSH1 0x0 KECCAK256 PUSH1 0x4 ADD DUP3 SWAP1 DUP1 PUSH1 0x1 DUP2 SLOAD ADD DUP1 DUP3 SSTORE DUP1 SWAP2 POP POP PUSH1 0x1 SWAP1 SUB SWAP1 PUSH1 0x0 MSTORE PUSH1 0x20 PUSH1 0x0 KECCAK256 SWAP1 PUSH1 0x4 SWAP2 DUP3 DUP3 DIV ADD SWAP2 SWAP1 MOD PUSH1 0x8 MUL SWAP1 SWAP2 SWAP1 SWAP2 SWAP1 SWAP2 PUSH2 0x100 EXP DUP2 SLOAD DUP2 PUSH8 0xFFFFFFFFFFFFFFFF MUL NOT AND SWAP1 DUP4 PUSH8 0xFFFFFFFFFFFFFFFF AND MUL OR SWAP1 SSTORE POP POP POP POP JUMP JUMPDEST DUP3 DUP1 SLOAD DUP3 DUP3 SSTORE SWAP1 PUSH1 0x0 MSTORE PUSH1 0x20 PUSH1 0x0 KECCAK256 SWAP1 DUP2 ADD SWAP3 DUP3 ISZERO PUSH3 0x905 JUMPI SWAP2 PUSH1 0x20 MUL DUP3 ADD JUMPDEST DUP3 DUP2 GT ISZERO PUSH3 0x904 JUMPI DUP3 MLOAD DUP3 SSTORE SWAP2 PUSH1 0x20 ADD SWAP2 SWAP1 PUSH1 0x1 ADD SWAP1 PUSH3 0x8E7 JUMP JUMPDEST JUMPDEST POP SWAP1 POP PUSH3 0x914 SWAP2 SWAP1 PUSH3 0x9A9 JUMP JUMPDEST POP SWAP1 JUMP JUMPDEST DUP3 DUP1 SLOAD PUSH3 0x926 SWAP1 PUSH3 0xD16 JUMP JUMPDEST SWAP1 PUSH1 0x0 MSTORE PUSH1 0x20 PUSH1 0x0 KECCAK256 SWAP1 PUSH1 0x1F ADD PUSH1 0x20 SWAP1 DIV DUP2 ADD SWAP3 DUP3 PUSH3 0x94A JUMPI PUSH1 0x0 DUP6 SSTORE PUSH3 0x996 JUMP JUMPDEST DUP3 PUSH1 0x1F LT PUSH3 0x965 JUMPI DUP1 MLOAD PUSH1 0xFF NOT AND DUP4 DUP1 ADD OR DUP6 SSTORE PUSH3 0x996 JUMP JUMPDEST DUP3 DUP1 ADD PUSH1 0x1 ADD DUP6 SSTORE DUP3 ISZERO PUSH3 0x996 JUMPI SWAP2 DUP3 ADD JUMPDEST DUP3 DUP2 GT ISZERO PUSH3 0x995 JUMPI DUP3 MLOAD DUP3 SSTORE SWAP2 PUSH1 0x20 ADD SWAP2 SWAP1 PUSH1 0x1 ADD SWAP1 PUSH3 0x978 JUMP JUMPDEST JUMPDEST POP SWAP1 POP PUSH3 0x9A5 SWAP2 SWAP1 PUSH3 0x9C8 JUMP JUMPDEST POP SWAP1 JUMP JUMPDEST JUMPDEST DUP1 DUP3 GT ISZERO PUSH3 0x9C4 JUMPI PUSH1 0x0 DUP2 PUSH1 0x0 SWAP1 SSTORE POP PUSH1 0x1 ADD PUSH3 0x9AA JUMP JUMPDEST POP SWAP1 JUMP JUMPDEST JUMPDEST DUP1 DUP3 GT ISZERO PUSH3 0x9E3 JUMPI PUSH1 0x0 DUP2 PUSH1 0x0 SWAP1 SSTORE POP PUSH1 0x1 ADD PUSH3 0x9C9 JUMP JUMPDEST POP SWAP1 JUMP JUMPDEST PUSH1 0x0 PUSH3 0x9FE PUSH3 0x9F8 DUP5 PUSH3 0xC5B JUMP JUMPDEST PUSH3 0xC32 JUMP JUMPDEST SWAP1 POP DUP3 DUP2 MSTORE PUSH1 0x20 DUP2 ADD DUP5 DUP5 DUP5 ADD GT ISZERO PUSH3 0xA1D JUMPI PUSH3 0xA1C PUSH3 0xDE5 JUMP JUMPDEST JUMPDEST PUSH3 0xA2A DUP5 DUP3 DUP6 PUSH3 0xCE0 JUMP JUMPDEST POP SWAP4 SWAP3 POP POP POP JUMP JUMPDEST PUSH1 0x0 DUP2 MLOAD SWAP1 POP PUSH3 0xA43 DUP2 PUSH3 0xF8D JUMP JUMPDEST SWAP3 SWAP2 POP POP JUMP JUMPDEST PUSH1 0x0 DUP3 PUSH1 0x1F DUP4 ADD SLT PUSH3 0xA61 JUMPI PUSH3 0xA60 PUSH3 0xDE0 JUMP JUMPDEST JUMPDEST DUP2 MLOAD PUSH3 0xA73 DUP5 DUP3 PUSH1 0x20 DUP7 ADD PUSH3 0x9E7 JUMP JUMPDEST SWAP2 POP POP SWAP3 SWAP2 POP POP JUMP JUMPDEST PUSH1 0x0 DUP2 MLOAD SWAP1 POP PUSH3 0xA8D DUP2 PUSH3 0xFA7 JUMP JUMPDEST SWAP3 SWAP2 POP POP JUMP JUMPDEST PUSH1 0x0 DUP1 PUSH1 0x0 PUSH1 0x60 DUP5 DUP7 SUB SLT ISZERO PUSH3 0xAAF JUMPI PUSH3 0xAAE PUSH3 0xDEF JUMP JUMPDEST JUMPDEST PUSH1 0x0 DUP5 ADD MLOAD PUSH8 0xFFFFFFFFFFFFFFFF DUP2 GT ISZERO PUSH3 0xAD0 JUMPI PUSH3 0xACF PUSH3 0xDEA JUMP JUMPDEST JUMPDEST PUSH3 0xADE DUP7 DUP3 DUP8 ADD PUSH3 0xA49 JUMP JUMPDEST SWAP4 POP POP PUSH1 0x20 PUSH3 0xAF1 DUP7 DUP3 DUP8 ADD PUSH3 0xA32 JUMP JUMPDEST SWAP3 POP POP PUSH1 0x40 PUSH3 0xB04 DUP7 DUP3 DUP8 ADD PUSH3 0xA7C JUMP JUMPDEST SWAP2 POP POP SWAP3 POP SWAP3 POP SWAP3 JUMP JUMPDEST PUSH1 0x0 PUSH3 0xB1D PUSH1 0x2A DUP4 PUSH3 0xC91 JUMP JUMPDEST SWAP2 POP PUSH3 0xB2A DUP3 PUSH3 0xE05 JUMP JUMPDEST PUSH1 0x40 DUP3 ADD SWAP1 POP SWAP2 SWAP1 POP JUMP JUMPDEST PUSH1 0x0 PUSH3 0xB44 PUSH1 0x61 DUP4 PUSH3 0xC91 JUMP JUMPDEST SWAP2 POP PUSH3 0xB51 DUP3 PUSH3 0xE54 JUMP JUMPDEST PUSH1 0x80 DUP3 ADD SWAP1 POP SWAP2 SWAP1 POP JUMP JUMPDEST PUSH1 0x0 PUSH3 0xB6B PUSH1 0x22 DUP4 PUSH3 0xC91 JUMP JUMPDEST SWAP2 POP PUSH3 0xB78 DUP3 PUSH3 0xEEF JUMP JUMPDEST PUSH1 0x40 DUP3 ADD SWAP1 POP SWAP2 SWAP1 POP JUMP JUMPDEST PUSH1 0x0 PUSH3 0xB92 PUSH1 0x23 DUP4 PUSH3 0xC91 JUMP JUMPDEST SWAP2 POP PUSH3 0xB9F DUP3 PUSH3 0xF3E JUMP JUMPDEST PUSH1 0x40 DUP3 ADD SWAP1 POP SWAP2 SWAP1 POP JUMP JUMPDEST PUSH1 0x0 PUSH1 0x20 DUP3 ADD SWAP1 POP DUP2 DUP2 SUB PUSH1 0x0 DUP4 ADD MSTORE PUSH3 0xBC5 DUP2 PUSH3 0xB0E JUMP JUMPDEST SWAP1 POP SWAP2 SWAP1 POP JUMP JUMPDEST PUSH1 0x0 PUSH1 0x20 DUP3 ADD SWAP1 POP DUP2 DUP2 SUB PUSH1 0x0 DUP4 ADD MSTORE PUSH3 0xBE7 DUP2 PUSH3 0xB35 JUMP JUMPDEST SWAP1 POP SWAP2 SWAP1 POP JUMP JUMPDEST PUSH1 0x0 PUSH1 0x20 DUP3 ADD SWAP1 POP DUP2 DUP2 SUB PUSH1 0x0 DUP4 ADD MSTORE PUSH3 0xC09 DUP2 PUSH3 0xB5C JUMP JUMPDEST SWAP1 POP SWAP2 SWAP1 POP JUMP JUMPDEST PUSH1 0x0 PUSH1 0x20 DUP3 ADD SWAP1 POP DUP2 DUP2 SUB PUSH1 0x0 DUP4 ADD MSTORE PUSH3 0xC2B DUP2 PUSH3 0xB83 JUMP JUMPDEST SWAP1 POP SWAP2 SWAP1 POP JUMP JUMPDEST PUSH1 0x0 PUSH3 0xC3E PUSH3 0xC51 JUMP JUMPDEST SWAP1 POP PUSH3 0xC4C DUP3 DUP3 PUSH3 0xD4C JUMP JUMPDEST SWAP2 SWAP1 POP JUMP JUMPDEST PUSH1 0x0 PUSH1 0x40 MLOAD SWAP1 POP SWAP1 JUMP JUMPDEST PUSH1 0x0 PUSH8 0xFFFFFFFFFFFFFFFF DUP3 GT ISZERO PUSH3 0xC79 JUMPI PUSH3 0xC78 PUSH3 0xDB1 JUMP JUMPDEST JUMPDEST PUSH3 0xC84 DUP3 PUSH3 0xDF4 JUMP JUMPDEST SWAP1 POP PUSH1 0x20 DUP2 ADD SWAP1 POP SWAP2 SWAP1 POP JUMP JUMPDEST PUSH1 0x0 DUP3 DUP3 MSTORE PUSH1 0x20 DUP3 ADD SWAP1 POP SWAP3 SWAP2 POP POP JUMP JUMPDEST PUSH1 0x0 PUSH3 0xCAF DUP3 PUSH3 0xCB6 JUMP JUMPDEST SWAP1 POP SWAP2 SWAP1 POP JUMP JUMPDEST PUSH1 0x0 PUSH20 0xFFFFFFFFFFFFFFFFFFFFFFFFFFFFFFFFFFFFFFFF DUP3 AND SWAP1 POP SWAP2 SWAP1 POP JUMP JUMPDEST PUSH1 0x0 DUP2 SWAP1 POP SWAP2 SWAP1 POP JUMP JUMPDEST PUSH1 0x0 JUMPDEST DUP4 DUP2 LT ISZERO PUSH3 0xD00 JUMPI DUP1 DUP3 ADD MLOAD DUP2 DUP5 ADD MSTORE PUSH1 0x20 DUP2 ADD SWAP1 POP PUSH3 0xCE3 JUMP JUMPDEST DUP4 DUP2 GT ISZERO PUSH3 0xD10 JUMPI PUSH1 0x0 DUP5 DUP5 ADD MSTORE JUMPDEST POP POP POP POP JUMP JUMPDEST PUSH1 0x0 PUSH1 0x2 DUP3 DIV SWAP1 POP PUSH1 0x1 DUP3 AND DUP1 PUSH3 0xD2F JUMPI PUSH1 0x7F DUP3 AND SWAP2 POP JUMPDEST PUSH1 0x20 DUP3 LT DUP2 EQ ISZERO PUSH3 0xD46 JUMPI PUSH3 0xD45 PUSH3 0xD82 JUMP JUMPDEST JUMPDEST POP SWAP2 SWAP1 POP JUMP JUMPDEST PUSH3 0xD57 DUP3 PUSH3 0xDF4 JUMP JUMPDEST DUP2 ADD DUP2 DUP2 LT PUSH8 0xFFFFFFFFFFFFFFFF DUP3 GT OR ISZERO PUSH3 0xD79 JUMPI PUSH3 0xD78 PUSH3 0xDB1 JUMP JUMPDEST JUMPDEST DUP1 PUSH1 0x40 MSTORE POP POP POP JUMP JUMPDEST PUSH32 0x4E487B7100000000000000000000000000000000000000000000000000000000 PUSH1 0x0 MSTORE PUSH1 0x22 PUSH1 0x4 MSTORE PUSH1 0x24 PUSH1 0x0 REVERT JUMPDEST PUSH32 0x4E487B7100000000000000000000000000000000000000000000000000000000 PUSH1 0x0 MSTORE PUSH1 0x41 PUSH1 0x4 MSTORE PUSH1 0x24 PUSH1 0x0 REVERT JUMPDEST PUSH1 0x0 DUP1 REVERT JUMPDEST PUSH1 0x0 DUP1 REVERT JUMPDEST PUSH1 0x0 DUP1 REVERT JUMPDEST PUSH1 0x0 DUP1 REVERT JUMPDEST PUSH1 0x0 PUSH1 0x1F NOT PUSH1 0x1F DUP4 ADD AND SWAP1 POP SWAP2 SWAP1 POP JUMP JUMPDEST PUSH32 0x74686520696E697469616C20737461746520686173206E6F74206265656E2063 PUSH1 0x0 DUP3 ADD MSTORE PUSH32 0x7265617465642079657400000000000000000000000000000000000000000000 PUSH1 0x20 DUP3 ADD MSTORE POP JUMP JUMPDEST PUSH32 0x7468652063757272656E742073746174652068617320616C7265616479206265 PUSH1 0x0 DUP3 ADD MSTORE PUSH32 0x656E207365742C20736F20796F752063616E6E6F7420636F6E66696775726520 PUSH1 0x20 DUP3 ADD MSTORE PUSH32 0x74686520696E697469616C20737461746520616E64206F766572726964652069 PUSH1 0x40 DUP3 ADD MSTORE PUSH32 0x7400000000000000000000000000000000000000000000000000000000000000 PUSH1 0x60 DUP3 ADD MSTORE POP JUMP JUMPDEST PUSH32 0x74686520737461746520686173206E6F74206265656E20637265617465642079 PUSH1 0x0 DUP3 ADD MSTORE PUSH32 0x6574000000000000000000000000000000000000000000000000000000000000 PUSH1 0x20 DUP3 ADD MSTORE POP JUMP JUMPDEST PUSH32 0x746869732073746174652068617320616C7265616479206265656E2063726561 PUSH1 0x0 DUP3 ADD MSTORE PUSH32 0x7465640000000000000000000000000000000000000000000000000000000000 PUSH1 0x20 DUP3 ADD MSTORE POP JUMP JUMPDEST PUSH3 0xF98 DUP2 PUSH3 0xCA2 JUMP JUMPDEST DUP2 EQ PUSH3 0xFA4 JUMPI PUSH1 0x0 DUP1 REVERT JUMPDEST POP JUMP JUMPDEST PUSH3 0xFB2 DUP2 PUSH3 0xCD6 JUMP JUMPDEST DUP2 EQ PUSH3 0xFBE JUMPI PUSH1 0x0 DUP1 REVERT JUMPDEST POP JUMP JUMPDEST PUSH2 0x1BA7 DUP1 PUSH3 0xFD1 PUSH1 0x0 CODECOPY PUSH1 0x0 RETURN INVALID PUSH1 0x80 PUSH1 0x40 MSTORE CALLVALUE DUP1 ISZERO PUSH2 0x10 JUMPI PUSH1 0x0 DUP1 REVERT JUMPDEST POP PUSH1 0x4 CALLDATASIZE LT PUSH2 0x10B JUMPI PUSH1 0x0 CALLDATALOAD PUSH1 0xE0 SHR DUP1 PUSH4 0xA2F50784 GT PUSH2 0xA2 JUMPI DUP1 PUSH4 0xC6EF8F2F GT PUSH2 0x71 JUMPI DUP1 PUSH4 0xC6EF8F2F EQ PUSH2 0x2B1 JUMPI DUP1 PUSH4 0xC8691B2A EQ PUSH2 0x2CF JUMPI DUP1 PUSH4 0xD391014B EQ PUSH2 0x302 JUMPI DUP1 PUSH4 0xED96B08D EQ PUSH2 0x320 JUMPI DUP1 PUSH4 0xFBCC0F3F EQ PUSH2 0x33E JUMPI PUSH2 0x10B JUMP JUMPDEST DUP1 PUSH4 0xA2F50784 EQ PUSH2 0x224 JUMPI DUP1 PUSH4 0xA4DDB071 EQ PUSH2 0x242 JUMPI DUP1 PUSH4 0xA7A38F0B EQ PUSH2 0x260 JUMPI DUP1 PUSH4 0xAC65527F EQ PUSH2 0x293 JUMPI PUSH2 0x10B JUMP JUMPDEST DUP1 PUSH4 0x33C2C9EE GT PUSH2 0xDE JUMPI DUP1 PUSH4 0x33C2C9EE EQ PUSH2 0x1B0 JUMPI DUP1 PUSH4 0x378AA701 EQ PUSH2 0x1CC JUMPI DUP1 PUSH4 0x5478F468 EQ PUSH2 0x1EA JUMPI DUP1 PUSH4 0x694F1105 EQ PUSH2 0x208 JUMPI PUSH2 0x10B JUMP JUMPDEST DUP1 PUSH4 0x9648A9D EQ PUSH2 0x110 JUMPI DUP1 PUSH4 0x226C8952 EQ PUSH2 0x144 JUMPI DUP1 PUSH4 0x2E2BC0D5 EQ PUSH2 0x162 JUMPI DUP1 PUSH4 0x304B1BD1 EQ PUSH2 0x180 JUMPI JUMPDEST PUSH1 0x0 DUP1 REVERT JUMPDEST PUSH2 0x12A PUSH1 0x4 DUP1 CALLDATASIZE SUB DUP2 ADD SWAP1 PUSH2 0x125 SWAP2 SWAP1 PUSH2 0x10BF JUMP JUMPDEST PUSH2 0x35A JUMP JUMPDEST PUSH1 0x40 MLOAD PUSH2 0x13B SWAP6 SWAP5 SWAP4 SWAP3 SWAP2 SWAP1 PUSH2 0x1463 JUMP JUMPDEST PUSH1 0x40 MLOAD DUP1 SWAP2 SUB SWAP1 RETURN JUMPDEST PUSH2 0x14C PUSH2 0x70A JUMP JUMPDEST PUSH1 0x40 MLOAD PUSH2 0x159 SWAP2 SWAP1 PUSH2 0x1448 JUMP JUMPDEST PUSH1 0x40 MLOAD DUP1 SWAP2 SUB SWAP1 RETURN JUMPDEST PUSH2 0x16A PUSH2 0x72E JUMP JUMPDEST PUSH1 0x40 MLOAD PUSH2 0x177 SWAP2 SWAP1 PUSH2 0x1426 JUMP JUMPDEST PUSH1 0x40 MLOAD DUP1 SWAP2 SUB SWAP1 RETURN JUMPDEST PUSH2 0x19A PUSH1 0x4 DUP1 CALLDATASIZE SUB DUP2 ADD SWAP1 PUSH2 0x195 SWAP2 SWAP1 PUSH2 0x119B JUMP JUMPDEST PUSH2 0x79C JUMP JUMPDEST PUSH1 0x40 MLOAD PUSH2 0x1A7 SWAP2 SWAP1 PUSH2 0x1448 JUMP JUMPDEST PUSH1 0x40 MLOAD DUP1 SWAP2 SUB SWAP1 RETURN JUMPDEST PUSH2 0x1CA PUSH1 0x4 DUP1 CALLDATASIZE SUB DUP2 ADD SWAP1 PUSH2 0x1C5 SWAP2 SWAP1 PUSH2 0x112C JUMP JUMPDEST PUSH2 0x7C0 JUMP JUMPDEST STOP JUMPDEST PUSH2 0x1D4 PUSH2 0x824 JUMP JUMPDEST PUSH1 0x40 MLOAD PUSH2 0x1E1 SWAP2 SWAP1 PUSH2 0x1448 JUMP JUMPDEST PUSH1 0x40 MLOAD DUP1 SWAP2 SUB SWAP1 RETURN JUMPDEST PUSH2 0x1F2 PUSH2 0x82E JUMP JUMPDEST PUSH1 0x40 MLOAD PUSH2 0x1FF SWAP2 SWAP1 PUSH2 0x15B0 JUMP JUMPDEST PUSH1 0x40 MLOAD DUP1 SWAP2 SUB SWAP1 RETURN JUMPDEST PUSH2 0x222 PUSH1 0x4 DUP1 CALLDATASIZE SUB DUP2 ADD SWAP1 PUSH2 0x21D SWAP2 SWAP1 PUSH2 0x10BF JUMP JUMPDEST PUSH2 0x83A JUMP JUMPDEST STOP JUMPDEST PUSH2 0x22C PUSH2 0xA3C JUMP JUMPDEST PUSH1 0x40 MLOAD PUSH2 0x239 SWAP2 SWAP1 PUSH2 0x1448 JUMP JUMPDEST PUSH1 0x40 MLOAD DUP1 SWAP2 SUB SWAP1 RETURN JUMPDEST PUSH2 0x24A PUSH2 0xA60 JUMP JUMPDEST PUSH1 0x40 MLOAD PUSH2 0x257 SWAP2 SWAP1 PUSH2 0x1426 JUMP JUMPDEST PUSH1 0x40 MLOAD DUP1 SWAP2 SUB SWAP1 RETURN JUMPDEST PUSH2 0x27A PUSH1 0x4 DUP1 CALLDATASIZE SUB DUP2 ADD SWAP1 PUSH2 0x275 SWAP2 SWAP1 PUSH2 0x119B JUMP JUMPDEST PUSH2 0xAB8 JUMP JUMPDEST PUSH1 0x40 MLOAD PUSH2 0x28A SWAP5 SWAP4 SWAP3 SWAP2 SWAP1 PUSH2 0x14CB JUMP JUMPDEST PUSH1 0x40 MLOAD DUP1 SWAP2 SUB SWAP1 RETURN JUMPDEST PUSH2 0x29B PUSH2 0xB18 JUMP JUMPDEST PUSH1 0x40 MLOAD PUSH2 0x2A8 SWAP2 SWAP1 PUSH2 0x1448 JUMP JUMPDEST PUSH1 0x40 MLOAD DUP1 SWAP2 SUB SWAP1 RETURN JUMPDEST PUSH2 0x2B9 PUSH2 0xB3C JUMP JUMPDEST PUSH1 0x40 MLOAD PUSH2 0x2C6 SWAP2 SWAP1 PUSH2 0x1448 JUMP JUMPDEST PUSH1 0x40 MLOAD DUP1 SWAP2 SUB SWAP1 RETURN JUMPDEST PUSH2 0x2E9 PUSH1 0x4 DUP1 CALLDATASIZE SUB DUP2 ADD SWAP1 PUSH2 0x2E4 SWAP2 SWAP1 PUSH2 0x119B JUMP JUMPDEST PUSH2 0xB60 JUMP JUMPDEST PUSH1 0x40 MLOAD PUSH2 0x2F9 SWAP5 SWAP4 SWAP3 SWAP2 SWAP1 PUSH2 0x14CB JUMP JUMPDEST PUSH1 0x40 MLOAD DUP1 SWAP2 SUB SWAP1 RETURN JUMPDEST PUSH2 0x30A PUSH2 0xC2D JUMP JUMPDEST PUSH1 0x40 MLOAD PUSH2 0x317 SWAP2 SWAP1 PUSH2 0x1448 JUMP JUMPDEST PUSH1 0x40 MLOAD DUP1 SWAP2 SUB SWAP1 RETURN JUMPDEST PUSH2 0x328 PUSH2 0xC51 JUMP JUMPDEST PUSH1 0x40 MLOAD PUSH2 0x335 SWAP2 SWAP1 PUSH2 0x1448 JUMP JUMPDEST PUSH1 0x40 MLOAD DUP1 SWAP2 SUB SWAP1 RETURN JUMPDEST PUSH2 0x358 PUSH1 0x4 DUP1 CALLDATASIZE SUB DUP2 ADD SWAP1 PUSH2 0x353 SWAP2 SWAP1 PUSH2 0x10EC JUMP JUMPDEST PUSH2 0xC75 JUMP JUMPDEST STOP JUMPDEST PUSH1 0x0 PUSH1 0x60 DUP1 PUSH1 0x60 PUSH1 0x0 DUP1 PUSH1 0x1 PUSH1 0x0 DUP9 DUP2 MSTORE PUSH1 0x20 ADD SWAP1 DUP2 MSTORE PUSH1 0x20 ADD PUSH1 0x0 KECCAK256 SWAP1 POP PUSH1 0x0 DUP1 PUSH1 0x4 DUP1 SLOAD SWAP1 POP PUSH8 0xFFFFFFFFFFFFFFFF DUP2 GT ISZERO PUSH2 0x39B JUMPI PUSH2 0x39A PUSH2 0x18AC JUMP JUMPDEST JUMPDEST PUSH1 0x40 MLOAD SWAP1 DUP1 DUP3 MSTORE DUP1 PUSH1 0x20 MUL PUSH1 0x20 ADD DUP3 ADD PUSH1 0x40 MSTORE DUP1 ISZERO PUSH2 0x3C9 JUMPI DUP2 PUSH1 0x20 ADD PUSH1 0x20 DUP3 MUL DUP1 CALLDATASIZE DUP4 CALLDATACOPY DUP1 DUP3 ADD SWAP2 POP POP SWAP1 POP JUMPDEST POP SWAP1 POP PUSH1 0x0 JUMPDEST PUSH1 0x4 DUP1 SLOAD SWAP1 POP DUP2 LT ISZERO PUSH2 0x546 JUMPI PUSH1 0x1 PUSH1 0x0 DUP12 DUP2 MSTORE PUSH1 0x20 ADD SWAP1 DUP2 MSTORE PUSH1 0x20 ADD PUSH1 0x0 KECCAK256 PUSH1 0x1 ADD PUSH1 0x0 PUSH1 0x4 DUP4 DUP2 SLOAD DUP2 LT PUSH2 0x408 JUMPI PUSH2 0x407 PUSH2 0x187D JUMP JUMPDEST JUMPDEST SWAP1 PUSH1 0x0 MSTORE PUSH1 0x20 PUSH1 0x0 KECCAK256 SWAP1 PUSH1 0x8 SWAP2 DUP3 DUP3 DIV ADD SWAP2 SWAP1 MOD PUSH1 0x4 MUL SWAP1 SLOAD SWAP1 PUSH2 0x100 EXP SWAP1 DIV PUSH1 0xE0 SHL PUSH28 0xFFFFFFFFFFFFFFFFFFFFFFFFFFFFFFFFFFFFFFFFFFFFFFFFFFFFFFFF NOT AND PUSH28 0xFFFFFFFFFFFFFFFFFFFFFFFFFFFFFFFFFFFFFFFFFFFFFFFFFFFFFFFF NOT AND DUP2 MSTORE PUSH1 0x20 ADD SWAP1 DUP2 MSTORE PUSH1 0x20 ADD PUSH1 0x0 KECCAK256 PUSH1 0x0 SWAP1 SLOAD SWAP1 PUSH2 0x100 EXP SWAP1 DIV PUSH1 0xFF AND ISZERO PUSH2 0x533 JUMPI PUSH1 0x4 DUP2 DUP2 SLOAD DUP2 LT PUSH2 0x49E JUMPI PUSH2 0x49D PUSH2 0x187D JUMP JUMPDEST JUMPDEST SWAP1 PUSH1 0x0 MSTORE PUSH1 0x20 PUSH1 0x0 KECCAK256 SWAP1 PUSH1 0x8 SWAP2 DUP3 DUP3 DIV ADD SWAP2 SWAP1 MOD PUSH1 0x4 MUL SWAP1 SLOAD SWAP1 PUSH2 0x100 EXP SWAP1 DIV PUSH1 0xE0 SHL DUP3 DUP5 PUSH1 0xFF AND DUP2 MLOAD DUP2 LT PUSH2 0x4D7 JUMPI PUSH2 0x4D6 PUSH2 0x187D JUMP JUMPDEST JUMPDEST PUSH1 0x20 MUL PUSH1 0x20 ADD ADD SWAP1 PUSH28 0xFFFFFFFFFFFFFFFFFFFFFFFFFFFFFFFFFFFFFFFFFFFFFFFFFFFFFFFF NOT AND SWAP1 DUP2 PUSH28 0xFFFFFFFFFFFFFFFFFFFFFFFFFFFFFFFFFFFFFFFFFFFFFFFFFFFFFFFF NOT AND DUP2 MSTORE POP POP PUSH1 0x1 DUP4 PUSH2 0x530 SWAP2 SWAP1 PUSH2 0x16A4 JUMP JUMPDEST SWAP3 POP JUMPDEST DUP1 DUP1 PUSH2 0x53E SWAP1 PUSH2 0x17CC JUMP JUMPDEST SWAP2 POP POP PUSH2 0x3CF JUMP JUMPDEST POP PUSH1 0x0 DUP3 PUSH1 0xFF AND PUSH8 0xFFFFFFFFFFFFFFFF DUP2 GT ISZERO PUSH2 0x566 JUMPI PUSH2 0x565 PUSH2 0x18AC JUMP JUMPDEST JUMPDEST PUSH1 0x40 MLOAD SWAP1 DUP1 DUP3 MSTORE DUP1 PUSH1 0x20 MUL PUSH1 0x20 ADD DUP3 ADD PUSH1 0x40 MSTORE DUP1 ISZERO PUSH2 0x594 JUMPI DUP2 PUSH1 0x20 ADD PUSH1 0x20 DUP3 MUL DUP1 CALLDATASIZE DUP4 CALLDATACOPY DUP1 DUP3 ADD SWAP2 POP POP SWAP1 POP JUMPDEST POP SWAP1 POP PUSH1 0x0 JUMPDEST DUP4 PUSH1 0xFF AND DUP2 LT ISZERO PUSH2 0x632 JUMPI DUP3 DUP2 DUP2 MLOAD DUP2 LT PUSH2 0x5B8 JUMPI PUSH2 0x5B7 PUSH2 0x187D JUMP JUMPDEST JUMPDEST PUSH1 0x20 MUL PUSH1 0x20 ADD ADD MLOAD DUP3 DUP3 DUP2 MLOAD DUP2 LT PUSH2 0x5D3 JUMPI PUSH2 0x5D2 PUSH2 0x187D JUMP JUMPDEST JUMPDEST PUSH1 0x20 MUL PUSH1 0x20 ADD ADD SWAP1 PUSH28 0xFFFFFFFFFFFFFFFFFFFFFFFFFFFFFFFFFFFFFFFFFFFFFFFFFFFFFFFF NOT AND SWAP1 DUP2 PUSH28 0xFFFFFFFFFFFFFFFFFFFFFFFFFFFFFFFFFFFFFFFFFFFFFFFFFFFFFFFF NOT AND DUP2 MSTORE POP POP DUP1 DUP1 PUSH2 0x62A SWAP1 PUSH2 0x17CC JUMP JUMPDEST SWAP2 POP POP PUSH2 0x59A JUMP JUMPDEST POP DUP10 DUP5 PUSH1 0x5 ADD DUP6 PUSH1 0x2 ADD DUP4 DUP8 PUSH1 0x6 ADD PUSH1 0x0 SWAP1 SLOAD SWAP1 PUSH2 0x100 EXP SWAP1 DIV PUSH1 0xE0 SHL DUP4 DUP1 SLOAD DUP1 PUSH1 0x20 MUL PUSH1 0x20 ADD PUSH1 0x40 MLOAD SWAP1 DUP2 ADD PUSH1 0x40 MSTORE DUP1 SWAP3 SWAP2 SWAP1 DUP2 DUP2 MSTORE PUSH1 0x20 ADD DUP3 DUP1 SLOAD DUP1 ISZERO PUSH2 0x69A JUMPI PUSH1 0x20 MUL DUP3 ADD SWAP2 SWAP1 PUSH1 0x0 MSTORE PUSH1 0x20 PUSH1 0x0 KECCAK256 SWAP1 JUMPDEST DUP2 SLOAD DUP2 MSTORE PUSH1 0x20 ADD SWAP1 PUSH1 0x1 ADD SWAP1 DUP1 DUP4 GT PUSH2 0x686 JUMPI JUMPDEST POP POP POP POP POP SWAP4 POP DUP3 DUP1 SLOAD DUP1 PUSH1 0x20 MUL PUSH1 0x20 ADD PUSH1 0x40 MLOAD SWAP1 DUP2 ADD PUSH1 0x40 MSTORE DUP1 SWAP3 SWAP2 SWAP1 DUP2 DUP2 MSTORE PUSH1 0x20 ADD DUP3 DUP1 SLOAD DUP1 ISZERO PUSH2 0x6EC JUMPI PUSH1 0x20 MUL DUP3 ADD SWAP2 SWAP1 PUSH1 0x0 MSTORE PUSH1 0x20 PUSH1 0x0 KECCAK256 SWAP1 JUMPDEST DUP2 SLOAD DUP2 MSTORE PUSH1 0x20 ADD SWAP1 PUSH1 0x1 ADD SWAP1 DUP1 DUP4 GT PUSH2 0x6D8 JUMPI JUMPDEST POP POP POP POP POP SWAP3 POP SWAP9 POP SWAP9 POP SWAP9 POP SWAP9 POP SWAP9 POP POP POP POP POP SWAP2 SWAP4 SWAP6 SWAP1 SWAP3 SWAP5 POP JUMP JUMPDEST PUSH32 0x53544147455F54574F5F4E414D45000000000000000000000000000000000000 DUP2 JUMP JUMPDEST PUSH1 0x60 PUSH1 0x1 PUSH1 0x0 PUSH1 0x3 SLOAD DUP2 MSTORE PUSH1 0x20 ADD SWAP1 DUP2 MSTORE PUSH1 0x20 ADD PUSH1 0x0 KECCAK256 PUSH1 0x5 ADD DUP1 SLOAD DUP1 PUSH1 0x20 MUL PUSH1 0x20 ADD PUSH1 0x40 MLOAD SWAP1 DUP2 ADD PUSH1 0x40 MSTORE DUP1 SWAP3 SWAP2 SWAP1 DUP2 DUP2 MSTORE PUSH1 0x20 ADD DUP3 DUP1 SLOAD DUP1 ISZERO PUSH2 0x792 JUMPI PUSH1 0x20 MUL DUP3 ADD SWAP2 SWAP1 PUSH1 0x0 MSTORE PUSH1 0x20 PUSH1 0x0 KECCAK256 SWAP1 JUMPDEST DUP2 SLOAD DUP2 MSTORE PUSH1 0x20 ADD SWAP1 PUSH1 0x1 ADD SWAP1 DUP1 DUP4 GT PUSH2 0x77E JUMPI JUMPDEST POP POP POP POP POP SWAP1 POP SWAP1 JUMP JUMPDEST PUSH1 0x6 DUP2 DUP2 SLOAD DUP2 LT PUSH2 0x7AC JUMPI PUSH1 0x0 DUP1 REVERT JUMPDEST SWAP1 PUSH1 0x0 MSTORE PUSH1 0x20 PUSH1 0x0 KECCAK256 ADD PUSH1 0x0 SWAP2 POP SWAP1 POP SLOAD DUP2 JUMP JUMPDEST DUP3 PUSH1 0x7 SWAP1 DUP1 MLOAD SWAP1 PUSH1 0x20 ADD SWAP1 PUSH2 0x7D6 SWAP3 SWAP2 SWAP1 PUSH2 0xF63 JUMP JUMPDEST POP DUP2 PUSH1 0x8 PUSH1 0x0 PUSH2 0x100 EXP DUP2 SLOAD DUP2 PUSH20 0xFFFFFFFFFFFFFFFFFFFFFFFFFFFFFFFFFFFFFFFF MUL NOT AND SWAP1 DUP4 PUSH20 0xFFFFFFFFFFFFFFFFFFFFFFFFFFFFFFFFFFFFFFFF AND MUL OR SWAP1 SSTORE POP DUP1 PUSH1 0x9 DUP2 SWAP1 SSTORE POP POP POP POP JUMP JUMPDEST PUSH1 0x0 PUSH1 0x3 SLOAD SWAP1 POP SWAP1 JUMP JUMPDEST PUSH1 0x0 DUP1 DUP1 SLOAD SWAP1 POP SWAP1 POP SWAP1 JUMP JUMPDEST PUSH1 0x0 PUSH1 0x2 DUP1 SLOAD SWAP1 POP GT PUSH2 0x882 JUMPI PUSH1 0x40 MLOAD PUSH32 0x8C379A000000000000000000000000000000000000000000000000000000000 DUP2 MSTORE PUSH1 0x4 ADD PUSH2 0x879 SWAP1 PUSH2 0x1550 JUMP JUMPDEST PUSH1 0x40 MLOAD DUP1 SWAP2 SUB SWAP1 REVERT JUMPDEST DUP1 PUSH2 0x894 PUSH2 0x88E PUSH2 0x824 JUMP JUMPDEST DUP3 PUSH2 0xC79 JUMP JUMPDEST PUSH1 0x0 PUSH1 0x3 SLOAD SWAP1 POP DUP3 PUSH1 0x3 DUP2 SWAP1 SSTORE POP PUSH1 0x0 PUSH1 0x1 PUSH1 0x0 DUP6 DUP2 MSTORE PUSH1 0x20 ADD SWAP1 DUP2 MSTORE PUSH1 0x20 ADD PUSH1 0x0 KECCAK256 PUSH1 0x4 ADD SWAP1 POP PUSH1 0x0 JUMPDEST DUP2 DUP1 SLOAD SWAP1 POP DUP2 LT ISZERO PUSH2 0x92F JUMPI PUSH2 0x91C DUP4 DUP7 DUP5 DUP5 DUP2 SLOAD DUP2 LT PUSH2 0x8E3 JUMPI PUSH2 0x8E2 PUSH2 0x187D JUMP JUMPDEST JUMPDEST SWAP1 PUSH1 0x0 MSTORE PUSH1 0x20 PUSH1 0x0 KECCAK256 SWAP1 PUSH1 0x4 SWAP2 DUP3 DUP3 DIV ADD SWAP2 SWAP1 MOD PUSH1 0x8 MUL SWAP1 SLOAD SWAP1 PUSH2 0x100 EXP SWAP1 DIV DUP1 ISZERO PUSH2 0xFE9 MUL OR PUSH8 0xFFFFFFFFFFFFFFFF AND PUSH4 0xFFFFFFFF AND JUMP JUMPDEST DUP1 DUP1 PUSH2 0x927 SWAP1 PUSH2 0x17CC JUMP JUMPDEST SWAP2 POP POP PUSH2 0x8BF JUMP JUMPDEST POP PUSH1 0x0 PUSH1 0x40 MLOAD DUP1 PUSH1 0x80 ADD PUSH1 0x40 MSTORE DUP1 DUP5 DUP2 MSTORE PUSH1 0x20 ADD DUP7 DUP2 MSTORE PUSH1 0x20 ADD CALLER PUSH20 0xFFFFFFFFFFFFFFFFFFFFFFFFFFFFFFFFFFFFFFFF AND DUP2 MSTORE PUSH1 0x20 ADD TIMESTAMP DUP2 MSTORE POP SWAP1 DUP1 PUSH1 0x1 DUP2 SLOAD ADD DUP1 DUP3 SSTORE DUP1 SWAP2 POP POP PUSH1 0x1 SWAP1 SUB SWAP1 PUSH1 0x0 MSTORE PUSH1 0x20 PUSH1 0x0 KECCAK256 SWAP1 PUSH1 0x4 MUL ADD PUSH1 0x0 SWAP1 SWAP2 SWAP1 SWAP2 SWAP1 SWAP2 POP PUSH1 0x0 DUP3 ADD MLOAD DUP2 PUSH1 0x0 ADD SSTORE PUSH1 0x20 DUP3 ADD MLOAD DUP2 PUSH1 0x1 ADD SSTORE PUSH1 0x40 DUP3 ADD MLOAD DUP2 PUSH1 0x2 ADD PUSH1 0x0 PUSH2 0x100 EXP DUP2 SLOAD DUP2 PUSH20 0xFFFFFFFFFFFFFFFFFFFFFFFFFFFFFFFFFFFFFFFF MUL NOT AND SWAP1 DUP4 PUSH20 0xFFFFFFFFFFFFFFFFFFFFFFFFFFFFFFFFFFFFFFFF AND MUL OR SWAP1 SSTORE POP PUSH1 0x60 DUP3 ADD MLOAD DUP2 PUSH1 0x3 ADD SSTORE POP POP PUSH32 0x483A31C379A4B707332853662276A3424EC44F0CCBFC20D78FD9D143694F7669 CALLER DUP4 PUSH1 0x3 SLOAD PUSH1 0x40 MLOAD PUSH2 0xA2E SWAP4 SWAP3 SWAP2 SWAP1 PUSH2 0x13EF JUMP JUMPDEST PUSH1 0x40 MLOAD DUP1 SWAP2 SUB SWAP1 LOG1 POP POP POP POP JUMP JUMPDEST PUSH32 0x53544147455F464956455F4E414D450000000000000000000000000000000000 DUP2 JUMP JUMPDEST PUSH1 0x60 PUSH1 0x2 DUP1 SLOAD DUP1 PUSH1 0x20 MUL PUSH1 0x20 ADD PUSH1 0x40 MLOAD SWAP1 DUP2 ADD PUSH1 0x40 MSTORE DUP1 SWAP3 SWAP2 SWAP1 DUP2 DUP2 MSTORE PUSH1 0x20 ADD DUP3 DUP1 SLOAD DUP1 ISZERO PUSH2 0xAAE JUMPI PUSH1 0x20 MUL DUP3 ADD SWAP2 SWAP1 PUSH1 0x0 MSTORE PUSH1 0x20 PUSH1 0x0 KECCAK256 SWAP1 JUMPDEST DUP2 SLOAD DUP2 MSTORE PUSH1 0x20 ADD SWAP1 PUSH1 0x1 ADD SWAP1 DUP1 DUP4 GT PUSH2 0xA9A JUMPI JUMPDEST POP POP POP POP POP SWAP1 POP SWAP1 JUMP JUMPDEST PUSH1 0x0 DUP2 DUP2 SLOAD DUP2 LT PUSH2 0xAC8 JUMPI PUSH1 0x0 DUP1 REVERT JUMPDEST SWAP1 PUSH1 0x0 MSTORE PUSH1 0x20 PUSH1 0x0 KECCAK256 SWAP1 PUSH1 0x4 MUL ADD PUSH1 0x0 SWAP2 POP SWAP1 POP DUP1 PUSH1 0x0 ADD SLOAD SWAP1 DUP1 PUSH1 0x1 ADD SLOAD SWAP1 DUP1 PUSH1 0x2 ADD PUSH1 0x0 SWAP1 SLOAD SWAP1 PUSH2 0x100 EXP SWAP1 DIV PUSH20 0xFFFFFFFFFFFFFFFFFFFFFFFFFFFFFFFFFFFFFFFF AND SWAP1 DUP1 PUSH1 0x3 ADD SLOAD SWAP1 POP DUP5 JUMP JUMPDEST PUSH32 0x53544147455F4F4E455F4E414D45000000000000000000000000000000000000 DUP2 JUMP JUMPDEST PUSH32 0x53544147455F54485245455F4E414D4500000000000000000000000000000000 DUP2 JUMP JUMPDEST PUSH1 0x0 DUP1 PUSH1 0x0 DUP1 PUSH1 0x0 DUP6 DUP2 SLOAD DUP2 LT PUSH2 0xB7A JUMPI PUSH2 0xB79 PUSH2 0x187D JUMP JUMPDEST JUMPDEST SWAP1 PUSH1 0x0 MSTORE PUSH1 0x20 PUSH1 0x0 KECCAK256 SWAP1 PUSH1 0x4 MUL ADD PUSH1 0x0 ADD SLOAD PUSH1 0x0 DUP7 DUP2 SLOAD DUP2 LT PUSH2 0xBA0 JUMPI PUSH2 0xB9F PUSH2 0x187D JUMP JUMPDEST JUMPDEST SWAP1 PUSH1 0x0 MSTORE PUSH1 0x20 PUSH1 0x0 KECCAK256 SWAP1 PUSH1 0x4 MUL ADD PUSH1 0x1 ADD SLOAD PUSH1 0x0 DUP8 DUP2 SLOAD DUP2 LT PUSH2 0xBC6 JUMPI PUSH2 0xBC5 PUSH2 0x187D JUMP JUMPDEST JUMPDEST SWAP1 PUSH1 0x0 MSTORE PUSH1 0x20 PUSH1 0x0 KECCAK256 SWAP1 PUSH1 0x4 MUL ADD PUSH1 0x2 ADD PUSH1 0x0 SWAP1 SLOAD SWAP1 PUSH2 0x100 EXP SWAP1 DIV PUSH20 0xFFFFFFFFFFFFFFFFFFFFFFFFFFFFFFFFFFFFFFFF AND PUSH1 0x0 DUP9 DUP2 SLOAD DUP2 LT PUSH2 0xC0C JUMPI PUSH2 0xC0B PUSH2 0x187D JUMP JUMPDEST JUMPDEST SWAP1 PUSH1 0x0 MSTORE PUSH1 0x20 PUSH1 0x0 KECCAK256 SWAP1 PUSH1 0x4 MUL ADD PUSH1 0x3 ADD SLOAD SWAP4 POP SWAP4 POP SWAP4 POP SWAP4 POP SWAP2 SWAP4 POP SWAP2 SWAP4 JUMP JUMPDEST PUSH32 0x524F4C455F41444D494E00000000000000000000000000000000000000000000 DUP2 JUMP JUMPDEST PUSH32 0x53544147455F464F55525F4E414D450000000000000000000000000000000000 DUP2 JUMP JUMPDEST POP POP JUMP JUMPDEST PUSH1 0x1 PUSH1 0x0 DUP4 DUP2 MSTORE PUSH1 0x20 ADD SWAP1 DUP2 MSTORE PUSH1 0x20 ADD PUSH1 0x0 KECCAK256 PUSH1 0x0 ADD PUSH1 0x0 SWAP1 SLOAD SWAP1 PUSH2 0x100 EXP SWAP1 DIV PUSH1 0xFF AND PUSH2 0xCDC JUMPI PUSH1 0x40 MLOAD PUSH32 0x8C379A000000000000000000000000000000000000000000000000000000000 DUP2 MSTORE PUSH1 0x4 ADD PUSH2 0xCD3 SWAP1 PUSH2 0x1530 JUMP JUMPDEST PUSH1 0x40 MLOAD DUP1 SWAP2 SUB SWAP1 REVERT JUMPDEST PUSH1 0x1 PUSH1 0x0 DUP3 DUP2 MSTORE PUSH1 0x20 ADD SWAP1 DUP2 MSTORE PUSH1 0x20 ADD PUSH1 0x0 KECCAK256 PUSH1 0x0 ADD PUSH1 0x0 SWAP1 SLOAD SWAP1 PUSH2 0x100 EXP SWAP1 DIV PUSH1 0xFF AND PUSH2 0xD3F JUMPI PUSH1 0x40 MLOAD PUSH32 0x8C379A000000000000000000000000000000000000000000000000000000000 DUP2 MSTORE PUSH1 0x4 ADD PUSH2 0xD36 SWAP1 PUSH2 0x1570 JUMP JUMPDEST PUSH1 0x40 MLOAD DUP1 SWAP2 SUB SWAP1 REVERT JUMPDEST PUSH2 0xD49 DUP3 DUP3 PUSH2 0xDDE JUMP JUMPDEST PUSH2 0xD88 JUMPI PUSH1 0x40 MLOAD PUSH32 0x8C379A000000000000000000000000000000000000000000000000000000000 DUP2 MSTORE PUSH1 0x4 ADD PUSH2 0xD7F SWAP1 PUSH2 0x1590 JUMP JUMPDEST PUSH1 0x40 MLOAD DUP1 SWAP2 SUB SWAP1 REVERT JUMPDEST PUSH2 0xD91 DUP2 PUSH2 0xE9D JUMP JUMPDEST PUSH2 0xDD0 JUMPI PUSH1 0x40 MLOAD PUSH32 0x8C379A000000000000000000000000000000000000000000000000000000000 DUP2 MSTORE PUSH1 0x4 ADD PUSH2 0xDC7 SWAP1 PUSH2 0x1510 JUMP JUMPDEST PUSH1 0x40 MLOAD DUP1 SWAP2 SUB SWAP1 REVERT JUMPDEST PUSH2 0xDDA DUP3 DUP3 PUSH2 0xED0 JUMP JUMPDEST POP POP JUMP JUMPDEST PUSH1 0x0 DUP1 PUSH1 0x1 PUSH1 0x0 DUP6 DUP2 MSTORE PUSH1 0x20 ADD SWAP1 DUP2 MSTORE PUSH1 0x20 ADD PUSH1 0x0 KECCAK256 PUSH1 0x5 ADD SWAP1 POP PUSH1 0x0 JUMPDEST DUP2 DUP1 SLOAD SWAP1 POP DUP2 LT ISZERO PUSH2 0xE95 JUMPI DUP4 PUSH1 0x40 MLOAD PUSH1 0x20 ADD PUSH2 0xE19 SWAP2 SWAP1 PUSH2 0x13D4 JUMP JUMPDEST PUSH1 0x40 MLOAD PUSH1 0x20 DUP2 DUP4 SUB SUB DUP2 MSTORE SWAP1 PUSH1 0x40 MSTORE DUP1 MLOAD SWAP1 PUSH1 0x20 ADD KECCAK256 DUP3 DUP3 DUP2 SLOAD DUP2 LT PUSH2 0xE42 JUMPI PUSH2 0xE41 PUSH2 0x187D JUMP JUMPDEST JUMPDEST SWAP1 PUSH1 0x0 MSTORE PUSH1 0x20 PUSH1 0x0 KECCAK256 ADD SLOAD PUSH1 0x40 MLOAD PUSH1 0x20 ADD PUSH2 0xE5D SWAP2 SWAP1 PUSH2 0x13D4 JUMP JUMPDEST PUSH1 0x40 MLOAD PUSH1 0x20 DUP2 DUP4 SUB SUB DUP2 MSTORE SWAP1 PUSH1 0x40 MSTORE DUP1 MLOAD SWAP1 PUSH1 0x20 ADD KECCAK256 EQ ISZERO PUSH2 0xE82 JUMPI PUSH1 0x1 SWAP3 POP PUSH2 0xE95 JUMP JUMPDEST DUP1 DUP1 PUSH2 0xE8D SWAP1 PUSH2 0x17CC JUMP JUMPDEST SWAP2 POP POP PUSH2 0xDFC JUMP JUMPDEST POP POP SWAP3 SWAP2 POP POP JUMP JUMPDEST PUSH1 0x0 DUP1 PUSH1 0x1 PUSH1 0x0 DUP5 DUP2 MSTORE PUSH1 0x20 ADD SWAP1 DUP2 MSTORE PUSH1 0x20 ADD PUSH1 0x0 KECCAK256 PUSH1 0x2 ADD SWAP1 POP PUSH1 0x0 DUP2 DUP1 SLOAD SWAP1 POP EQ ISZERO PUSH2 0xECA JUMPI PUSH1 0x1 SWAP2 POP JUMPDEST POP SWAP2 SWAP1 POP JUMP JUMPDEST PUSH1 0x0 PUSH1 0x1 PUSH1 0x0 DUP4 DUP2 MSTORE PUSH1 0x20 ADD SWAP1 DUP2 MSTORE PUSH1 0x20 ADD PUSH1 0x0 KECCAK256 PUSH1 0x3 ADD SWAP1 POP PUSH1 0x0 JUMPDEST DUP2 DUP1 SLOAD SWAP1 POP DUP2 LT ISZERO PUSH2 0xF5D JUMPI PUSH2 0xF4A DUP5 DUP5 DUP5 DUP5 DUP2 SLOAD DUP2 LT PUSH2 0xF11 JUMPI PUSH2 0xF10 PUSH2 0x187D JUMP JUMPDEST JUMPDEST SWAP1 PUSH1 0x0 MSTORE PUSH1 0x20 PUSH1 0x0 KECCAK256 SWAP1 PUSH1 0x4 SWAP2 DUP3 DUP3 DIV ADD SWAP2 SWAP1 MOD PUSH1 0x8 MUL SWAP1 SLOAD SWAP1 PUSH2 0x100 EXP SWAP1 DIV DUP1 ISZERO PUSH2 0xFE9 MUL OR PUSH8 0xFFFFFFFFFFFFFFFF AND PUSH4 0xFFFFFFFF AND JUMP JUMPDEST DUP1 DUP1 PUSH2 0xF55 SWAP1 PUSH2 0x17CC JUMP JUMPDEST SWAP2 POP POP PUSH2 0xEED JUMP JUMPDEST POP POP POP POP JUMP JUMPDEST DUP3 DUP1 SLOAD PUSH2 0xF6F SWAP1 PUSH2 0x1769 JUMP JUMPDEST SWAP1 PUSH1 0x0 MSTORE PUSH1 0x20 PUSH1 0x0 KECCAK256 SWAP1 PUSH1 0x1F ADD PUSH1 0x20 SWAP1 DIV DUP2 ADD SWAP3 DUP3 PUSH2 0xF91 JUMPI PUSH1 0x0 DUP6 SSTORE PUSH2 0xFD8 JUMP JUMPDEST DUP3 PUSH1 0x1F LT PUSH2 0xFAA JUMPI DUP1 MLOAD PUSH1 0xFF NOT AND DUP4 DUP1 ADD OR DUP6 SSTORE PUSH2 0xFD8 JUMP JUMPDEST DUP3 DUP1 ADD PUSH1 0x1 ADD DUP6 SSTORE DUP3 ISZERO PUSH2 0xFD8 JUMPI SWAP2 DUP3 ADD JUMPDEST DUP3 DUP2 GT ISZERO PUSH2 0xFD7 JUMPI DUP3 MLOAD DUP3 SSTORE SWAP2 PUSH1 0x20 ADD SWAP2 SWAP1 PUSH1 0x1 ADD SWAP1 PUSH2 0xFBC JUMP JUMPDEST JUMPDEST POP SWAP1 POP PUSH2 0xFE5 SWAP2 SWAP1 PUSH2 0xFF3 JUMP JUMPDEST POP SWAP1 JUMP JUMPDEST PUSH2 0xFF1 PUSH2 0x18DB JUMP JUMPDEST JUMP JUMPDEST JUMPDEST DUP1 DUP3 GT ISZERO PUSH2 0x100C JUMPI PUSH1 0x0 DUP2 PUSH1 0x0 SWAP1 SSTORE POP PUSH1 0x1 ADD PUSH2 0xFF4 JUMP JUMPDEST POP SWAP1 JUMP JUMPDEST PUSH1 0x0 PUSH2 0x1023 PUSH2 0x101E DUP5 PUSH2 0x15F0 JUMP JUMPDEST PUSH2 0x15CB JUMP JUMPDEST SWAP1 POP DUP3 DUP2 MSTORE PUSH1 0x20 DUP2 ADD DUP5 DUP5 DUP5 ADD GT ISZERO PUSH2 0x103F JUMPI PUSH2 0x103E PUSH2 0x190F JUMP JUMPDEST JUMPDEST PUSH2 0x104A DUP5 DUP3 DUP6 PUSH2 0x175A JUMP JUMPDEST POP SWAP4 SWAP3 POP POP POP JUMP JUMPDEST PUSH1 0x0 DUP2 CALLDATALOAD SWAP1 POP PUSH2 0x1061 DUP2 PUSH2 0x1B2C JUMP JUMPDEST SWAP3 SWAP2 POP POP JUMP JUMPDEST PUSH1 0x0 DUP2 CALLDATALOAD SWAP1 POP PUSH2 0x1076 DUP2 PUSH2 0x1B43 JUMP JUMPDEST SWAP3 SWAP2 POP POP JUMP JUMPDEST PUSH1 0x0 DUP3 PUSH1 0x1F DUP4 ADD SLT PUSH2 0x1091 JUMPI PUSH2 0x1090 PUSH2 0x190A JUMP JUMPDEST JUMPDEST DUP2 CALLDATALOAD PUSH2 0x10A1 DUP5 DUP3 PUSH1 0x20 DUP7 ADD PUSH2 0x1010 JUMP JUMPDEST SWAP2 POP POP SWAP3 SWAP2 POP POP JUMP JUMPDEST PUSH1 0x0 DUP2 CALLDATALOAD SWAP1 POP PUSH2 0x10B9 DUP2 PUSH2 0x1B5A JUMP JUMPDEST SWAP3 SWAP2 POP POP JUMP JUMPDEST PUSH1 0x0 PUSH1 0x20 DUP3 DUP5 SUB SLT ISZERO PUSH2 0x10D5 JUMPI PUSH2 0x10D4 PUSH2 0x1919 JUMP JUMPDEST JUMPDEST PUSH1 0x0 PUSH2 0x10E3 DUP5 DUP3 DUP6 ADD PUSH2 0x1067 JUMP JUMPDEST SWAP2 POP POP SWAP3 SWAP2 POP POP JUMP JUMPDEST PUSH1 0x0 DUP1 PUSH1 0x40 DUP4 DUP6 SUB SLT ISZERO PUSH2 0x1103 JUMPI PUSH2 0x1102 PUSH2 0x1919 JUMP JUMPDEST JUMPDEST PUSH1 0x0 PUSH2 0x1111 DUP6 DUP3 DUP7 ADD PUSH2 0x1067 JUMP JUMPDEST SWAP3 POP POP PUSH1 0x20 PUSH2 0x1122 DUP6 DUP3 DUP7 ADD PUSH2 0x1067 JUMP JUMPDEST SWAP2 POP POP SWAP3 POP SWAP3 SWAP1 POP JUMP JUMPDEST PUSH1 0x0 DUP1 PUSH1 0x0 PUSH1 0x60 DUP5 DUP7 SUB SLT ISZERO PUSH2 0x1145 JUMPI PUSH2 0x1144 PUSH2 0x1919 JUMP JUMPDEST JUMPDEST PUSH1 0x0 DUP5 ADD CALLDATALOAD PUSH8 0xFFFFFFFFFFFFFFFF DUP2 GT ISZERO PUSH2 0x1163 JUMPI PUSH2 0x1162 PUSH2 0x1914 JUMP JUMPDEST JUMPDEST PUSH2 0x116F DUP7 DUP3 DUP8 ADD PUSH2 0x107C JUMP JUMPDEST SWAP4 POP POP PUSH1 0x20 PUSH2 0x1180 DUP7 DUP3 DUP8 ADD PUSH2 0x1052 JUMP JUMPDEST SWAP3 POP POP PUSH1 0x40 PUSH2 0x1191 DUP7 DUP3 DUP8 ADD PUSH2 0x10AA JUMP JUMPDEST SWAP2 POP POP SWAP3 POP SWAP3 POP SWAP3 JUMP JUMPDEST PUSH1 0x0 PUSH1 0x20 DUP3 DUP5 SUB SLT ISZERO PUSH2 0x11B1 JUMPI PUSH2 0x11B0 PUSH2 0x1919 JUMP JUMPDEST JUMPDEST PUSH1 0x0 PUSH2 0x11BF DUP5 DUP3 DUP6 ADD PUSH2 0x10AA JUMP JUMPDEST SWAP2 POP POP SWAP3 SWAP2 POP POP JUMP JUMPDEST PUSH1 0x0 PUSH2 0x11D4 DUP4 DUP4 PUSH2 0x12C3 JUMP JUMPDEST PUSH1 0x20 DUP4 ADD SWAP1 POP SWAP3 SWAP2 POP POP JUMP JUMPDEST PUSH1 0x0 PUSH2 0x11EC DUP4 DUP4 PUSH2 0x12F8 JUMP JUMPDEST PUSH1 0x20 DUP4 ADD SWAP1 POP SWAP3 SWAP2 POP POP JUMP JUMPDEST PUSH2 0x1201 DUP2 PUSH2 0x16DB JUMP JUMPDEST DUP3 MSTORE POP POP JUMP JUMPDEST PUSH1 0x0 PUSH2 0x1212 DUP3 PUSH2 0x1641 JUMP JUMPDEST PUSH2 0x121C DUP2 DUP6 PUSH2 0x1671 JUMP JUMPDEST SWAP4 POP PUSH2 0x1227 DUP4 PUSH2 0x1621 JUMP JUMPDEST DUP1 PUSH1 0x0 JUMPDEST DUP4 DUP2 LT ISZERO PUSH2 0x1258 JUMPI DUP2 MLOAD PUSH2 0x123F DUP9 DUP3 PUSH2 0x11C8 JUMP JUMPDEST SWAP8 POP PUSH2 0x124A DUP4 PUSH2 0x1657 JUMP JUMPDEST SWAP3 POP POP PUSH1 0x1 DUP2 ADD SWAP1 POP PUSH2 0x122B JUMP JUMPDEST POP DUP6 SWAP4 POP POP POP POP SWAP3 SWAP2 POP POP JUMP JUMPDEST PUSH1 0x0 PUSH2 0x1270 DUP3 PUSH2 0x164C JUMP JUMPDEST PUSH2 0x127A DUP2 DUP6 PUSH2 0x1682 JUMP JUMPDEST SWAP4 POP PUSH2 0x1285 DUP4 PUSH2 0x1631 JUMP JUMPDEST DUP1 PUSH1 0x0 JUMPDEST DUP4 DUP2 LT ISZERO PUSH2 0x12B6 JUMPI DUP2 MLOAD PUSH2 0x129D DUP9 DUP3 PUSH2 0x11E0 JUMP JUMPDEST SWAP8 POP PUSH2 0x12A8 DUP4 PUSH2 0x1664 JUMP JUMPDEST SWAP3 POP POP PUSH1 0x1 DUP2 ADD SWAP1 POP PUSH2 0x1289 JUMP JUMPDEST POP DUP6 SWAP4 POP POP POP POP SWAP3 SWAP2 POP POP JUMP JUMPDEST PUSH2 0x12CC DUP2 PUSH2 0x16ED JUMP JUMPDEST DUP3 MSTORE POP POP JUMP JUMPDEST PUSH2 0x12DB DUP2 PUSH2 0x16ED JUMP JUMPDEST DUP3 MSTORE POP POP JUMP JUMPDEST PUSH2 0x12F2 PUSH2 0x12ED DUP3 PUSH2 0x16ED JUMP JUMPDEST PUSH2 0x1815 JUMP JUMPDEST DUP3 MSTORE POP POP JUMP JUMPDEST PUSH2 0x1301 DUP2 PUSH2 0x16F7 JUMP JUMPDEST DUP3 MSTORE POP POP JUMP JUMPDEST PUSH2 0x1310 DUP2 PUSH2 0x16F7 JUMP JUMPDEST DUP3 MSTORE POP POP JUMP JUMPDEST PUSH1 0x0 PUSH2 0x1323 PUSH1 0x69 DUP4 PUSH2 0x1693 JUMP JUMPDEST SWAP2 POP PUSH2 0x132E DUP3 PUSH2 0x192F JUMP JUMPDEST PUSH1 0x80 DUP3 ADD SWAP1 POP SWAP2 SWAP1 POP JUMP JUMPDEST PUSH1 0x0 PUSH2 0x1346 PUSH1 0x35 DUP4 PUSH2 0x1693 JUMP JUMPDEST SWAP2 POP PUSH2 0x1351 DUP3 PUSH2 0x19CA JUMP JUMPDEST PUSH1 0x40 DUP3 ADD SWAP1 POP SWAP2 SWAP1 POP JUMP JUMPDEST PUSH1 0x0 PUSH2 0x1369 PUSH1 0x28 DUP4 PUSH2 0x1693 JUMP JUMPDEST SWAP2 POP PUSH2 0x1374 DUP3 PUSH2 0x1A19 JUMP JUMPDEST PUSH1 0x40 DUP3 ADD SWAP1 POP SWAP2 SWAP1 POP JUMP JUMPDEST PUSH1 0x0 PUSH2 0x138C PUSH1 0x33 DUP4 PUSH2 0x1693 JUMP JUMPDEST SWAP2 POP PUSH2 0x1397 DUP3 PUSH2 0x1A68 JUMP JUMPDEST PUSH1 0x40 DUP3 ADD SWAP1 POP SWAP2 SWAP1 POP JUMP JUMPDEST PUSH1 0x0 PUSH2 0x13AF PUSH1 0x49 DUP4 PUSH2 0x1693 JUMP JUMPDEST SWAP2 POP PUSH2 0x13BA DUP3 PUSH2 0x1AB7 JUMP JUMPDEST PUSH1 0x60 DUP3 ADD SWAP1 POP SWAP2 SWAP1 POP JUMP JUMPDEST PUSH2 0x13CE DUP2 PUSH2 0x1743 JUMP JUMPDEST DUP3 MSTORE POP POP JUMP JUMPDEST PUSH1 0x0 PUSH2 0x13E0 DUP3 DUP5 PUSH2 0x12E1 JUMP JUMPDEST PUSH1 0x20 DUP3 ADD SWAP2 POP DUP2 SWAP1 POP SWAP3 SWAP2 POP POP JUMP JUMPDEST PUSH1 0x0 PUSH1 0x60 DUP3 ADD SWAP1 POP PUSH2 0x1404 PUSH1 0x0 DUP4 ADD DUP7 PUSH2 0x11F8 JUMP JUMPDEST PUSH2 0x1411 PUSH1 0x20 DUP4 ADD DUP6 PUSH2 0x12D2 JUMP JUMPDEST PUSH2 0x141E PUSH1 0x40 DUP4 ADD DUP5 PUSH2 0x12D2 JUMP JUMPDEST SWAP5 SWAP4 POP POP POP POP JUMP JUMPDEST PUSH1 0x0 PUSH1 0x20 DUP3 ADD SWAP1 POP DUP2 DUP2 SUB PUSH1 0x0 DUP4 ADD MSTORE PUSH2 0x1440 DUP2 DUP5 PUSH2 0x1207 JUMP JUMPDEST SWAP1 POP SWAP3 SWAP2 POP POP JUMP JUMPDEST PUSH1 0x0 PUSH1 0x20 DUP3 ADD SWAP1 POP PUSH2 0x145D PUSH1 0x0 DUP4 ADD DUP5 PUSH2 0x12D2 JUMP JUMPDEST SWAP3 SWAP2 POP POP JUMP JUMPDEST PUSH1 0x0 PUSH1 0xA0 DUP3 ADD SWAP1 POP PUSH2 0x1478 PUSH1 0x0 DUP4 ADD DUP9 PUSH2 0x12D2 JUMP JUMPDEST DUP2 DUP2 SUB PUSH1 0x20 DUP4 ADD MSTORE PUSH2 0x148A DUP2 DUP8 PUSH2 0x1207 JUMP JUMPDEST SWAP1 POP DUP2 DUP2 SUB PUSH1 0x40 DUP4 ADD MSTORE PUSH2 0x149E DUP2 DUP7 PUSH2 0x1207 JUMP JUMPDEST SWAP1 POP DUP2 DUP2 SUB PUSH1 0x60 DUP4 ADD MSTORE PUSH2 0x14B2 DUP2 DUP6 PUSH2 0x1265 JUMP JUMPDEST SWAP1 POP PUSH2 0x14C1 PUSH1 0x80 DUP4 ADD DUP5 PUSH2 0x1307 JUMP JUMPDEST SWAP7 SWAP6 POP POP POP POP POP POP JUMP JUMPDEST PUSH1 0x0 PUSH1 0x80 DUP3 ADD SWAP1 POP PUSH2 0x14E0 PUSH1 0x0 DUP4 ADD DUP8 PUSH2 0x12D2 JUMP JUMPDEST PUSH2 0x14ED PUSH1 0x20 DUP4 ADD DUP7 PUSH2 0x12D2 JUMP JUMPDEST PUSH2 0x14FA PUSH1 0x40 DUP4 ADD DUP6 PUSH2 0x11F8 JUMP JUMPDEST PUSH2 0x1507 PUSH1 0x60 DUP4 ADD DUP5 PUSH2 0x13C5 JUMP JUMPDEST SWAP6 SWAP5 POP POP POP POP POP JUMP JUMPDEST PUSH1 0x0 PUSH1 0x20 DUP3 ADD SWAP1 POP DUP2 DUP2 SUB PUSH1 0x0 DUP4 ADD MSTORE PUSH2 0x1529 DUP2 PUSH2 0x1316 JUMP JUMPDEST SWAP1 POP SWAP2 SWAP1 POP JUMP JUMPDEST PUSH1 0x0 PUSH1 0x20 DUP3 ADD SWAP1 POP DUP2 DUP2 SUB PUSH1 0x0 DUP4 ADD MSTORE PUSH2 0x1549 DUP2 PUSH2 0x1339 JUMP JUMPDEST SWAP1 POP SWAP2 SWAP1 POP JUMP JUMPDEST PUSH1 0x0 PUSH1 0x20 DUP3 ADD SWAP1 POP DUP2 DUP2 SUB PUSH1 0x0 DUP4 ADD MSTORE PUSH2 0x1569 DUP2 PUSH2 0x135C JUMP JUMPDEST SWAP1 POP SWAP2 SWAP1 POP JUMP JUMPDEST PUSH1 0x0 PUSH1 0x20 DUP3 ADD SWAP1 POP DUP2 DUP2 SUB PUSH1 0x0 DUP4 ADD MSTORE PUSH2 0x1589 DUP2 PUSH2 0x137F JUMP JUMPDEST SWAP1 POP SWAP2 SWAP1 POP JUMP JUMPDEST PUSH1 0x0 PUSH1 0x20 DUP3 ADD SWAP1 POP DUP2 DUP2 SUB PUSH1 0x0 DUP4 ADD MSTORE PUSH2 0x15A9 DUP2 PUSH2 0x13A2 JUMP JUMPDEST SWAP1 POP SWAP2 SWAP1 POP JUMP JUMPDEST PUSH1 0x0 PUSH1 0x20 DUP3 ADD SWAP1 POP PUSH2 0x15C5 PUSH1 0x0 DUP4 ADD DUP5 PUSH2 0x13C5 JUMP JUMPDEST SWAP3 SWAP2 POP POP JUMP JUMPDEST PUSH1 0x0 PUSH2 0x15D5 PUSH2 0x15E6 JUMP JUMPDEST SWAP1 POP PUSH2 0x15E1 DUP3 DUP3 PUSH2 0x179B JUMP JUMPDEST SWAP2 SWAP1 POP JUMP JUMPDEST PUSH1 0x0 PUSH1 0x40 MLOAD SWAP1 POP SWAP1 JUMP JUMPDEST PUSH1 0x0 PUSH8 0xFFFFFFFFFFFFFFFF DUP3 GT ISZERO PUSH2 0x160B JUMPI PUSH2 0x160A PUSH2 0x18AC JUMP JUMPDEST JUMPDEST PUSH2 0x1614 DUP3 PUSH2 0x191E JUMP JUMPDEST SWAP1 POP PUSH1 0x20 DUP2 ADD SWAP1 POP SWAP2 SWAP1 POP JUMP JUMPDEST PUSH1 0x0 DUP2 SWAP1 POP PUSH1 0x20 DUP3 ADD SWAP1 POP SWAP2 SWAP1 POP JUMP JUMPDEST PUSH1 0x0 DUP2 SWAP1 POP PUSH1 0x20 DUP3 ADD SWAP1 POP SWAP2 SWAP1 POP JUMP JUMPDEST PUSH1 0x0 DUP2 MLOAD SWAP1 POP SWAP2 SWAP1 POP JUMP JUMPDEST PUSH1 0x0 DUP2 MLOAD SWAP1 POP SWAP2 SWAP1 POP JUMP JUMPDEST PUSH1 0x0 PUSH1 0x20 DUP3 ADD SWAP1 POP SWAP2 SWAP1 POP JUMP JUMPDEST PUSH1 0x0 PUSH1 0x20 DUP3 ADD SWAP1 POP SWAP2 SWAP1 POP JUMP JUMPDEST PUSH1 0x0 DUP3 DUP3 MSTORE PUSH1 0x20 DUP3 ADD SWAP1 POP SWAP3 SWAP2 POP POP JUMP JUMPDEST PUSH1 0x0 DUP3 DUP3 MSTORE PUSH1 0x20 DUP3 ADD SWAP1 POP SWAP3 SWAP2 POP POP JUMP JUMPDEST PUSH1 0x0 DUP3 DUP3 MSTORE PUSH1 0x20 DUP3 ADD SWAP1 POP SWAP3 SWAP2 POP POP JUMP JUMPDEST PUSH1 0x0 PUSH2 0x16AF DUP3 PUSH2 0x174D JUMP JUMPDEST SWAP2 POP PUSH2 0x16BA DUP4 PUSH2 0x174D JUMP JUMPDEST SWAP3 POP DUP3 PUSH1 0xFF SUB DUP3 GT ISZERO PUSH2 0x16D0 JUMPI PUSH2 0x16CF PUSH2 0x181F JUMP JUMPDEST JUMPDEST DUP3 DUP3 ADD SWAP1 POP SWAP3 SWAP2 POP POP JUMP JUMPDEST PUSH1 0x0 PUSH2 0x16E6 DUP3 PUSH2 0x1723 JUMP JUMPDEST SWAP1 POP SWAP2 SWAP1 POP JUMP JUMPDEST PUSH1 0x0 DUP2 SWAP1 POP SWAP2 SWAP1 POP JUMP JUMPDEST PUSH1 0x0 PUSH32 0xFFFFFFFF00000000000000000000000000000000000000000000000000000000 DUP3 AND SWAP1 POP SWAP2 SWAP1 POP JUMP JUMPDEST PUSH1 0x0 PUSH20 0xFFFFFFFFFFFFFFFFFFFFFFFFFFFFFFFFFFFFFFFF DUP3 AND SWAP1 POP SWAP2 SWAP1 POP JUMP JUMPDEST PUSH1 0x0 DUP2 SWAP1 POP SWAP2 SWAP1 POP JUMP JUMPDEST PUSH1 0x0 PUSH1 0xFF DUP3 AND SWAP1 POP SWAP2 SWAP1 POP JUMP JUMPDEST DUP3 DUP2 DUP4 CALLDATACOPY PUSH1 0x0 DUP4 DUP4 ADD MSTORE POP POP POP JUMP JUMPDEST PUSH1 0x0 PUSH1 0x2 DUP3 DIV SWAP1 POP PUSH1 0x1 DUP3 AND DUP1 PUSH2 0x1781 JUMPI PUSH1 0x7F DUP3 AND SWAP2 POP JUMPDEST PUSH1 0x20 DUP3 LT DUP2 EQ ISZERO PUSH2 0x1795 JUMPI PUSH2 0x1794 PUSH2 0x184E JUMP JUMPDEST JUMPDEST POP SWAP2 SWAP1 POP JUMP JUMPDEST PUSH2 0x17A4 DUP3 PUSH2 0x191E JUMP JUMPDEST DUP2 ADD DUP2 DUP2 LT PUSH8 0xFFFFFFFFFFFFFFFF DUP3 GT OR ISZERO PUSH2 0x17C3 JUMPI PUSH2 0x17C2 PUSH2 0x18AC JUMP JUMPDEST JUMPDEST DUP1 PUSH1 0x40 MSTORE POP POP POP JUMP JUMPDEST PUSH1 0x0 PUSH2 0x17D7 DUP3 PUSH2 0x1743 JUMP JUMPDEST SWAP2 POP PUSH32 0xFFFFFFFFFFFFFFFFFFFFFFFFFFFFFFFFFFFFFFFFFFFFFFFFFFFFFFFFFFFFFFFF DUP3 EQ ISZERO PUSH2 0x180A JUMPI PUSH2 0x1809 PUSH2 0x181F JUMP JUMPDEST JUMPDEST PUSH1 0x1 DUP3 ADD SWAP1 POP SWAP2 SWAP1 POP JUMP JUMPDEST PUSH1 0x0 DUP2 SWAP1 POP SWAP2 SWAP1 POP JUMP JUMPDEST PUSH32 0x4E487B7100000000000000000000000000000000000000000000000000000000 PUSH1 0x0 MSTORE PUSH1 0x11 PUSH1 0x4 MSTORE PUSH1 0x24 PUSH1 0x0 REVERT JUMPDEST PUSH32 0x4E487B7100000000000000000000000000000000000000000000000000000000 PUSH1 0x0 MSTORE PUSH1 0x22 PUSH1 0x4 MSTORE PUSH1 0x24 PUSH1 0x0 REVERT JUMPDEST PUSH32 0x4E487B7100000000000000000000000000000000000000000000000000000000 PUSH1 0x0 MSTORE PUSH1 0x32 PUSH1 0x4 MSTORE PUSH1 0x24 PUSH1 0x0 REVERT JUMPDEST PUSH32 0x4E487B7100000000000000000000000000000000000000000000000000000000 PUSH1 0x0 MSTORE PUSH1 0x41 PUSH1 0x4 MSTORE PUSH1 0x24 PUSH1 0x0 REVERT JUMPDEST PUSH32 0x4E487B7100000000000000000000000000000000000000000000000000000000 PUSH1 0x0 MSTORE PUSH1 0x51 PUSH1 0x4 MSTORE PUSH1 0x24 PUSH1 0x0 REVERT JUMPDEST PUSH1 0x0 DUP1 REVERT JUMPDEST PUSH1 0x0 DUP1 REVERT JUMPDEST PUSH1 0x0 DUP1 REVERT JUMPDEST PUSH1 0x0 DUP1 REVERT JUMPDEST PUSH1 0x0 PUSH1 0x1F NOT PUSH1 0x1F DUP4 ADD AND SWAP1 POP SWAP2 SWAP1 POP JUMP JUMPDEST PUSH32 0x7468652073656E646572206F662074686973207472616E73616374696F6E2064 PUSH1 0x0 DUP3 ADD MSTORE PUSH32 0x6F6573206E6F742068617665206120726F6C65207468617420616C6C6F777320 PUSH1 0x20 DUP3 ADD MSTORE PUSH32 0x7472616E736974696F6E206265747765656E207468652066726F6D20616E6420 PUSH1 0x40 DUP3 ADD MSTORE PUSH32 0x746F207374617465730000000000000000000000000000000000000000000000 PUSH1 0x60 DUP3 ADD MSTORE POP JUMP JUMPDEST PUSH32 0x7468652066726F6D20737461746520686173206E6F74206265656E20636F6E66 PUSH1 0x0 DUP3 ADD MSTORE PUSH32 0x69677572656420696E2074686973206F626A6563740000000000000000000000 PUSH1 0x20 DUP3 ADD MSTORE POP JUMP JUMPDEST PUSH32 0x746869732073746174656D616368696E6520686173206E6F74206265656E2073 PUSH1 0x0 DUP3 ADD MSTORE PUSH32 0x6574757020796574000000000000000000000000000000000000000000000000 PUSH1 0x20 DUP3 ADD MSTORE POP JUMP JUMPDEST PUSH32 0x74686520746F20737461746520686173206E6F74206265656E20636F6E666967 PUSH1 0x0 DUP3 ADD MSTORE PUSH32 0x7572656420696E2074686973206F626A65637400000000000000000000000000 PUSH1 0x20 DUP3 ADD MSTORE POP JUMP JUMPDEST PUSH32 0x74686520726571756573746564206E657874207374617465206973206E6F7420 PUSH1 0x0 DUP3 ADD MSTORE PUSH32 0x616E20616C6C6F776564206E65787420737461746520666F7220746869732074 PUSH1 0x20 DUP3 ADD MSTORE PUSH32 0x72616E736974696F6E0000000000000000000000000000000000000000000000 PUSH1 0x40 DUP3 ADD MSTORE POP JUMP JUMPDEST PUSH2 0x1B35 DUP2 PUSH2 0x16DB JUMP JUMPDEST DUP2 EQ PUSH2 0x1B40 JUMPI PUSH1 0x0 DUP1 REVERT JUMPDEST POP JUMP JUMPDEST PUSH2 0x1B4C DUP2 PUSH2 0x16ED JUMP JUMPDEST DUP2 EQ PUSH2 0x1B57 JUMPI PUSH1 0x0 DUP1 REVERT JUMPDEST POP JUMP JUMPDEST PUSH2 0x1B63 DUP2 PUSH2 0x1743 JUMP JUMPDEST DUP2 EQ PUSH2 0x1B6E JUMPI PUSH1 0x0 DUP1 REVERT JUMPDEST POP JUMP INVALID LOG2 PUSH5 0x6970667358 0x22 SLT KECCAK256 PUSH22 0x36606D8E2E98B54308A9FD5921C3EB01B35AC737210D ISZERO PUSH32 0xC48CB6830147D564736F6C634300080700330000000000000000000000000000 "
		},
		"gasEstimates": {
			"creation": {
				"codeDepositCost": "1415800",
				"executionCost": "infinite",
				"totalCost": "infinite"
			},
			"external": {
				"ROLE_ADMIN()": "395",
				"STATE_FIVE()": "352",
				"STATE_FOUR()": "417",
				"STATE_ONE()": "418",
				"STATE_THREE()": "351",
				"STATE_TWO()": "375",
				"_roles(uint256)": "4972",
				"edit(string,address,uint256)": "infinite",
				"getAllStates()": "infinite",
				"getCurrentState()": "2482",
				"getHistory(uint256)": "infinite",
				"getHistoryLength()": "2512",
				"getNextStates()": "infinite",
				"getState(bytes32)": "infinite",
				"history(uint256)": "infinite",
				"testCallBack(bytes32,bytes32)": "infinite",
				"transitionState(bytes32)": "infinite"
			},
			"internal": {
				"setupStateMachine()": "infinite"
			}
		},
		"methodIdentifiers": {
			"ROLE_ADMIN()": "d391014b",
			"STATE_FIVE()": "a2f50784",
			"STATE_FOUR()": "ed96b08d",
			"STATE_ONE()": "ac65527f",
			"STATE_THREE()": "c6ef8f2f",
			"STATE_TWO()": "226c8952",
			"_roles(uint256)": "304b1bd1",
			"edit(string,address,uint256)": "33c2c9ee",
			"getAllStates()": "a4ddb071",
			"getCurrentState()": "378aa701",
			"getHistory(uint256)": "c8691b2a",
			"getHistoryLength()": "5478f468",
			"getNextStates()": "2e2bc0d5",
			"getState(bytes32)": "09648a9d",
			"history(uint256)": "a7a38f0b",
			"testCallBack(bytes32,bytes32)": "fbcc0f3f",
			"transitionState(bytes32)": "694f1105"
		}
	},
	"abi": [
		{
			"inputs": [
				{
					"internalType": "string",
					"name": "param1",
					"type": "string"
				},
				{
					"internalType": "address",
					"name": "param2",
					"type": "address"
				},
				{
					"internalType": "uint256",
					"name": "param3",
					"type": "uint256"
				}
			],
			"stateMutability": "nonpayable",
			"type": "constructor"
		},
		{
			"anonymous": false,
			"inputs": [
				{
					"indexed": false,
					"internalType": "address",
					"name": "sender",
					"type": "address"
				},
				{
					"indexed": false,
					"internalType": "bytes32",
					"name": "fromState",
					"type": "bytes32"
				},
				{
					"indexed": false,
					"internalType": "bytes32",
					"name": "toState",
					"type": "bytes32"
				}
			],
			"name": "Transition",
			"type": "event"
		},
		{
			"inputs": [],
			"name": "ROLE_ADMIN",
			"outputs": [
				{
					"internalType": "bytes32",
					"name": "",
					"type": "bytes32"
				}
			],
			"stateMutability": "view",
			"type": "function"
		},
		{
			"inputs": [],
			"name": "STATE_FIVE",
			"outputs": [
				{
					"internalType": "bytes32",
					"name": "",
					"type": "bytes32"
				}
			],
			"stateMutability": "view",
			"type": "function"
		},
		{
			"inputs": [],
			"name": "STATE_FOUR",
			"outputs": [
				{
					"internalType": "bytes32",
					"name": "",
					"type": "bytes32"
				}
			],
			"stateMutability": "view",
			"type": "function"
		},
		{
			"inputs": [],
			"name": "STATE_ONE",
			"outputs": [
				{
					"internalType": "bytes32",
					"name": "",
					"type": "bytes32"
				}
			],
			"stateMutability": "view",
			"type": "function"
		},
		{
			"inputs": [],
			"name": "STATE_THREE",
			"outputs": [
				{
					"internalType": "bytes32",
					"name": "",
					"type": "bytes32"
				}
			],
			"stateMutability": "view",
			"type": "function"
		},
		{
			"inputs": [],
			"name": "STATE_TWO",
			"outputs": [
				{
					"internalType": "bytes32",
					"name": "",
					"type": "bytes32"
				}
			],
			"stateMutability": "view",
			"type": "function"
		},
		{
			"inputs": [
				{
					"internalType": "uint256",
					"name": "",
					"type": "uint256"
				}
			],
			"name": "_roles",
			"outputs": [
				{
					"internalType": "bytes32",
					"name": "",
					"type": "bytes32"
				}
			],
			"stateMutability": "view",
			"type": "function"
		},
		{
			"inputs": [
				{
					"internalType": "string",
					"name": "param1",
					"type": "string"
				},
				{
					"internalType": "address",
					"name": "param2",
					"type": "address"
				},
				{
					"internalType": "uint256",
					"name": "param3",
					"type": "uint256"
				}
			],
			"name": "edit",
			"outputs": [],
			"stateMutability": "nonpayable",
			"type": "function"
		},
		{
			"inputs": [],
			"name": "getAllStates",
			"outputs": [
				{
					"internalType": "bytes32[]",
					"name": "allStates",
					"type": "bytes32[]"
				}
			],
			"stateMutability": "view",
			"type": "function"
		},
		{
			"inputs": [],
			"name": "getCurrentState",
			"outputs": [
				{
					"internalType": "bytes32",
					"name": "state",
					"type": "bytes32"
				}
			],
			"stateMutability": "view",
			"type": "function"
		},
		{
			"inputs": [
				{
					"internalType": "uint256",
					"name": "index",
					"type": "uint256"
				}
			],
			"name": "getHistory",
			"outputs": [
				{
					"internalType": "bytes32",
					"name": "fromState",
					"type": "bytes32"
				},
				{
					"internalType": "bytes32",
					"name": "toState",
					"type": "bytes32"
				},
				{
					"internalType": "address",
					"name": "transitor",
					"type": "address"
				},
				{
					"internalType": "uint256",
					"name": "timestamp",
					"type": "uint256"
				}
			],
			"stateMutability": "view",
			"type": "function"
		},
		{
			"inputs": [],
			"name": "getHistoryLength",
			"outputs": [
				{
					"internalType": "uint256",
					"name": "",
					"type": "uint256"
				}
			],
			"stateMutability": "view",
			"type": "function"
		},
		{
			"inputs": [],
			"name": "getNextStates",
			"outputs": [
				{
					"internalType": "bytes32[]",
					"name": "nextStates",
					"type": "bytes32[]"
				}
			],
			"stateMutability": "view",
			"type": "function"
		},
		{
			"inputs": [
				{
					"internalType": "bytes32",
					"name": "state",
					"type": "bytes32"
				}
			],
			"name": "getState",
			"outputs": [
				{
					"internalType": "bytes32",
					"name": "name",
					"type": "bytes32"
				},
				{
					"internalType": "bytes32[]",
					"name": "nextStates",
					"type": "bytes32[]"
				},
				{
					"internalType": "bytes32[]",
					"name": "allowedRoles",
					"type": "bytes32[]"
				},
				{
					"internalType": "bytes4[]",
					"name": "allowedFunctions",
					"type": "bytes4[]"
				},
				{
					"internalType": "bytes4",
					"name": "preFunction",
					"type": "bytes4"
				}
			],
			"stateMutability": "view",
			"type": "function"
		},
		{
			"inputs": [
				{
					"internalType": "uint256",
					"name": "",
					"type": "uint256"
				}
			],
			"name": "history",
			"outputs": [
				{
					"internalType": "bytes32",
					"name": "fromState",
					"type": "bytes32"
				},
				{
					"internalType": "bytes32",
					"name": "toState",
					"type": "bytes32"
				},
				{
					"internalType": "address",
					"name": "transitor",
					"type": "address"
				},
				{
					"internalType": "uint256",
					"name": "timestamp",
					"type": "uint256"
				}
			],
			"stateMutability": "view",
			"type": "function"
		},
		{
			"inputs": [
				{
					"internalType": "bytes32",
					"name": "_param4",
					"type": "bytes32"
				},
				{
					"internalType": "bytes32",
					"name": "_param5",
					"type": "bytes32"
				}
			],
			"name": "testCallBack",
			"outputs": [],
			"stateMutability": "nonpayable",
			"type": "function"
		},
		{
			"inputs": [
				{
					"internalType": "bytes32",
					"name": "toState",
					"type": "bytes32"
				}
			],
			"name": "transitionState",
			"outputs": [],
			"stateMutability": "nonpayable",
			"type": "function"
		}
	]
}