{
	"data": {
		"bytecode": {
			"linkReferences": {},
			"object": "612b48610053600b82828239805160001a607314610046577f4e487b7100000000000000000000000000000000000000000000000000000000600052600060045260246000fd5b30600052607381538281f3fe73000000000000000000000000000000000000000030146080604052600436106100a85760003560e01c80635d5125ee116100705780635d5125ee146101d257806372820891146102035780637c85e51714610234578063c880e54514610271578063e553ecf6146102ae576100a8565b80630cb86d1b146100ad5780631f76872c146100ea57806328c4d776146101275780633ff9814014610164578063467363a114610195575b600080fd5b8180156100b957600080fd5b506100d460048036038101906100cf9190611f42565b6102eb565b6040516100e191906124c0565b60405180910390f35b8180156100f657600080fd5b50610111600480360381019061010c9190612218565b610489565b60405161011e91906124a5565b60405180910390f35b81801561013357600080fd5b5061014e60048036038101906101499190612356565b610744565b60405161015b91906124db565b60405180910390f35b61017e60048036038101906101799190612128565b6109ff565b60405161018c9291906124f6565b60405180910390f35b8180156101a157600080fd5b506101bc60048036038101906101b79190611e99565b610b99565b6040516101c991906124a5565b60405180910390f35b6101ec60048036038101906101e791906121a0565b610d5c565b6040516101fa92919061254f565b60405180910390f35b61021d600480360381019061021891906120b0565b610ea3565b60405161022b929190612526565b60405180910390f35b81801561024057600080fd5b5061025b60048036038101906102569190612316565b61105f565b60405161026891906124c0565b60405180910390f35b81801561027d57600080fd5b5061029860048036038101906102939190612007565b6112f0565b6040516102a591906124db565b60405180910390f35b8180156102ba57600080fd5b506102d560048036038101906102d09190612258565b6114b3565b6040516102e291906124a5565b60405180910390f35b6000806040518060a00160405280887bffffffffffffffffffffffffffffffffffffffffffffffffffffffff191681526020018781526020018673ffffffffffffffffffffffffffffffffffffffff1681526020018573ffffffffffffffffffffffffffffffffffffffff1681526020018481525090508781908060018154018082558091505060019003906000526020600020906005020160009091909190915060008201518160000160006101000a81548163ffffffff021916908360e01c021790555060208201518160010190805190602001906103cd929190611586565b5060408201518160020160006101000a81548173ffffffffffffffffffffffffffffffffffffffff021916908373ffffffffffffffffffffffffffffffffffffffff16021790555060608201518160030160006101000a81548173ffffffffffffffffffffffffffffffffffffffff021916908373ffffffffffffffffffffffffffffffffffffffff160217905550608082015181600401908051906020019061047892919061160c565b505050879150509695505050505050565b60008180549050831061049e5781905061073e565b60008390505b600183805490506104b59190612723565b81101561067c57826001826104ca91906126cd565b815481106104db576104da6129ae565b5b90600052602060002090600402018382815481106104fc576104fb6129ae565b5b90600052602060002090600402016000820160009054906101000a900460e01b8160000160006101000a81548163ffffffff021916908360e01c0217905550600182018160010190805461054f90612875565b61055a929190611696565b506002820160009054906101000a900473ffffffffffffffffffffffffffffffffffffffff168160020160006101000a81548173ffffffffffffffffffffffffffffffffffffffff021916908373ffffffffffffffffffffffffffffffffffffffff1602179055506003820160009054906101000a900473ffffffffffffffffffffffffffffffffffffffff168160030160006101000a81548173ffffffffffffffffffffffffffffffffffffffff021916908373ffffffffffffffffffffffffffffffffffffffff1602179055506003820160149054906101000a900460ff168160030160146101000a81548160ff0219169083600281111561066157610660612950565b5b02179055509050508080610674906128d8565b9150506104a4565b50816001838054905061068f9190612723565b815481106106a05761069f6129ae565b5b9060005260206000209060040201600080820160006101000a81549063ffffffff02191690556001820160006106d69190611723565b6002820160006101000a81549073ffffffffffffffffffffffffffffffffffffffff02191690556003820160006101000a81549073ffffffffffffffffffffffffffffffffffffffff02191690556003820160146101000a81549060ff021916905550508190505b92915050565b600081805490508310610759578190506109f9565b60008390505b600183805490506107709190612723565b811015610937578260018261078591906126cd565b81548110610796576107956129ae565b5b90600052602060002090600402018382815481106107b7576107b66129ae565b5b90600052602060002090600402016000820160009054906101000a900460e01b8160000160006101000a81548163ffffffff021916908360e01c0217905550600182018160010190805461080a90612875565b610815929190611696565b506002820160009054906101000a900473ffffffffffffffffffffffffffffffffffffffff168160020160006101000a81548173ffffffffffffffffffffffffffffffffffffffff021916908373ffffffffffffffffffffffffffffffffffffffff1602179055506003820160009054906101000a900473ffffffffffffffffffffffffffffffffffffffff168160030160006101000a81548173ffffffffffffffffffffffffffffffffffffffff021916908373ffffffffffffffffffffffffffffffffffffffff1602179055506003820160149054906101000a900460ff168160030160146101000a81548160ff0219169083600381111561091c5761091b612950565b5b0217905550905050808061092f906128d8565b91505061075f565b50816001838054905061094a9190612723565b8154811061095b5761095a6129ae565b5b9060005260206000209060040201600080820160006101000a81549063ffffffff02191690556001820160006109919190611723565b6002820160006101000a81549073ffffffffffffffffffffffffffffffffffffffff02191690556003820160006101000a81549073ffffffffffffffffffffffffffffffffffffffff02191690556003820160146101000a81549060ff021916905550508190505b92915050565b6000606060005b8351811015610b36576000848281518110610a2457610a236129ae565b5b6020026020010151905080600001517bffffffffffffffffffffffffffffffffffffffffffffffffffffffff191686604001517bffffffffffffffffffffffffffffffffffffffffffffffffffffffff19161480610a905750610a8f8660800151826020015161152d565b5b15610b2257806040015173ffffffffffffffffffffffffffffffffffffffff16866000015173ffffffffffffffffffffffffffffffffffffffff161480610b0a5750806060015173ffffffffffffffffffffffffffffffffffffffff16866020015173ffffffffffffffffffffffffffffffffffffffff16145b15610b215760018160800151935093505050610b92565b5b508080610b2e906128d8565b915050610a06565b506060600081600081518110610b4f57610b4e6129ae565b5b602002602001019073ffffffffffffffffffffffffffffffffffffffff16908173ffffffffffffffffffffffffffffffffffffffff168152505060008192509250505b9250929050565b6000806040518060a00160405280887bffffffffffffffffffffffffffffffffffffffffffffffffffffffff191681526020018781526020018673ffffffffffffffffffffffffffffffffffffffff1681526020018573ffffffffffffffffffffffffffffffffffffffff168152602001846002811115610c1d57610c1c612950565b5b81525090508781908060018154018082558091505060019003906000526020600020906004020160009091909190915060008201518160000160006101000a81548163ffffffff021916908360e01c02179055506020820151816001019080519060200190610c8d929190611586565b5060408201518160020160006101000a81548173ffffffffffffffffffffffffffffffffffffffff021916908373ffffffffffffffffffffffffffffffffffffffff16021790555060608201518160030160006101000a81548173ffffffffffffffffffffffffffffffffffffffff021916908373ffffffffffffffffffffffffffffffffffffffff16021790555060808201518160030160146101000a81548160ff02191690836002811115610d4757610d46612950565b5b02179055505050879150509695505050505050565b60008060005b8351811015610e92576000848281518110610d8057610d7f6129ae565b5b6020026020010151905080600001517bffffffffffffffffffffffffffffffffffffffffffffffffffffffff191686604001517bffffffffffffffffffffffffffffffffffffffffffffffffffffffff19161480610dec5750610deb8660800151826020015161152d565b5b15610e7e57806040015173ffffffffffffffffffffffffffffffffffffffff16866000015173ffffffffffffffffffffffffffffffffffffffff161480610e665750806060015173ffffffffffffffffffffffffffffffffffffffff16866020015173ffffffffffffffffffffffffffffffffffffffff16145b15610e7d5760018160800151935093505050610e9c565b5b508080610e8a906128d8565b915050610d62565b5060016003915091505b9250929050565b60008060005b835181101561104e576000848281518110610ec757610ec66129ae565b5b6020026020010151905080600001517bffffffffffffffffffffffffffffffffffffffffffffffffffffffff191686604001517bffffffffffffffffffffffffffffffffffffffffffffffffffffffff19161480610f335750610f328660800151826020015161152d565b5b1561103a57806040015173ffffffffffffffffffffffffffffffffffffffff16866000015173ffffffffffffffffffffffffffffffffffffffff161480610fad5750806060015173ffffffffffffffffffffffffffffffffffffffff16866020015173ffffffffffffffffffffffffffffffffffffffff16145b156110395760006002811115610fc657610fc5612950565b5b81608001516002811115610fdd57610fdc612950565b5b1415610ff55760008160800151935093505050611058565b6001600281111561100957611008612950565b5b816080015160028111156110205761101f612950565b5b14156110385760018160800151935093505050611058565b5b5b508080611046906128d8565b915050610ea9565b5060016002915091505b9250929050565b600081805490508310611074578190506112ea565b60008390505b6001838054905061108b9190612723565b81101561122c57826001826110a091906126cd565b815481106110b1576110b06129ae565b5b90600052602060002090600502018382815481106110d2576110d16129ae565b5b90600052602060002090600502016000820160009054906101000a900460e01b8160000160006101000a81548163ffffffff021916908360e01c0217905550600182018160010190805461112590612875565b611130929190611696565b506002820160009054906101000a900473ffffffffffffffffffffffffffffffffffffffff168160020160006101000a81548173ffffffffffffffffffffffffffffffffffffffff021916908373ffffffffffffffffffffffffffffffffffffffff1602179055506003820160009054906101000a900473ffffffffffffffffffffffffffffffffffffffff168160030160006101000a81548173ffffffffffffffffffffffffffffffffffffffff021916908373ffffffffffffffffffffffffffffffffffffffff1602179055506004820181600401908054611215929190611763565b509050508080611224906128d8565b91505061107a565b50816001838054905061123f9190612723565b815481106112505761124f6129ae565b5b9060005260206000209060050201600080820160006101000a81549063ffffffff02191690556001820160006112869190611723565b6002820160006101000a81549073ffffffffffffffffffffffffffffffffffffffff02191690556003820160006101000a81549073ffffffffffffffffffffffffffffffffffffffff02191690556004820160006112e491906117b5565b50508190505b92915050565b6000806040518060a00160405280887bffffffffffffffffffffffffffffffffffffffffffffffffffffffff191681526020018781526020018673ffffffffffffffffffffffffffffffffffffffff1681526020018573ffffffffffffffffffffffffffffffffffffffff16815260200184600381111561137457611373612950565b5b81525090508781908060018154018082558091505060019003906000526020600020906004020160009091909190915060008201518160000160006101000a81548163ffffffff021916908360e01c021790555060208201518160010190805190602001906113e4929190611586565b5060408201518160020160006101000a81548173ffffffffffffffffffffffffffffffffffffffff021916908373ffffffffffffffffffffffffffffffffffffffff16021790555060608201518160030160006101000a81548173ffffffffffffffffffffffffffffffffffffffff021916908373ffffffffffffffffffffffffffffffffffffffff16021790555060808201518160030160146101000a81548160ff0219169083600381111561149e5761149d612950565b5b02179055505050879150509695505050505050565b60008060e01b867bffffffffffffffffffffffffffffffffffffffffffffffffffffffff19161461151f57858789815481106114f2576114f16129ae565b5b906000526020600020906004020160000160006101000a81548163ffffffff021916908360e01c02179055505b869050979650505050505050565b600081604051602001611540919061248e565b6040516020818303038152906040528051906020012083604051602001611567919061248e565b6040516020818303038152906040528051906020012014905092915050565b82805461159290612875565b90600052602060002090601f0160209004810192826115b457600085556115fb565b82601f106115cd57805160ff19168380011785556115fb565b828001600101855582156115fb579182015b828111156115fa5782518255916020019190600101906115df565b5b50905061160891906117d6565b5090565b828054828255906000526020600020908101928215611685579160200282015b828111156116845782518260006101000a81548173ffffffffffffffffffffffffffffffffffffffff021916908373ffffffffffffffffffffffffffffffffffffffff1602179055509160200191906001019061162c565b5b50905061169291906117d6565b5090565b8280546116a290612875565b90600052602060002090601f0160209004810192826116c45760008555611712565b82601f106116d55780548555611712565b8280016001018555821561171257600052602060002091601f016020900482015b828111156117115782548255916001019190600101906116f6565b5b50905061171f91906117d6565b5090565b50805461172f90612875565b6000825580601f106117415750611760565b601f01602090049060005260206000209081019061175f91906117d6565b5b50565b8280548282559060005260206000209081019282156117a45760005260206000209182015b828111156117a3578254825591600101919060010190611788565b5b5090506117b191906117d6565b5090565b50805460008255906000526020600020908101906117d391906117d6565b50565b5b808211156117ef5760008160009055506001016117d7565b5090565b60006118066118018461259d565b612578565b9050808382526020820190508285602086028201111561182957611828612a1b565b5b60005b85811015611859578161183f8882611a4f565b84526020840193506020830192505060018101905061182c565b5050509392505050565b6000611876611871846125c9565b612578565b9050808382526020820190508285602086028201111561189957611898612a1b565b5b60005b858110156118e757813567ffffffffffffffff8111156118bf576118be612a0c565b5b8086016118cc8982611bc8565b8552602085019450602084019350505060018101905061189c565b5050509392505050565b60006119046118ff846125f5565b612578565b9050808382526020820190508285602086028201111561192757611926612a1b565b5b60005b8581101561197557813567ffffffffffffffff81111561194d5761194c612a0c565b5b80860161195a8982611c70565b8552602085019450602084019350505060018101905061192a565b5050509392505050565b600061199261198d84612621565b612578565b905080838252602082019050828560208602820111156119b5576119b4612a1b565b5b60005b85811015611a0357813567ffffffffffffffff8111156119db576119da612a0c565b5b8086016119e88982611d34565b855260208501945060208401935050506001810190506119b8565b5050509392505050565b6000611a20611a1b8461264d565b612578565b905082815260208101848484011115611a3c57611a3b612a20565b5b611a47848285612833565b509392505050565b600081359050611a5e81612a68565b92915050565b600082601f830112611a7957611a78612a0c565b5b8135611a898482602086016117f3565b91505092915050565b600082601f830112611aa757611aa6612a0c565b5b8135611ab7848260208601611863565b91505092915050565b600081359050611acf81612a7f565b92915050565b600082601f830112611aea57611ae9612a0c565b5b8135611afa8482602086016118f1565b91505092915050565b600081359050611b1281612a96565b92915050565b600082601f830112611b2d57611b2c612a0c565b5b8135611b3d84826020860161197f565b91505092915050565b600081359050611b5581612aad565b92915050565b600081359050611b6a81612ac4565b92915050565b600081359050611b7f81612adb565b92915050565b600081359050611b9481612aeb565b92915050565b600082601f830112611baf57611bae612a0c565b5b8135611bbf848260208601611a0d565b91505092915050565b600060a08284031215611bde57611bdd612a11565b5b611be860a0612578565b90506000611bf884828501611b5b565b600083015250602082013567ffffffffffffffff811115611c1c57611c1b612a16565b5b611c2884828501611b9a565b6020830152506040611c3c84828501611a4f565b6040830152506060611c5084828501611a4f565b6060830152506080611c6484828501611b70565b60808301525092915050565b600060a08284031215611c8657611c85612a11565b5b611c9060a0612578565b90506000611ca084828501611b5b565b600083015250602082013567ffffffffffffffff811115611cc457611cc3612a16565b5b611cd084828501611b9a565b6020830152506040611ce484828501611a4f565b6040830152506060611cf884828501611a4f565b606083015250608082013567ffffffffffffffff811115611d1c57611d1b612a16565b5b611d2884828501611a64565b60808301525092915050565b600060a08284031215611d4a57611d49612a11565b5b611d5460a0612578565b90506000611d6484828501611b5b565b600083015250602082013567ffffffffffffffff811115611d8857611d87612a16565b5b611d9484828501611b9a565b6020830152506040611da884828501611a4f565b6040830152506060611dbc84828501611a4f565b6060830152506080611dd084828501611b85565b60808301525092915050565b600060a08284031215611df257611df1612a11565b5b611dfc60a0612578565b90506000611e0c84828501611a4f565b6000830152506020611e2084828501611a4f565b6020830152506040611e3484828501611b5b565b6040830152506060611e4884828501611e84565b606083015250608082013567ffffffffffffffff811115611e6c57611e6b612a16565b5b611e7884828501611b9a565b60808301525092915050565b600081359050611e9381612afb565b92915050565b60008060008060008060c08789031215611eb657611eb5612a2a565b5b6000611ec489828a01611ac0565b9650506020611ed589828a01611b5b565b955050604087013567ffffffffffffffff811115611ef657611ef5612a25565b5b611f0289828a01611b9a565b9450506060611f1389828a01611a4f565b9350506080611f2489828a01611a4f565b92505060a0611f3589828a01611b70565b9150509295509295509295565b60008060008060008060c08789031215611f5f57611f5e612a2a565b5b6000611f6d89828a01611b03565b9650506020611f7e89828a01611b5b565b955050604087013567ffffffffffffffff811115611f9f57611f9e612a25565b5b611fab89828a01611b9a565b9450506060611fbc89828a01611a4f565b9350506080611fcd89828a01611a4f565b92505060a087013567ffffffffffffffff811115611fee57611fed612a25565b5b611ffa89828a01611a64565b9150509295509295509295565b60008060008060008060c0878903121561202457612023612a2a565b5b600061203289828a01611b46565b965050602061204389828a01611b5b565b955050604087013567ffffffffffffffff81111561206457612063612a25565b5b61207089828a01611b9a565b945050606061208189828a01611a4f565b935050608061209289828a01611a4f565b92505060a06120a389828a01611b85565b9150509295509295509295565b600080604083850312156120c7576120c6612a2a565b5b600083013567ffffffffffffffff8111156120e5576120e4612a25565b5b6120f185828601611ddc565b925050602083013567ffffffffffffffff81111561211257612111612a25565b5b61211e85828601611a92565b9150509250929050565b6000806040838503121561213f5761213e612a2a565b5b600083013567ffffffffffffffff81111561215d5761215c612a25565b5b61216985828601611ddc565b925050602083013567ffffffffffffffff81111561218a57612189612a25565b5b61219685828601611ad5565b9150509250929050565b600080604083850312156121b7576121b6612a2a565b5b600083013567ffffffffffffffff8111156121d5576121d4612a25565b5b6121e185828601611ddc565b925050602083013567ffffffffffffffff81111561220257612201612a25565b5b61220e85828601611b18565b9150509250929050565b6000806040838503121561222f5761222e612a2a565b5b600061223d85828601611e84565b925050602061224e85828601611ac0565b9150509250929050565b600080600080600080600060e0888a03121561227757612276612a2a565b5b60006122858a828b01611e84565b97505060206122968a828b01611ac0565b96505060406122a78a828b01611b5b565b955050606088013567ffffffffffffffff8111156122c8576122c7612a25565b5b6122d48a828b01611b9a565b94505060806122e58a828b01611a4f565b93505060a06122f68a828b01611a4f565b92505060c06123078a828b01611b70565b91505092959891949750929550565b6000806040838503121561232d5761232c612a2a565b5b600061233b85828601611e84565b925050602061234c85828601611b03565b9150509250929050565b6000806040838503121561236d5761236c612a2a565b5b600061237b85828601611e84565b925050602061238c85828601611b46565b9150509250929050565b60006123a283836123ae565b60208301905092915050565b6123b781612757565b82525050565b60006123c88261268e565b6123d281856126b1565b93506123dd8361267e565b8060005b8381101561240e5781516123f58882612396565b9750612400836126a4565b9250506001810190506123e1565b5085935050505092915050565b8082525050565b8082525050565b8082525050565b61243981612787565b82525050565b6124488161280f565b82525050565b61245781612821565b82525050565b600061246882612699565b61247281856126c2565b9350612482818560208601612842565b80840191505092915050565b600061249a828461245d565b915081905092915050565b60006020820190506124ba600083018461241b565b92915050565b60006020820190506124d56000830184612422565b92915050565b60006020820190506124f06000830184612429565b92915050565b600060408201905061250b6000830185612430565b818103602083015261251d81846123bd565b90509392505050565b600060408201905061253b6000830185612430565b612548602083018461243f565b9392505050565b60006040820190506125646000830185612430565b612571602083018461244e565b9392505050565b6000612582612593565b905061258e82826128a7565b919050565b6000604051905090565b600067ffffffffffffffff8211156125b8576125b76129dd565b5b602082029050602081019050919050565b600067ffffffffffffffff8211156125e4576125e36129dd565b5b602082029050602081019050919050565b600067ffffffffffffffff8211156126105761260f6129dd565b5b602082029050602081019050919050565b600067ffffffffffffffff82111561263c5761263b6129dd565b5b602082029050602081019050919050565b600067ffffffffffffffff821115612668576126676129dd565b5b61267182612a2f565b9050602081019050919050565b6000819050602082019050919050565b600081519050919050565b600081519050919050565b6000602082019050919050565b600082825260208201905092915050565b600081905092915050565b60006126d882612805565b91506126e383612805565b9250827fffffffffffffffffffffffffffffffffffffffffffffffffffffffffffffffff0382111561271857612717612921565b5b828201905092915050565b600061272e82612805565b915061273983612805565b92508282101561274c5761274b612921565b5b828203905092915050565b6000612762826127e5565b9050919050565b6000819050919050565b6000819050919050565b6000819050919050565b60008115159050919050565b60007fffffffff0000000000000000000000000000000000000000000000000000000082169050919050565b60008190506127cd82612a40565b919050565b60008190506127e082612a54565b919050565b600073ffffffffffffffffffffffffffffffffffffffff82169050919050565b6000819050919050565b600061281a826127bf565b9050919050565b600061282c826127d2565b9050919050565b82818337600083830152505050565b60005b83811015612860578082015181840152602081019050612845565b8381111561286f576000848401525b50505050565b6000600282049050600182168061288d57607f821691505b602082108114156128a1576128a061297f565b5b50919050565b6128b082612a2f565b810181811067ffffffffffffffff821117156128cf576128ce6129dd565b5b80604052505050565b60006128e382612805565b91507fffffffffffffffffffffffffffffffffffffffffffffffffffffffffffffffff82141561291657612915612921565b5b600182019050919050565b7f4e487b7100000000000000000000000000000000000000000000000000000000600052601160045260246000fd5b7f4e487b7100000000000000000000000000000000000000000000000000000000600052602160045260246000fd5b7f4e487b7100000000000000000000000000000000000000000000000000000000600052602260045260246000fd5b7f4e487b7100000000000000000000000000000000000000000000000000000000600052603260045260246000fd5b7f4e487b7100000000000000000000000000000000000000000000000000000000600052604160045260246000fd5b600080fd5b600080fd5b600080fd5b600080fd5b600080fd5b600080fd5b600080fd5b6000601f19601f8301169050919050565b60038110612a5157612a50612950565b5b50565b60048110612a6557612a64612950565b5b50565b612a7181612757565b8114612a7c57600080fd5b50565b612a8881612769565b8114612a9357600080fd5b50565b612a9f81612773565b8114612aaa57600080fd5b50565b612ab68161277d565b8114612ac157600080fd5b50565b612acd81612793565b8114612ad857600080fd5b50565b60038110612ae857600080fd5b50565b60048110612af857600080fd5b50565b612b0481612805565b8114612b0f57600080fd5b5056fea264697066735822122097b12ddadae94f38a01a82a7f47cc50fd0c5a127d66a6b65aa7865134b377eb564736f6c63430008070033",
			"opcodes": "PUSH2 0x2B48 PUSH2 0x53 PUSH1 0xB DUP3 DUP3 DUP3 CODECOPY DUP1 MLOAD PUSH1 0x0 BYTE PUSH1 0x73 EQ PUSH2 0x46 JUMPI PUSH32 0x4E487B7100000000000000000000000000000000000000000000000000000000 PUSH1 0x0 MSTORE PUSH1 0x0 PUSH1 0x4 MSTORE PUSH1 0x24 PUSH1 0x0 REVERT JUMPDEST ADDRESS PUSH1 0x0 MSTORE PUSH1 0x73 DUP2 MSTORE8 DUP3 DUP2 RETURN INVALID PUSH20 0x0 ADDRESS EQ PUSH1 0x80 PUSH1 0x40 MSTORE PUSH1 0x4 CALLDATASIZE LT PUSH2 0xA8 JUMPI PUSH1 0x0 CALLDATALOAD PUSH1 0xE0 SHR DUP1 PUSH4 0x5D5125EE GT PUSH2 0x70 JUMPI DUP1 PUSH4 0x5D5125EE EQ PUSH2 0x1D2 JUMPI DUP1 PUSH4 0x72820891 EQ PUSH2 0x203 JUMPI DUP1 PUSH4 0x7C85E517 EQ PUSH2 0x234 JUMPI DUP1 PUSH4 0xC880E545 EQ PUSH2 0x271 JUMPI DUP1 PUSH4 0xE553ECF6 EQ PUSH2 0x2AE JUMPI PUSH2 0xA8 JUMP JUMPDEST DUP1 PUSH4 0xCB86D1B EQ PUSH2 0xAD JUMPI DUP1 PUSH4 0x1F76872C EQ PUSH2 0xEA JUMPI DUP1 PUSH4 0x28C4D776 EQ PUSH2 0x127 JUMPI DUP1 PUSH4 0x3FF98140 EQ PUSH2 0x164 JUMPI DUP1 PUSH4 0x467363A1 EQ PUSH2 0x195 JUMPI JUMPDEST PUSH1 0x0 DUP1 REVERT JUMPDEST DUP2 DUP1 ISZERO PUSH2 0xB9 JUMPI PUSH1 0x0 DUP1 REVERT JUMPDEST POP PUSH2 0xD4 PUSH1 0x4 DUP1 CALLDATASIZE SUB DUP2 ADD SWAP1 PUSH2 0xCF SWAP2 SWAP1 PUSH2 0x1F42 JUMP JUMPDEST PUSH2 0x2EB JUMP JUMPDEST PUSH1 0x40 MLOAD PUSH2 0xE1 SWAP2 SWAP1 PUSH2 0x24C0 JUMP JUMPDEST PUSH1 0x40 MLOAD DUP1 SWAP2 SUB SWAP1 RETURN JUMPDEST DUP2 DUP1 ISZERO PUSH2 0xF6 JUMPI PUSH1 0x0 DUP1 REVERT JUMPDEST POP PUSH2 0x111 PUSH1 0x4 DUP1 CALLDATASIZE SUB DUP2 ADD SWAP1 PUSH2 0x10C SWAP2 SWAP1 PUSH2 0x2218 JUMP JUMPDEST PUSH2 0x489 JUMP JUMPDEST PUSH1 0x40 MLOAD PUSH2 0x11E SWAP2 SWAP1 PUSH2 0x24A5 JUMP JUMPDEST PUSH1 0x40 MLOAD DUP1 SWAP2 SUB SWAP1 RETURN JUMPDEST DUP2 DUP1 ISZERO PUSH2 0x133 JUMPI PUSH1 0x0 DUP1 REVERT JUMPDEST POP PUSH2 0x14E PUSH1 0x4 DUP1 CALLDATASIZE SUB DUP2 ADD SWAP1 PUSH2 0x149 SWAP2 SWAP1 PUSH2 0x2356 JUMP JUMPDEST PUSH2 0x744 JUMP JUMPDEST PUSH1 0x40 MLOAD PUSH2 0x15B SWAP2 SWAP1 PUSH2 0x24DB JUMP JUMPDEST PUSH1 0x40 MLOAD DUP1 SWAP2 SUB SWAP1 RETURN JUMPDEST PUSH2 0x17E PUSH1 0x4 DUP1 CALLDATASIZE SUB DUP2 ADD SWAP1 PUSH2 0x179 SWAP2 SWAP1 PUSH2 0x2128 JUMP JUMPDEST PUSH2 0x9FF JUMP JUMPDEST PUSH1 0x40 MLOAD PUSH2 0x18C SWAP3 SWAP2 SWAP1 PUSH2 0x24F6 JUMP JUMPDEST PUSH1 0x40 MLOAD DUP1 SWAP2 SUB SWAP1 RETURN JUMPDEST DUP2 DUP1 ISZERO PUSH2 0x1A1 JUMPI PUSH1 0x0 DUP1 REVERT JUMPDEST POP PUSH2 0x1BC PUSH1 0x4 DUP1 CALLDATASIZE SUB DUP2 ADD SWAP1 PUSH2 0x1B7 SWAP2 SWAP1 PUSH2 0x1E99 JUMP JUMPDEST PUSH2 0xB99 JUMP JUMPDEST PUSH1 0x40 MLOAD PUSH2 0x1C9 SWAP2 SWAP1 PUSH2 0x24A5 JUMP JUMPDEST PUSH1 0x40 MLOAD DUP1 SWAP2 SUB SWAP1 RETURN JUMPDEST PUSH2 0x1EC PUSH1 0x4 DUP1 CALLDATASIZE SUB DUP2 ADD SWAP1 PUSH2 0x1E7 SWAP2 SWAP1 PUSH2 0x21A0 JUMP JUMPDEST PUSH2 0xD5C JUMP JUMPDEST PUSH1 0x40 MLOAD PUSH2 0x1FA SWAP3 SWAP2 SWAP1 PUSH2 0x254F JUMP JUMPDEST PUSH1 0x40 MLOAD DUP1 SWAP2 SUB SWAP1 RETURN JUMPDEST PUSH2 0x21D PUSH1 0x4 DUP1 CALLDATASIZE SUB DUP2 ADD SWAP1 PUSH2 0x218 SWAP2 SWAP1 PUSH2 0x20B0 JUMP JUMPDEST PUSH2 0xEA3 JUMP JUMPDEST PUSH1 0x40 MLOAD PUSH2 0x22B SWAP3 SWAP2 SWAP1 PUSH2 0x2526 JUMP JUMPDEST PUSH1 0x40 MLOAD DUP1 SWAP2 SUB SWAP1 RETURN JUMPDEST DUP2 DUP1 ISZERO PUSH2 0x240 JUMPI PUSH1 0x0 DUP1 REVERT JUMPDEST POP PUSH2 0x25B PUSH1 0x4 DUP1 CALLDATASIZE SUB DUP2 ADD SWAP1 PUSH2 0x256 SWAP2 SWAP1 PUSH2 0x2316 JUMP JUMPDEST PUSH2 0x105F JUMP JUMPDEST PUSH1 0x40 MLOAD PUSH2 0x268 SWAP2 SWAP1 PUSH2 0x24C0 JUMP JUMPDEST PUSH1 0x40 MLOAD DUP1 SWAP2 SUB SWAP1 RETURN JUMPDEST DUP2 DUP1 ISZERO PUSH2 0x27D JUMPI PUSH1 0x0 DUP1 REVERT JUMPDEST POP PUSH2 0x298 PUSH1 0x4 DUP1 CALLDATASIZE SUB DUP2 ADD SWAP1 PUSH2 0x293 SWAP2 SWAP1 PUSH2 0x2007 JUMP JUMPDEST PUSH2 0x12F0 JUMP JUMPDEST PUSH1 0x40 MLOAD PUSH2 0x2A5 SWAP2 SWAP1 PUSH2 0x24DB JUMP JUMPDEST PUSH1 0x40 MLOAD DUP1 SWAP2 SUB SWAP1 RETURN JUMPDEST DUP2 DUP1 ISZERO PUSH2 0x2BA JUMPI PUSH1 0x0 DUP1 REVERT JUMPDEST POP PUSH2 0x2D5 PUSH1 0x4 DUP1 CALLDATASIZE SUB DUP2 ADD SWAP1 PUSH2 0x2D0 SWAP2 SWAP1 PUSH2 0x2258 JUMP JUMPDEST PUSH2 0x14B3 JUMP JUMPDEST PUSH1 0x40 MLOAD PUSH2 0x2E2 SWAP2 SWAP1 PUSH2 0x24A5 JUMP JUMPDEST PUSH1 0x40 MLOAD DUP1 SWAP2 SUB SWAP1 RETURN JUMPDEST PUSH1 0x0 DUP1 PUSH1 0x40 MLOAD DUP1 PUSH1 0xA0 ADD PUSH1 0x40 MSTORE DUP1 DUP9 PUSH28 0xFFFFFFFFFFFFFFFFFFFFFFFFFFFFFFFFFFFFFFFFFFFFFFFFFFFFFFFF NOT AND DUP2 MSTORE PUSH1 0x20 ADD DUP8 DUP2 MSTORE PUSH1 0x20 ADD DUP7 PUSH20 0xFFFFFFFFFFFFFFFFFFFFFFFFFFFFFFFFFFFFFFFF AND DUP2 MSTORE PUSH1 0x20 ADD DUP6 PUSH20 0xFFFFFFFFFFFFFFFFFFFFFFFFFFFFFFFFFFFFFFFF AND DUP2 MSTORE PUSH1 0x20 ADD DUP5 DUP2 MSTORE POP SWAP1 POP DUP8 DUP2 SWAP1 DUP1 PUSH1 0x1 DUP2 SLOAD ADD DUP1 DUP3 SSTORE DUP1 SWAP2 POP POP PUSH1 0x1 SWAP1 SUB SWAP1 PUSH1 0x0 MSTORE PUSH1 0x20 PUSH1 0x0 KECCAK256 SWAP1 PUSH1 0x5 MUL ADD PUSH1 0x0 SWAP1 SWAP2 SWAP1 SWAP2 SWAP1 SWAP2 POP PUSH1 0x0 DUP3 ADD MLOAD DUP2 PUSH1 0x0 ADD PUSH1 0x0 PUSH2 0x100 EXP DUP2 SLOAD DUP2 PUSH4 0xFFFFFFFF MUL NOT AND SWAP1 DUP4 PUSH1 0xE0 SHR MUL OR SWAP1 SSTORE POP PUSH1 0x20 DUP3 ADD MLOAD DUP2 PUSH1 0x1 ADD SWAP1 DUP1 MLOAD SWAP1 PUSH1 0x20 ADD SWAP1 PUSH2 0x3CD SWAP3 SWAP2 SWAP1 PUSH2 0x1586 JUMP JUMPDEST POP PUSH1 0x40 DUP3 ADD MLOAD DUP2 PUSH1 0x2 ADD PUSH1 0x0 PUSH2 0x100 EXP DUP2 SLOAD DUP2 PUSH20 0xFFFFFFFFFFFFFFFFFFFFFFFFFFFFFFFFFFFFFFFF MUL NOT AND SWAP1 DUP4 PUSH20 0xFFFFFFFFFFFFFFFFFFFFFFFFFFFFFFFFFFFFFFFF AND MUL OR SWAP1 SSTORE POP PUSH1 0x60 DUP3 ADD MLOAD DUP2 PUSH1 0x3 ADD PUSH1 0x0 PUSH2 0x100 EXP DUP2 SLOAD DUP2 PUSH20 0xFFFFFFFFFFFFFFFFFFFFFFFFFFFFFFFFFFFFFFFF MUL NOT AND SWAP1 DUP4 PUSH20 0xFFFFFFFFFFFFFFFFFFFFFFFFFFFFFFFFFFFFFFFF AND MUL OR SWAP1 SSTORE POP PUSH1 0x80 DUP3 ADD MLOAD DUP2 PUSH1 0x4 ADD SWAP1 DUP1 MLOAD SWAP1 PUSH1 0x20 ADD SWAP1 PUSH2 0x478 SWAP3 SWAP2 SWAP1 PUSH2 0x160C JUMP JUMPDEST POP POP POP DUP8 SWAP2 POP POP SWAP7 SWAP6 POP POP POP POP POP POP JUMP JUMPDEST PUSH1 0x0 DUP2 DUP1 SLOAD SWAP1 POP DUP4 LT PUSH2 0x49E JUMPI DUP2 SWAP1 POP PUSH2 0x73E JUMP JUMPDEST PUSH1 0x0 DUP4 SWAP1 POP JUMPDEST PUSH1 0x1 DUP4 DUP1 SLOAD SWAP1 POP PUSH2 0x4B5 SWAP2 SWAP1 PUSH2 0x2723 JUMP JUMPDEST DUP2 LT ISZERO PUSH2 0x67C JUMPI DUP3 PUSH1 0x1 DUP3 PUSH2 0x4CA SWAP2 SWAP1 PUSH2 0x26CD JUMP JUMPDEST DUP2 SLOAD DUP2 LT PUSH2 0x4DB JUMPI PUSH2 0x4DA PUSH2 0x29AE JUMP JUMPDEST JUMPDEST SWAP1 PUSH1 0x0 MSTORE PUSH1 0x20 PUSH1 0x0 KECCAK256 SWAP1 PUSH1 0x4 MUL ADD DUP4 DUP3 DUP2 SLOAD DUP2 LT PUSH2 0x4FC JUMPI PUSH2 0x4FB PUSH2 0x29AE JUMP JUMPDEST JUMPDEST SWAP1 PUSH1 0x0 MSTORE PUSH1 0x20 PUSH1 0x0 KECCAK256 SWAP1 PUSH1 0x4 MUL ADD PUSH1 0x0 DUP3 ADD PUSH1 0x0 SWAP1 SLOAD SWAP1 PUSH2 0x100 EXP SWAP1 DIV PUSH1 0xE0 SHL DUP2 PUSH1 0x0 ADD PUSH1 0x0 PUSH2 0x100 EXP DUP2 SLOAD DUP2 PUSH4 0xFFFFFFFF MUL NOT AND SWAP1 DUP4 PUSH1 0xE0 SHR MUL OR SWAP1 SSTORE POP PUSH1 0x1 DUP3 ADD DUP2 PUSH1 0x1 ADD SWAP1 DUP1 SLOAD PUSH2 0x54F SWAP1 PUSH2 0x2875 JUMP JUMPDEST PUSH2 0x55A SWAP3 SWAP2 SWAP1 PUSH2 0x1696 JUMP JUMPDEST POP PUSH1 0x2 DUP3 ADD PUSH1 0x0 SWAP1 SLOAD SWAP1 PUSH2 0x100 EXP SWAP1 DIV PUSH20 0xFFFFFFFFFFFFFFFFFFFFFFFFFFFFFFFFFFFFFFFF AND DUP2 PUSH1 0x2 ADD PUSH1 0x0 PUSH2 0x100 EXP DUP2 SLOAD DUP2 PUSH20 0xFFFFFFFFFFFFFFFFFFFFFFFFFFFFFFFFFFFFFFFF MUL NOT AND SWAP1 DUP4 PUSH20 0xFFFFFFFFFFFFFFFFFFFFFFFFFFFFFFFFFFFFFFFF AND MUL OR SWAP1 SSTORE POP PUSH1 0x3 DUP3 ADD PUSH1 0x0 SWAP1 SLOAD SWAP1 PUSH2 0x100 EXP SWAP1 DIV PUSH20 0xFFFFFFFFFFFFFFFFFFFFFFFFFFFFFFFFFFFFFFFF AND DUP2 PUSH1 0x3 ADD PUSH1 0x0 PUSH2 0x100 EXP DUP2 SLOAD DUP2 PUSH20 0xFFFFFFFFFFFFFFFFFFFFFFFFFFFFFFFFFFFFFFFF MUL NOT AND SWAP1 DUP4 PUSH20 0xFFFFFFFFFFFFFFFFFFFFFFFFFFFFFFFFFFFFFFFF AND MUL OR SWAP1 SSTORE POP PUSH1 0x3 DUP3 ADD PUSH1 0x14 SWAP1 SLOAD SWAP1 PUSH2 0x100 EXP SWAP1 DIV PUSH1 0xFF AND DUP2 PUSH1 0x3 ADD PUSH1 0x14 PUSH2 0x100 EXP DUP2 SLOAD DUP2 PUSH1 0xFF MUL NOT AND SWAP1 DUP4 PUSH1 0x2 DUP2 GT ISZERO PUSH2 0x661 JUMPI PUSH2 0x660 PUSH2 0x2950 JUMP JUMPDEST JUMPDEST MUL OR SWAP1 SSTORE POP SWAP1 POP POP DUP1 DUP1 PUSH2 0x674 SWAP1 PUSH2 0x28D8 JUMP JUMPDEST SWAP2 POP POP PUSH2 0x4A4 JUMP JUMPDEST POP DUP2 PUSH1 0x1 DUP4 DUP1 SLOAD SWAP1 POP PUSH2 0x68F SWAP2 SWAP1 PUSH2 0x2723 JUMP JUMPDEST DUP2 SLOAD DUP2 LT PUSH2 0x6A0 JUMPI PUSH2 0x69F PUSH2 0x29AE JUMP JUMPDEST JUMPDEST SWAP1 PUSH1 0x0 MSTORE PUSH1 0x20 PUSH1 0x0 KECCAK256 SWAP1 PUSH1 0x4 MUL ADD PUSH1 0x0 DUP1 DUP3 ADD PUSH1 0x0 PUSH2 0x100 EXP DUP2 SLOAD SWAP1 PUSH4 0xFFFFFFFF MUL NOT AND SWAP1 SSTORE PUSH1 0x1 DUP3 ADD PUSH1 0x0 PUSH2 0x6D6 SWAP2 SWAP1 PUSH2 0x1723 JUMP JUMPDEST PUSH1 0x2 DUP3 ADD PUSH1 0x0 PUSH2 0x100 EXP DUP2 SLOAD SWAP1 PUSH20 0xFFFFFFFFFFFFFFFFFFFFFFFFFFFFFFFFFFFFFFFF MUL NOT AND SWAP1 SSTORE PUSH1 0x3 DUP3 ADD PUSH1 0x0 PUSH2 0x100 EXP DUP2 SLOAD SWAP1 PUSH20 0xFFFFFFFFFFFFFFFFFFFFFFFFFFFFFFFFFFFFFFFF MUL NOT AND SWAP1 SSTORE PUSH1 0x3 DUP3 ADD PUSH1 0x14 PUSH2 0x100 EXP DUP2 SLOAD SWAP1 PUSH1 0xFF MUL NOT AND SWAP1 SSTORE POP POP DUP2 SWAP1 POP JUMPDEST SWAP3 SWAP2 POP POP JUMP JUMPDEST PUSH1 0x0 DUP2 DUP1 SLOAD SWAP1 POP DUP4 LT PUSH2 0x759 JUMPI DUP2 SWAP1 POP PUSH2 0x9F9 JUMP JUMPDEST PUSH1 0x0 DUP4 SWAP1 POP JUMPDEST PUSH1 0x1 DUP4 DUP1 SLOAD SWAP1 POP PUSH2 0x770 SWAP2 SWAP1 PUSH2 0x2723 JUMP JUMPDEST DUP2 LT ISZERO PUSH2 0x937 JUMPI DUP3 PUSH1 0x1 DUP3 PUSH2 0x785 SWAP2 SWAP1 PUSH2 0x26CD JUMP JUMPDEST DUP2 SLOAD DUP2 LT PUSH2 0x796 JUMPI PUSH2 0x795 PUSH2 0x29AE JUMP JUMPDEST JUMPDEST SWAP1 PUSH1 0x0 MSTORE PUSH1 0x20 PUSH1 0x0 KECCAK256 SWAP1 PUSH1 0x4 MUL ADD DUP4 DUP3 DUP2 SLOAD DUP2 LT PUSH2 0x7B7 JUMPI PUSH2 0x7B6 PUSH2 0x29AE JUMP JUMPDEST JUMPDEST SWAP1 PUSH1 0x0 MSTORE PUSH1 0x20 PUSH1 0x0 KECCAK256 SWAP1 PUSH1 0x4 MUL ADD PUSH1 0x0 DUP3 ADD PUSH1 0x0 SWAP1 SLOAD SWAP1 PUSH2 0x100 EXP SWAP1 DIV PUSH1 0xE0 SHL DUP2 PUSH1 0x0 ADD PUSH1 0x0 PUSH2 0x100 EXP DUP2 SLOAD DUP2 PUSH4 0xFFFFFFFF MUL NOT AND SWAP1 DUP4 PUSH1 0xE0 SHR MUL OR SWAP1 SSTORE POP PUSH1 0x1 DUP3 ADD DUP2 PUSH1 0x1 ADD SWAP1 DUP1 SLOAD PUSH2 0x80A SWAP1 PUSH2 0x2875 JUMP JUMPDEST PUSH2 0x815 SWAP3 SWAP2 SWAP1 PUSH2 0x1696 JUMP JUMPDEST POP PUSH1 0x2 DUP3 ADD PUSH1 0x0 SWAP1 SLOAD SWAP1 PUSH2 0x100 EXP SWAP1 DIV PUSH20 0xFFFFFFFFFFFFFFFFFFFFFFFFFFFFFFFFFFFFFFFF AND DUP2 PUSH1 0x2 ADD PUSH1 0x0 PUSH2 0x100 EXP DUP2 SLOAD DUP2 PUSH20 0xFFFFFFFFFFFFFFFFFFFFFFFFFFFFFFFFFFFFFFFF MUL NOT AND SWAP1 DUP4 PUSH20 0xFFFFFFFFFFFFFFFFFFFFFFFFFFFFFFFFFFFFFFFF AND MUL OR SWAP1 SSTORE POP PUSH1 0x3 DUP3 ADD PUSH1 0x0 SWAP1 SLOAD SWAP1 PUSH2 0x100 EXP SWAP1 DIV PUSH20 0xFFFFFFFFFFFFFFFFFFFFFFFFFFFFFFFFFFFFFFFF AND DUP2 PUSH1 0x3 ADD PUSH1 0x0 PUSH2 0x100 EXP DUP2 SLOAD DUP2 PUSH20 0xFFFFFFFFFFFFFFFFFFFFFFFFFFFFFFFFFFFFFFFF MUL NOT AND SWAP1 DUP4 PUSH20 0xFFFFFFFFFFFFFFFFFFFFFFFFFFFFFFFFFFFFFFFF AND MUL OR SWAP1 SSTORE POP PUSH1 0x3 DUP3 ADD PUSH1 0x14 SWAP1 SLOAD SWAP1 PUSH2 0x100 EXP SWAP1 DIV PUSH1 0xFF AND DUP2 PUSH1 0x3 ADD PUSH1 0x14 PUSH2 0x100 EXP DUP2 SLOAD DUP2 PUSH1 0xFF MUL NOT AND SWAP1 DUP4 PUSH1 0x3 DUP2 GT ISZERO PUSH2 0x91C JUMPI PUSH2 0x91B PUSH2 0x2950 JUMP JUMPDEST JUMPDEST MUL OR SWAP1 SSTORE POP SWAP1 POP POP DUP1 DUP1 PUSH2 0x92F SWAP1 PUSH2 0x28D8 JUMP JUMPDEST SWAP2 POP POP PUSH2 0x75F JUMP JUMPDEST POP DUP2 PUSH1 0x1 DUP4 DUP1 SLOAD SWAP1 POP PUSH2 0x94A SWAP2 SWAP1 PUSH2 0x2723 JUMP JUMPDEST DUP2 SLOAD DUP2 LT PUSH2 0x95B JUMPI PUSH2 0x95A PUSH2 0x29AE JUMP JUMPDEST JUMPDEST SWAP1 PUSH1 0x0 MSTORE PUSH1 0x20 PUSH1 0x0 KECCAK256 SWAP1 PUSH1 0x4 MUL ADD PUSH1 0x0 DUP1 DUP3 ADD PUSH1 0x0 PUSH2 0x100 EXP DUP2 SLOAD SWAP1 PUSH4 0xFFFFFFFF MUL NOT AND SWAP1 SSTORE PUSH1 0x1 DUP3 ADD PUSH1 0x0 PUSH2 0x991 SWAP2 SWAP1 PUSH2 0x1723 JUMP JUMPDEST PUSH1 0x2 DUP3 ADD PUSH1 0x0 PUSH2 0x100 EXP DUP2 SLOAD SWAP1 PUSH20 0xFFFFFFFFFFFFFFFFFFFFFFFFFFFFFFFFFFFFFFFF MUL NOT AND SWAP1 SSTORE PUSH1 0x3 DUP3 ADD PUSH1 0x0 PUSH2 0x100 EXP DUP2 SLOAD SWAP1 PUSH20 0xFFFFFFFFFFFFFFFFFFFFFFFFFFFFFFFFFFFFFFFF MUL NOT AND SWAP1 SSTORE PUSH1 0x3 DUP3 ADD PUSH1 0x14 PUSH2 0x100 EXP DUP2 SLOAD SWAP1 PUSH1 0xFF MUL NOT AND SWAP1 SSTORE POP POP DUP2 SWAP1 POP JUMPDEST SWAP3 SWAP2 POP POP JUMP JUMPDEST PUSH1 0x0 PUSH1 0x60 PUSH1 0x0 JUMPDEST DUP4 MLOAD DUP2 LT ISZERO PUSH2 0xB36 JUMPI PUSH1 0x0 DUP5 DUP3 DUP2 MLOAD DUP2 LT PUSH2 0xA24 JUMPI PUSH2 0xA23 PUSH2 0x29AE JUMP JUMPDEST JUMPDEST PUSH1 0x20 MUL PUSH1 0x20 ADD ADD MLOAD SWAP1 POP DUP1 PUSH1 0x0 ADD MLOAD PUSH28 0xFFFFFFFFFFFFFFFFFFFFFFFFFFFFFFFFFFFFFFFFFFFFFFFFFFFFFFFF NOT AND DUP7 PUSH1 0x40 ADD MLOAD PUSH28 0xFFFFFFFFFFFFFFFFFFFFFFFFFFFFFFFFFFFFFFFFFFFFFFFFFFFFFFFF NOT AND EQ DUP1 PUSH2 0xA90 JUMPI POP PUSH2 0xA8F DUP7 PUSH1 0x80 ADD MLOAD DUP3 PUSH1 0x20 ADD MLOAD PUSH2 0x152D JUMP JUMPDEST JUMPDEST ISZERO PUSH2 0xB22 JUMPI DUP1 PUSH1 0x40 ADD MLOAD PUSH20 0xFFFFFFFFFFFFFFFFFFFFFFFFFFFFFFFFFFFFFFFF AND DUP7 PUSH1 0x0 ADD MLOAD PUSH20 0xFFFFFFFFFFFFFFFFFFFFFFFFFFFFFFFFFFFFFFFF AND EQ DUP1 PUSH2 0xB0A JUMPI POP DUP1 PUSH1 0x60 ADD MLOAD PUSH20 0xFFFFFFFFFFFFFFFFFFFFFFFFFFFFFFFFFFFFFFFF AND DUP7 PUSH1 0x20 ADD MLOAD PUSH20 0xFFFFFFFFFFFFFFFFFFFFFFFFFFFFFFFFFFFFFFFF AND EQ JUMPDEST ISZERO PUSH2 0xB21 JUMPI PUSH1 0x1 DUP2 PUSH1 0x80 ADD MLOAD SWAP4 POP SWAP4 POP POP POP PUSH2 0xB92 JUMP JUMPDEST JUMPDEST POP DUP1 DUP1 PUSH2 0xB2E SWAP1 PUSH2 0x28D8 JUMP JUMPDEST SWAP2 POP POP PUSH2 0xA06 JUMP JUMPDEST POP PUSH1 0x60 PUSH1 0x0 DUP2 PUSH1 0x0 DUP2 MLOAD DUP2 LT PUSH2 0xB4F JUMPI PUSH2 0xB4E PUSH2 0x29AE JUMP JUMPDEST JUMPDEST PUSH1 0x20 MUL PUSH1 0x20 ADD ADD SWAP1 PUSH20 0xFFFFFFFFFFFFFFFFFFFFFFFFFFFFFFFFFFFFFFFF AND SWAP1 DUP2 PUSH20 0xFFFFFFFFFFFFFFFFFFFFFFFFFFFFFFFFFFFFFFFF AND DUP2 MSTORE POP POP PUSH1 0x0 DUP2 SWAP3 POP SWAP3 POP POP JUMPDEST SWAP3 POP SWAP3 SWAP1 POP JUMP JUMPDEST PUSH1 0x0 DUP1 PUSH1 0x40 MLOAD DUP1 PUSH1 0xA0 ADD PUSH1 0x40 MSTORE DUP1 DUP9 PUSH28 0xFFFFFFFFFFFFFFFFFFFFFFFFFFFFFFFFFFFFFFFFFFFFFFFFFFFFFFFF NOT AND DUP2 MSTORE PUSH1 0x20 ADD DUP8 DUP2 MSTORE PUSH1 0x20 ADD DUP7 PUSH20 0xFFFFFFFFFFFFFFFFFFFFFFFFFFFFFFFFFFFFFFFF AND DUP2 MSTORE PUSH1 0x20 ADD DUP6 PUSH20 0xFFFFFFFFFFFFFFFFFFFFFFFFFFFFFFFFFFFFFFFF AND DUP2 MSTORE PUSH1 0x20 ADD DUP5 PUSH1 0x2 DUP2 GT ISZERO PUSH2 0xC1D JUMPI PUSH2 0xC1C PUSH2 0x2950 JUMP JUMPDEST JUMPDEST DUP2 MSTORE POP SWAP1 POP DUP8 DUP2 SWAP1 DUP1 PUSH1 0x1 DUP2 SLOAD ADD DUP1 DUP3 SSTORE DUP1 SWAP2 POP POP PUSH1 0x1 SWAP1 SUB SWAP1 PUSH1 0x0 MSTORE PUSH1 0x20 PUSH1 0x0 KECCAK256 SWAP1 PUSH1 0x4 MUL ADD PUSH1 0x0 SWAP1 SWAP2 SWAP1 SWAP2 SWAP1 SWAP2 POP PUSH1 0x0 DUP3 ADD MLOAD DUP2 PUSH1 0x0 ADD PUSH1 0x0 PUSH2 0x100 EXP DUP2 SLOAD DUP2 PUSH4 0xFFFFFFFF MUL NOT AND SWAP1 DUP4 PUSH1 0xE0 SHR MUL OR SWAP1 SSTORE POP PUSH1 0x20 DUP3 ADD MLOAD DUP2 PUSH1 0x1 ADD SWAP1 DUP1 MLOAD SWAP1 PUSH1 0x20 ADD SWAP1 PUSH2 0xC8D SWAP3 SWAP2 SWAP1 PUSH2 0x1586 JUMP JUMPDEST POP PUSH1 0x40 DUP3 ADD MLOAD DUP2 PUSH1 0x2 ADD PUSH1 0x0 PUSH2 0x100 EXP DUP2 SLOAD DUP2 PUSH20 0xFFFFFFFFFFFFFFFFFFFFFFFFFFFFFFFFFFFFFFFF MUL NOT AND SWAP1 DUP4 PUSH20 0xFFFFFFFFFFFFFFFFFFFFFFFFFFFFFFFFFFFFFFFF AND MUL OR SWAP1 SSTORE POP PUSH1 0x60 DUP3 ADD MLOAD DUP2 PUSH1 0x3 ADD PUSH1 0x0 PUSH2 0x100 EXP DUP2 SLOAD DUP2 PUSH20 0xFFFFFFFFFFFFFFFFFFFFFFFFFFFFFFFFFFFFFFFF MUL NOT AND SWAP1 DUP4 PUSH20 0xFFFFFFFFFFFFFFFFFFFFFFFFFFFFFFFFFFFFFFFF AND MUL OR SWAP1 SSTORE POP PUSH1 0x80 DUP3 ADD MLOAD DUP2 PUSH1 0x3 ADD PUSH1 0x14 PUSH2 0x100 EXP DUP2 SLOAD DUP2 PUSH1 0xFF MUL NOT AND SWAP1 DUP4 PUSH1 0x2 DUP2 GT ISZERO PUSH2 0xD47 JUMPI PUSH2 0xD46 PUSH2 0x2950 JUMP JUMPDEST JUMPDEST MUL OR SWAP1 SSTORE POP POP POP DUP8 SWAP2 POP POP SWAP7 SWAP6 POP POP POP POP POP POP JUMP JUMPDEST PUSH1 0x0 DUP1 PUSH1 0x0 JUMPDEST DUP4 MLOAD DUP2 LT ISZERO PUSH2 0xE92 JUMPI PUSH1 0x0 DUP5 DUP3 DUP2 MLOAD DUP2 LT PUSH2 0xD80 JUMPI PUSH2 0xD7F PUSH2 0x29AE JUMP JUMPDEST JUMPDEST PUSH1 0x20 MUL PUSH1 0x20 ADD ADD MLOAD SWAP1 POP DUP1 PUSH1 0x0 ADD MLOAD PUSH28 0xFFFFFFFFFFFFFFFFFFFFFFFFFFFFFFFFFFFFFFFFFFFFFFFFFFFFFFFF NOT AND DUP7 PUSH1 0x40 ADD MLOAD PUSH28 0xFFFFFFFFFFFFFFFFFFFFFFFFFFFFFFFFFFFFFFFFFFFFFFFFFFFFFFFF NOT AND EQ DUP1 PUSH2 0xDEC JUMPI POP PUSH2 0xDEB DUP7 PUSH1 0x80 ADD MLOAD DUP3 PUSH1 0x20 ADD MLOAD PUSH2 0x152D JUMP JUMPDEST JUMPDEST ISZERO PUSH2 0xE7E JUMPI DUP1 PUSH1 0x40 ADD MLOAD PUSH20 0xFFFFFFFFFFFFFFFFFFFFFFFFFFFFFFFFFFFFFFFF AND DUP7 PUSH1 0x0 ADD MLOAD PUSH20 0xFFFFFFFFFFFFFFFFFFFFFFFFFFFFFFFFFFFFFFFF AND EQ DUP1 PUSH2 0xE66 JUMPI POP DUP1 PUSH1 0x60 ADD MLOAD PUSH20 0xFFFFFFFFFFFFFFFFFFFFFFFFFFFFFFFFFFFFFFFF AND DUP7 PUSH1 0x20 ADD MLOAD PUSH20 0xFFFFFFFFFFFFFFFFFFFFFFFFFFFFFFFFFFFFFFFF AND EQ JUMPDEST ISZERO PUSH2 0xE7D JUMPI PUSH1 0x1 DUP2 PUSH1 0x80 ADD MLOAD SWAP4 POP SWAP4 POP POP POP PUSH2 0xE9C JUMP JUMPDEST JUMPDEST POP DUP1 DUP1 PUSH2 0xE8A SWAP1 PUSH2 0x28D8 JUMP JUMPDEST SWAP2 POP POP PUSH2 0xD62 JUMP JUMPDEST POP PUSH1 0x1 PUSH1 0x3 SWAP2 POP SWAP2 POP JUMPDEST SWAP3 POP SWAP3 SWAP1 POP JUMP JUMPDEST PUSH1 0x0 DUP1 PUSH1 0x0 JUMPDEST DUP4 MLOAD DUP2 LT ISZERO PUSH2 0x104E JUMPI PUSH1 0x0 DUP5 DUP3 DUP2 MLOAD DUP2 LT PUSH2 0xEC7 JUMPI PUSH2 0xEC6 PUSH2 0x29AE JUMP JUMPDEST JUMPDEST PUSH1 0x20 MUL PUSH1 0x20 ADD ADD MLOAD SWAP1 POP DUP1 PUSH1 0x0 ADD MLOAD PUSH28 0xFFFFFFFFFFFFFFFFFFFFFFFFFFFFFFFFFFFFFFFFFFFFFFFFFFFFFFFF NOT AND DUP7 PUSH1 0x40 ADD MLOAD PUSH28 0xFFFFFFFFFFFFFFFFFFFFFFFFFFFFFFFFFFFFFFFFFFFFFFFFFFFFFFFF NOT AND EQ DUP1 PUSH2 0xF33 JUMPI POP PUSH2 0xF32 DUP7 PUSH1 0x80 ADD MLOAD DUP3 PUSH1 0x20 ADD MLOAD PUSH2 0x152D JUMP JUMPDEST JUMPDEST ISZERO PUSH2 0x103A JUMPI DUP1 PUSH1 0x40 ADD MLOAD PUSH20 0xFFFFFFFFFFFFFFFFFFFFFFFFFFFFFFFFFFFFFFFF AND DUP7 PUSH1 0x0 ADD MLOAD PUSH20 0xFFFFFFFFFFFFFFFFFFFFFFFFFFFFFFFFFFFFFFFF AND EQ DUP1 PUSH2 0xFAD JUMPI POP DUP1 PUSH1 0x60 ADD MLOAD PUSH20 0xFFFFFFFFFFFFFFFFFFFFFFFFFFFFFFFFFFFFFFFF AND DUP7 PUSH1 0x20 ADD MLOAD PUSH20 0xFFFFFFFFFFFFFFFFFFFFFFFFFFFFFFFFFFFFFFFF AND EQ JUMPDEST ISZERO PUSH2 0x1039 JUMPI PUSH1 0x0 PUSH1 0x2 DUP2 GT ISZERO PUSH2 0xFC6 JUMPI PUSH2 0xFC5 PUSH2 0x2950 JUMP JUMPDEST JUMPDEST DUP2 PUSH1 0x80 ADD MLOAD PUSH1 0x2 DUP2 GT ISZERO PUSH2 0xFDD JUMPI PUSH2 0xFDC PUSH2 0x2950 JUMP JUMPDEST JUMPDEST EQ ISZERO PUSH2 0xFF5 JUMPI PUSH1 0x0 DUP2 PUSH1 0x80 ADD MLOAD SWAP4 POP SWAP4 POP POP POP PUSH2 0x1058 JUMP JUMPDEST PUSH1 0x1 PUSH1 0x2 DUP2 GT ISZERO PUSH2 0x1009 JUMPI PUSH2 0x1008 PUSH2 0x2950 JUMP JUMPDEST JUMPDEST DUP2 PUSH1 0x80 ADD MLOAD PUSH1 0x2 DUP2 GT ISZERO PUSH2 0x1020 JUMPI PUSH2 0x101F PUSH2 0x2950 JUMP JUMPDEST JUMPDEST EQ ISZERO PUSH2 0x1038 JUMPI PUSH1 0x1 DUP2 PUSH1 0x80 ADD MLOAD SWAP4 POP SWAP4 POP POP POP PUSH2 0x1058 JUMP JUMPDEST JUMPDEST JUMPDEST POP DUP1 DUP1 PUSH2 0x1046 SWAP1 PUSH2 0x28D8 JUMP JUMPDEST SWAP2 POP POP PUSH2 0xEA9 JUMP JUMPDEST POP PUSH1 0x1 PUSH1 0x2 SWAP2 POP SWAP2 POP JUMPDEST SWAP3 POP SWAP3 SWAP1 POP JUMP JUMPDEST PUSH1 0x0 DUP2 DUP1 SLOAD SWAP1 POP DUP4 LT PUSH2 0x1074 JUMPI DUP2 SWAP1 POP PUSH2 0x12EA JUMP JUMPDEST PUSH1 0x0 DUP4 SWAP1 POP JUMPDEST PUSH1 0x1 DUP4 DUP1 SLOAD SWAP1 POP PUSH2 0x108B SWAP2 SWAP1 PUSH2 0x2723 JUMP JUMPDEST DUP2 LT ISZERO PUSH2 0x122C JUMPI DUP3 PUSH1 0x1 DUP3 PUSH2 0x10A0 SWAP2 SWAP1 PUSH2 0x26CD JUMP JUMPDEST DUP2 SLOAD DUP2 LT PUSH2 0x10B1 JUMPI PUSH2 0x10B0 PUSH2 0x29AE JUMP JUMPDEST JUMPDEST SWAP1 PUSH1 0x0 MSTORE PUSH1 0x20 PUSH1 0x0 KECCAK256 SWAP1 PUSH1 0x5 MUL ADD DUP4 DUP3 DUP2 SLOAD DUP2 LT PUSH2 0x10D2 JUMPI PUSH2 0x10D1 PUSH2 0x29AE JUMP JUMPDEST JUMPDEST SWAP1 PUSH1 0x0 MSTORE PUSH1 0x20 PUSH1 0x0 KECCAK256 SWAP1 PUSH1 0x5 MUL ADD PUSH1 0x0 DUP3 ADD PUSH1 0x0 SWAP1 SLOAD SWAP1 PUSH2 0x100 EXP SWAP1 DIV PUSH1 0xE0 SHL DUP2 PUSH1 0x0 ADD PUSH1 0x0 PUSH2 0x100 EXP DUP2 SLOAD DUP2 PUSH4 0xFFFFFFFF MUL NOT AND SWAP1 DUP4 PUSH1 0xE0 SHR MUL OR SWAP1 SSTORE POP PUSH1 0x1 DUP3 ADD DUP2 PUSH1 0x1 ADD SWAP1 DUP1 SLOAD PUSH2 0x1125 SWAP1 PUSH2 0x2875 JUMP JUMPDEST PUSH2 0x1130 SWAP3 SWAP2 SWAP1 PUSH2 0x1696 JUMP JUMPDEST POP PUSH1 0x2 DUP3 ADD PUSH1 0x0 SWAP1 SLOAD SWAP1 PUSH2 0x100 EXP SWAP1 DIV PUSH20 0xFFFFFFFFFFFFFFFFFFFFFFFFFFFFFFFFFFFFFFFF AND DUP2 PUSH1 0x2 ADD PUSH1 0x0 PUSH2 0x100 EXP DUP2 SLOAD DUP2 PUSH20 0xFFFFFFFFFFFFFFFFFFFFFFFFFFFFFFFFFFFFFFFF MUL NOT AND SWAP1 DUP4 PUSH20 0xFFFFFFFFFFFFFFFFFFFFFFFFFFFFFFFFFFFFFFFF AND MUL OR SWAP1 SSTORE POP PUSH1 0x3 DUP3 ADD PUSH1 0x0 SWAP1 SLOAD SWAP1 PUSH2 0x100 EXP SWAP1 DIV PUSH20 0xFFFFFFFFFFFFFFFFFFFFFFFFFFFFFFFFFFFFFFFF AND DUP2 PUSH1 0x3 ADD PUSH1 0x0 PUSH2 0x100 EXP DUP2 SLOAD DUP2 PUSH20 0xFFFFFFFFFFFFFFFFFFFFFFFFFFFFFFFFFFFFFFFF MUL NOT AND SWAP1 DUP4 PUSH20 0xFFFFFFFFFFFFFFFFFFFFFFFFFFFFFFFFFFFFFFFF AND MUL OR SWAP1 SSTORE POP PUSH1 0x4 DUP3 ADD DUP2 PUSH1 0x4 ADD SWAP1 DUP1 SLOAD PUSH2 0x1215 SWAP3 SWAP2 SWAP1 PUSH2 0x1763 JUMP JUMPDEST POP SWAP1 POP POP DUP1 DUP1 PUSH2 0x1224 SWAP1 PUSH2 0x28D8 JUMP JUMPDEST SWAP2 POP POP PUSH2 0x107A JUMP JUMPDEST POP DUP2 PUSH1 0x1 DUP4 DUP1 SLOAD SWAP1 POP PUSH2 0x123F SWAP2 SWAP1 PUSH2 0x2723 JUMP JUMPDEST DUP2 SLOAD DUP2 LT PUSH2 0x1250 JUMPI PUSH2 0x124F PUSH2 0x29AE JUMP JUMPDEST JUMPDEST SWAP1 PUSH1 0x0 MSTORE PUSH1 0x20 PUSH1 0x0 KECCAK256 SWAP1 PUSH1 0x5 MUL ADD PUSH1 0x0 DUP1 DUP3 ADD PUSH1 0x0 PUSH2 0x100 EXP DUP2 SLOAD SWAP1 PUSH4 0xFFFFFFFF MUL NOT AND SWAP1 SSTORE PUSH1 0x1 DUP3 ADD PUSH1 0x0 PUSH2 0x1286 SWAP2 SWAP1 PUSH2 0x1723 JUMP JUMPDEST PUSH1 0x2 DUP3 ADD PUSH1 0x0 PUSH2 0x100 EXP DUP2 SLOAD SWAP1 PUSH20 0xFFFFFFFFFFFFFFFFFFFFFFFFFFFFFFFFFFFFFFFF MUL NOT AND SWAP1 SSTORE PUSH1 0x3 DUP3 ADD PUSH1 0x0 PUSH2 0x100 EXP DUP2 SLOAD SWAP1 PUSH20 0xFFFFFFFFFFFFFFFFFFFFFFFFFFFFFFFFFFFFFFFF MUL NOT AND SWAP1 SSTORE PUSH1 0x4 DUP3 ADD PUSH1 0x0 PUSH2 0x12E4 SWAP2 SWAP1 PUSH2 0x17B5 JUMP JUMPDEST POP POP DUP2 SWAP1 POP JUMPDEST SWAP3 SWAP2 POP POP JUMP JUMPDEST PUSH1 0x0 DUP1 PUSH1 0x40 MLOAD DUP1 PUSH1 0xA0 ADD PUSH1 0x40 MSTORE DUP1 DUP9 PUSH28 0xFFFFFFFFFFFFFFFFFFFFFFFFFFFFFFFFFFFFFFFFFFFFFFFFFFFFFFFF NOT AND DUP2 MSTORE PUSH1 0x20 ADD DUP8 DUP2 MSTORE PUSH1 0x20 ADD DUP7 PUSH20 0xFFFFFFFFFFFFFFFFFFFFFFFFFFFFFFFFFFFFFFFF AND DUP2 MSTORE PUSH1 0x20 ADD DUP6 PUSH20 0xFFFFFFFFFFFFFFFFFFFFFFFFFFFFFFFFFFFFFFFF AND DUP2 MSTORE PUSH1 0x20 ADD DUP5 PUSH1 0x3 DUP2 GT ISZERO PUSH2 0x1374 JUMPI PUSH2 0x1373 PUSH2 0x2950 JUMP JUMPDEST JUMPDEST DUP2 MSTORE POP SWAP1 POP DUP8 DUP2 SWAP1 DUP1 PUSH1 0x1 DUP2 SLOAD ADD DUP1 DUP3 SSTORE DUP1 SWAP2 POP POP PUSH1 0x1 SWAP1 SUB SWAP1 PUSH1 0x0 MSTORE PUSH1 0x20 PUSH1 0x0 KECCAK256 SWAP1 PUSH1 0x4 MUL ADD PUSH1 0x0 SWAP1 SWAP2 SWAP1 SWAP2 SWAP1 SWAP2 POP PUSH1 0x0 DUP3 ADD MLOAD DUP2 PUSH1 0x0 ADD PUSH1 0x0 PUSH2 0x100 EXP DUP2 SLOAD DUP2 PUSH4 0xFFFFFFFF MUL NOT AND SWAP1 DUP4 PUSH1 0xE0 SHR MUL OR SWAP1 SSTORE POP PUSH1 0x20 DUP3 ADD MLOAD DUP2 PUSH1 0x1 ADD SWAP1 DUP1 MLOAD SWAP1 PUSH1 0x20 ADD SWAP1 PUSH2 0x13E4 SWAP3 SWAP2 SWAP1 PUSH2 0x1586 JUMP JUMPDEST POP PUSH1 0x40 DUP3 ADD MLOAD DUP2 PUSH1 0x2 ADD PUSH1 0x0 PUSH2 0x100 EXP DUP2 SLOAD DUP2 PUSH20 0xFFFFFFFFFFFFFFFFFFFFFFFFFFFFFFFFFFFFFFFF MUL NOT AND SWAP1 DUP4 PUSH20 0xFFFFFFFFFFFFFFFFFFFFFFFFFFFFFFFFFFFFFFFF AND MUL OR SWAP1 SSTORE POP PUSH1 0x60 DUP3 ADD MLOAD DUP2 PUSH1 0x3 ADD PUSH1 0x0 PUSH2 0x100 EXP DUP2 SLOAD DUP2 PUSH20 0xFFFFFFFFFFFFFFFFFFFFFFFFFFFFFFFFFFFFFFFF MUL NOT AND SWAP1 DUP4 PUSH20 0xFFFFFFFFFFFFFFFFFFFFFFFFFFFFFFFFFFFFFFFF AND MUL OR SWAP1 SSTORE POP PUSH1 0x80 DUP3 ADD MLOAD DUP2 PUSH1 0x3 ADD PUSH1 0x14 PUSH2 0x100 EXP DUP2 SLOAD DUP2 PUSH1 0xFF MUL NOT AND SWAP1 DUP4 PUSH1 0x3 DUP2 GT ISZERO PUSH2 0x149E JUMPI PUSH2 0x149D PUSH2 0x2950 JUMP JUMPDEST JUMPDEST MUL OR SWAP1 SSTORE POP POP POP DUP8 SWAP2 POP POP SWAP7 SWAP6 POP POP POP POP POP POP JUMP JUMPDEST PUSH1 0x0 DUP1 PUSH1 0xE0 SHL DUP7 PUSH28 0xFFFFFFFFFFFFFFFFFFFFFFFFFFFFFFFFFFFFFFFFFFFFFFFFFFFFFFFF NOT AND EQ PUSH2 0x151F JUMPI DUP6 DUP8 DUP10 DUP2 SLOAD DUP2 LT PUSH2 0x14F2 JUMPI PUSH2 0x14F1 PUSH2 0x29AE JUMP JUMPDEST JUMPDEST SWAP1 PUSH1 0x0 MSTORE PUSH1 0x20 PUSH1 0x0 KECCAK256 SWAP1 PUSH1 0x4 MUL ADD PUSH1 0x0 ADD PUSH1 0x0 PUSH2 0x100 EXP DUP2 SLOAD DUP2 PUSH4 0xFFFFFFFF MUL NOT AND SWAP1 DUP4 PUSH1 0xE0 SHR MUL OR SWAP1 SSTORE POP JUMPDEST DUP7 SWAP1 POP SWAP8 SWAP7 POP POP POP POP POP POP POP JUMP JUMPDEST PUSH1 0x0 DUP2 PUSH1 0x40 MLOAD PUSH1 0x20 ADD PUSH2 0x1540 SWAP2 SWAP1 PUSH2 0x248E JUMP JUMPDEST PUSH1 0x40 MLOAD PUSH1 0x20 DUP2 DUP4 SUB SUB DUP2 MSTORE SWAP1 PUSH1 0x40 MSTORE DUP1 MLOAD SWAP1 PUSH1 0x20 ADD KECCAK256 DUP4 PUSH1 0x40 MLOAD PUSH1 0x20 ADD PUSH2 0x1567 SWAP2 SWAP1 PUSH2 0x248E JUMP JUMPDEST PUSH1 0x40 MLOAD PUSH1 0x20 DUP2 DUP4 SUB SUB DUP2 MSTORE SWAP1 PUSH1 0x40 MSTORE DUP1 MLOAD SWAP1 PUSH1 0x20 ADD KECCAK256 EQ SWAP1 POP SWAP3 SWAP2 POP POP JUMP JUMPDEST DUP3 DUP1 SLOAD PUSH2 0x1592 SWAP1 PUSH2 0x2875 JUMP JUMPDEST SWAP1 PUSH1 0x0 MSTORE PUSH1 0x20 PUSH1 0x0 KECCAK256 SWAP1 PUSH1 0x1F ADD PUSH1 0x20 SWAP1 DIV DUP2 ADD SWAP3 DUP3 PUSH2 0x15B4 JUMPI PUSH1 0x0 DUP6 SSTORE PUSH2 0x15FB JUMP JUMPDEST DUP3 PUSH1 0x1F LT PUSH2 0x15CD JUMPI DUP1 MLOAD PUSH1 0xFF NOT AND DUP4 DUP1 ADD OR DUP6 SSTORE PUSH2 0x15FB JUMP JUMPDEST DUP3 DUP1 ADD PUSH1 0x1 ADD DUP6 SSTORE DUP3 ISZERO PUSH2 0x15FB JUMPI SWAP2 DUP3 ADD JUMPDEST DUP3 DUP2 GT ISZERO PUSH2 0x15FA JUMPI DUP3 MLOAD DUP3 SSTORE SWAP2 PUSH1 0x20 ADD SWAP2 SWAP1 PUSH1 0x1 ADD SWAP1 PUSH2 0x15DF JUMP JUMPDEST JUMPDEST POP SWAP1 POP PUSH2 0x1608 SWAP2 SWAP1 PUSH2 0x17D6 JUMP JUMPDEST POP SWAP1 JUMP JUMPDEST DUP3 DUP1 SLOAD DUP3 DUP3 SSTORE SWAP1 PUSH1 0x0 MSTORE PUSH1 0x20 PUSH1 0x0 KECCAK256 SWAP1 DUP2 ADD SWAP3 DUP3 ISZERO PUSH2 0x1685 JUMPI SWAP2 PUSH1 0x20 MUL DUP3 ADD JUMPDEST DUP3 DUP2 GT ISZERO PUSH2 0x1684 JUMPI DUP3 MLOAD DUP3 PUSH1 0x0 PUSH2 0x100 EXP DUP2 SLOAD DUP2 PUSH20 0xFFFFFFFFFFFFFFFFFFFFFFFFFFFFFFFFFFFFFFFF MUL NOT AND SWAP1 DUP4 PUSH20 0xFFFFFFFFFFFFFFFFFFFFFFFFFFFFFFFFFFFFFFFF AND MUL OR SWAP1 SSTORE POP SWAP2 PUSH1 0x20 ADD SWAP2 SWAP1 PUSH1 0x1 ADD SWAP1 PUSH2 0x162C JUMP JUMPDEST JUMPDEST POP SWAP1 POP PUSH2 0x1692 SWAP2 SWAP1 PUSH2 0x17D6 JUMP JUMPDEST POP SWAP1 JUMP JUMPDEST DUP3 DUP1 SLOAD PUSH2 0x16A2 SWAP1 PUSH2 0x2875 JUMP JUMPDEST SWAP1 PUSH1 0x0 MSTORE PUSH1 0x20 PUSH1 0x0 KECCAK256 SWAP1 PUSH1 0x1F ADD PUSH1 0x20 SWAP1 DIV DUP2 ADD SWAP3 DUP3 PUSH2 0x16C4 JUMPI PUSH1 0x0 DUP6 SSTORE PUSH2 0x1712 JUMP JUMPDEST DUP3 PUSH1 0x1F LT PUSH2 0x16D5 JUMPI DUP1 SLOAD DUP6 SSTORE PUSH2 0x1712 JUMP JUMPDEST DUP3 DUP1 ADD PUSH1 0x1 ADD DUP6 SSTORE DUP3 ISZERO PUSH2 0x1712 JUMPI PUSH1 0x0 MSTORE PUSH1 0x20 PUSH1 0x0 KECCAK256 SWAP2 PUSH1 0x1F ADD PUSH1 0x20 SWAP1 DIV DUP3 ADD JUMPDEST DUP3 DUP2 GT ISZERO PUSH2 0x1711 JUMPI DUP3 SLOAD DUP3 SSTORE SWAP2 PUSH1 0x1 ADD SWAP2 SWAP1 PUSH1 0x1 ADD SWAP1 PUSH2 0x16F6 JUMP JUMPDEST JUMPDEST POP SWAP1 POP PUSH2 0x171F SWAP2 SWAP1 PUSH2 0x17D6 JUMP JUMPDEST POP SWAP1 JUMP JUMPDEST POP DUP1 SLOAD PUSH2 0x172F SWAP1 PUSH2 0x2875 JUMP JUMPDEST PUSH1 0x0 DUP3 SSTORE DUP1 PUSH1 0x1F LT PUSH2 0x1741 JUMPI POP PUSH2 0x1760 JUMP JUMPDEST PUSH1 0x1F ADD PUSH1 0x20 SWAP1 DIV SWAP1 PUSH1 0x0 MSTORE PUSH1 0x20 PUSH1 0x0 KECCAK256 SWAP1 DUP2 ADD SWAP1 PUSH2 0x175F SWAP2 SWAP1 PUSH2 0x17D6 JUMP JUMPDEST JUMPDEST POP JUMP JUMPDEST DUP3 DUP1 SLOAD DUP3 DUP3 SSTORE SWAP1 PUSH1 0x0 MSTORE PUSH1 0x20 PUSH1 0x0 KECCAK256 SWAP1 DUP2 ADD SWAP3 DUP3 ISZERO PUSH2 0x17A4 JUMPI PUSH1 0x0 MSTORE PUSH1 0x20 PUSH1 0x0 KECCAK256 SWAP2 DUP3 ADD JUMPDEST DUP3 DUP2 GT ISZERO PUSH2 0x17A3 JUMPI DUP3 SLOAD DUP3 SSTORE SWAP2 PUSH1 0x1 ADD SWAP2 SWAP1 PUSH1 0x1 ADD SWAP1 PUSH2 0x1788 JUMP JUMPDEST JUMPDEST POP SWAP1 POP PUSH2 0x17B1 SWAP2 SWAP1 PUSH2 0x17D6 JUMP JUMPDEST POP SWAP1 JUMP JUMPDEST POP DUP1 SLOAD PUSH1 0x0 DUP3 SSTORE SWAP1 PUSH1 0x0 MSTORE PUSH1 0x20 PUSH1 0x0 KECCAK256 SWAP1 DUP2 ADD SWAP1 PUSH2 0x17D3 SWAP2 SWAP1 PUSH2 0x17D6 JUMP JUMPDEST POP JUMP JUMPDEST JUMPDEST DUP1 DUP3 GT ISZERO PUSH2 0x17EF JUMPI PUSH1 0x0 DUP2 PUSH1 0x0 SWAP1 SSTORE POP PUSH1 0x1 ADD PUSH2 0x17D7 JUMP JUMPDEST POP SWAP1 JUMP JUMPDEST PUSH1 0x0 PUSH2 0x1806 PUSH2 0x1801 DUP5 PUSH2 0x259D JUMP JUMPDEST PUSH2 0x2578 JUMP JUMPDEST SWAP1 POP DUP1 DUP4 DUP3 MSTORE PUSH1 0x20 DUP3 ADD SWAP1 POP DUP3 DUP6 PUSH1 0x20 DUP7 MUL DUP3 ADD GT ISZERO PUSH2 0x1829 JUMPI PUSH2 0x1828 PUSH2 0x2A1B JUMP JUMPDEST JUMPDEST PUSH1 0x0 JUMPDEST DUP6 DUP2 LT ISZERO PUSH2 0x1859 JUMPI DUP2 PUSH2 0x183F DUP9 DUP3 PUSH2 0x1A4F JUMP JUMPDEST DUP5 MSTORE PUSH1 0x20 DUP5 ADD SWAP4 POP PUSH1 0x20 DUP4 ADD SWAP3 POP POP PUSH1 0x1 DUP2 ADD SWAP1 POP PUSH2 0x182C JUMP JUMPDEST POP POP POP SWAP4 SWAP3 POP POP POP JUMP JUMPDEST PUSH1 0x0 PUSH2 0x1876 PUSH2 0x1871 DUP5 PUSH2 0x25C9 JUMP JUMPDEST PUSH2 0x2578 JUMP JUMPDEST SWAP1 POP DUP1 DUP4 DUP3 MSTORE PUSH1 0x20 DUP3 ADD SWAP1 POP DUP3 DUP6 PUSH1 0x20 DUP7 MUL DUP3 ADD GT ISZERO PUSH2 0x1899 JUMPI PUSH2 0x1898 PUSH2 0x2A1B JUMP JUMPDEST JUMPDEST PUSH1 0x0 JUMPDEST DUP6 DUP2 LT ISZERO PUSH2 0x18E7 JUMPI DUP2 CALLDATALOAD PUSH8 0xFFFFFFFFFFFFFFFF DUP2 GT ISZERO PUSH2 0x18BF JUMPI PUSH2 0x18BE PUSH2 0x2A0C JUMP JUMPDEST JUMPDEST DUP1 DUP7 ADD PUSH2 0x18CC DUP10 DUP3 PUSH2 0x1BC8 JUMP JUMPDEST DUP6 MSTORE PUSH1 0x20 DUP6 ADD SWAP5 POP PUSH1 0x20 DUP5 ADD SWAP4 POP POP POP PUSH1 0x1 DUP2 ADD SWAP1 POP PUSH2 0x189C JUMP JUMPDEST POP POP POP SWAP4 SWAP3 POP POP POP JUMP JUMPDEST PUSH1 0x0 PUSH2 0x1904 PUSH2 0x18FF DUP5 PUSH2 0x25F5 JUMP JUMPDEST PUSH2 0x2578 JUMP JUMPDEST SWAP1 POP DUP1 DUP4 DUP3 MSTORE PUSH1 0x20 DUP3 ADD SWAP1 POP DUP3 DUP6 PUSH1 0x20 DUP7 MUL DUP3 ADD GT ISZERO PUSH2 0x1927 JUMPI PUSH2 0x1926 PUSH2 0x2A1B JUMP JUMPDEST JUMPDEST PUSH1 0x0 JUMPDEST DUP6 DUP2 LT ISZERO PUSH2 0x1975 JUMPI DUP2 CALLDATALOAD PUSH8 0xFFFFFFFFFFFFFFFF DUP2 GT ISZERO PUSH2 0x194D JUMPI PUSH2 0x194C PUSH2 0x2A0C JUMP JUMPDEST JUMPDEST DUP1 DUP7 ADD PUSH2 0x195A DUP10 DUP3 PUSH2 0x1C70 JUMP JUMPDEST DUP6 MSTORE PUSH1 0x20 DUP6 ADD SWAP5 POP PUSH1 0x20 DUP5 ADD SWAP4 POP POP POP PUSH1 0x1 DUP2 ADD SWAP1 POP PUSH2 0x192A JUMP JUMPDEST POP POP POP SWAP4 SWAP3 POP POP POP JUMP JUMPDEST PUSH1 0x0 PUSH2 0x1992 PUSH2 0x198D DUP5 PUSH2 0x2621 JUMP JUMPDEST PUSH2 0x2578 JUMP JUMPDEST SWAP1 POP DUP1 DUP4 DUP3 MSTORE PUSH1 0x20 DUP3 ADD SWAP1 POP DUP3 DUP6 PUSH1 0x20 DUP7 MUL DUP3 ADD GT ISZERO PUSH2 0x19B5 JUMPI PUSH2 0x19B4 PUSH2 0x2A1B JUMP JUMPDEST JUMPDEST PUSH1 0x0 JUMPDEST DUP6 DUP2 LT ISZERO PUSH2 0x1A03 JUMPI DUP2 CALLDATALOAD PUSH8 0xFFFFFFFFFFFFFFFF DUP2 GT ISZERO PUSH2 0x19DB JUMPI PUSH2 0x19DA PUSH2 0x2A0C JUMP JUMPDEST JUMPDEST DUP1 DUP7 ADD PUSH2 0x19E8 DUP10 DUP3 PUSH2 0x1D34 JUMP JUMPDEST DUP6 MSTORE PUSH1 0x20 DUP6 ADD SWAP5 POP PUSH1 0x20 DUP5 ADD SWAP4 POP POP POP PUSH1 0x1 DUP2 ADD SWAP1 POP PUSH2 0x19B8 JUMP JUMPDEST POP POP POP SWAP4 SWAP3 POP POP POP JUMP JUMPDEST PUSH1 0x0 PUSH2 0x1A20 PUSH2 0x1A1B DUP5 PUSH2 0x264D JUMP JUMPDEST PUSH2 0x2578 JUMP JUMPDEST SWAP1 POP DUP3 DUP2 MSTORE PUSH1 0x20 DUP2 ADD DUP5 DUP5 DUP5 ADD GT ISZERO PUSH2 0x1A3C JUMPI PUSH2 0x1A3B PUSH2 0x2A20 JUMP JUMPDEST JUMPDEST PUSH2 0x1A47 DUP5 DUP3 DUP6 PUSH2 0x2833 JUMP JUMPDEST POP SWAP4 SWAP3 POP POP POP JUMP JUMPDEST PUSH1 0x0 DUP2 CALLDATALOAD SWAP1 POP PUSH2 0x1A5E DUP2 PUSH2 0x2A68 JUMP JUMPDEST SWAP3 SWAP2 POP POP JUMP JUMPDEST PUSH1 0x0 DUP3 PUSH1 0x1F DUP4 ADD SLT PUSH2 0x1A79 JUMPI PUSH2 0x1A78 PUSH2 0x2A0C JUMP JUMPDEST JUMPDEST DUP2 CALLDATALOAD PUSH2 0x1A89 DUP5 DUP3 PUSH1 0x20 DUP7 ADD PUSH2 0x17F3 JUMP JUMPDEST SWAP2 POP POP SWAP3 SWAP2 POP POP JUMP JUMPDEST PUSH1 0x0 DUP3 PUSH1 0x1F DUP4 ADD SLT PUSH2 0x1AA7 JUMPI PUSH2 0x1AA6 PUSH2 0x2A0C JUMP JUMPDEST JUMPDEST DUP2 CALLDATALOAD PUSH2 0x1AB7 DUP5 DUP3 PUSH1 0x20 DUP7 ADD PUSH2 0x1863 JUMP JUMPDEST SWAP2 POP POP SWAP3 SWAP2 POP POP JUMP JUMPDEST PUSH1 0x0 DUP2 CALLDATALOAD SWAP1 POP PUSH2 0x1ACF DUP2 PUSH2 0x2A7F JUMP JUMPDEST SWAP3 SWAP2 POP POP JUMP JUMPDEST PUSH1 0x0 DUP3 PUSH1 0x1F DUP4 ADD SLT PUSH2 0x1AEA JUMPI PUSH2 0x1AE9 PUSH2 0x2A0C JUMP JUMPDEST JUMPDEST DUP2 CALLDATALOAD PUSH2 0x1AFA DUP5 DUP3 PUSH1 0x20 DUP7 ADD PUSH2 0x18F1 JUMP JUMPDEST SWAP2 POP POP SWAP3 SWAP2 POP POP JUMP JUMPDEST PUSH1 0x0 DUP2 CALLDATALOAD SWAP1 POP PUSH2 0x1B12 DUP2 PUSH2 0x2A96 JUMP JUMPDEST SWAP3 SWAP2 POP POP JUMP JUMPDEST PUSH1 0x0 DUP3 PUSH1 0x1F DUP4 ADD SLT PUSH2 0x1B2D JUMPI PUSH2 0x1B2C PUSH2 0x2A0C JUMP JUMPDEST JUMPDEST DUP2 CALLDATALOAD PUSH2 0x1B3D DUP5 DUP3 PUSH1 0x20 DUP7 ADD PUSH2 0x197F JUMP JUMPDEST SWAP2 POP POP SWAP3 SWAP2 POP POP JUMP JUMPDEST PUSH1 0x0 DUP2 CALLDATALOAD SWAP1 POP PUSH2 0x1B55 DUP2 PUSH2 0x2AAD JUMP JUMPDEST SWAP3 SWAP2 POP POP JUMP JUMPDEST PUSH1 0x0 DUP2 CALLDATALOAD SWAP1 POP PUSH2 0x1B6A DUP2 PUSH2 0x2AC4 JUMP JUMPDEST SWAP3 SWAP2 POP POP JUMP JUMPDEST PUSH1 0x0 DUP2 CALLDATALOAD SWAP1 POP PUSH2 0x1B7F DUP2 PUSH2 0x2ADB JUMP JUMPDEST SWAP3 SWAP2 POP POP JUMP JUMPDEST PUSH1 0x0 DUP2 CALLDATALOAD SWAP1 POP PUSH2 0x1B94 DUP2 PUSH2 0x2AEB JUMP JUMPDEST SWAP3 SWAP2 POP POP JUMP JUMPDEST PUSH1 0x0 DUP3 PUSH1 0x1F DUP4 ADD SLT PUSH2 0x1BAF JUMPI PUSH2 0x1BAE PUSH2 0x2A0C JUMP JUMPDEST JUMPDEST DUP2 CALLDATALOAD PUSH2 0x1BBF DUP5 DUP3 PUSH1 0x20 DUP7 ADD PUSH2 0x1A0D JUMP JUMPDEST SWAP2 POP POP SWAP3 SWAP2 POP POP JUMP JUMPDEST PUSH1 0x0 PUSH1 0xA0 DUP3 DUP5 SUB SLT ISZERO PUSH2 0x1BDE JUMPI PUSH2 0x1BDD PUSH2 0x2A11 JUMP JUMPDEST JUMPDEST PUSH2 0x1BE8 PUSH1 0xA0 PUSH2 0x2578 JUMP JUMPDEST SWAP1 POP PUSH1 0x0 PUSH2 0x1BF8 DUP5 DUP3 DUP6 ADD PUSH2 0x1B5B JUMP JUMPDEST PUSH1 0x0 DUP4 ADD MSTORE POP PUSH1 0x20 DUP3 ADD CALLDATALOAD PUSH8 0xFFFFFFFFFFFFFFFF DUP2 GT ISZERO PUSH2 0x1C1C JUMPI PUSH2 0x1C1B PUSH2 0x2A16 JUMP JUMPDEST JUMPDEST PUSH2 0x1C28 DUP5 DUP3 DUP6 ADD PUSH2 0x1B9A JUMP JUMPDEST PUSH1 0x20 DUP4 ADD MSTORE POP PUSH1 0x40 PUSH2 0x1C3C DUP5 DUP3 DUP6 ADD PUSH2 0x1A4F JUMP JUMPDEST PUSH1 0x40 DUP4 ADD MSTORE POP PUSH1 0x60 PUSH2 0x1C50 DUP5 DUP3 DUP6 ADD PUSH2 0x1A4F JUMP JUMPDEST PUSH1 0x60 DUP4 ADD MSTORE POP PUSH1 0x80 PUSH2 0x1C64 DUP5 DUP3 DUP6 ADD PUSH2 0x1B70 JUMP JUMPDEST PUSH1 0x80 DUP4 ADD MSTORE POP SWAP3 SWAP2 POP POP JUMP JUMPDEST PUSH1 0x0 PUSH1 0xA0 DUP3 DUP5 SUB SLT ISZERO PUSH2 0x1C86 JUMPI PUSH2 0x1C85 PUSH2 0x2A11 JUMP JUMPDEST JUMPDEST PUSH2 0x1C90 PUSH1 0xA0 PUSH2 0x2578 JUMP JUMPDEST SWAP1 POP PUSH1 0x0 PUSH2 0x1CA0 DUP5 DUP3 DUP6 ADD PUSH2 0x1B5B JUMP JUMPDEST PUSH1 0x0 DUP4 ADD MSTORE POP PUSH1 0x20 DUP3 ADD CALLDATALOAD PUSH8 0xFFFFFFFFFFFFFFFF DUP2 GT ISZERO PUSH2 0x1CC4 JUMPI PUSH2 0x1CC3 PUSH2 0x2A16 JUMP JUMPDEST JUMPDEST PUSH2 0x1CD0 DUP5 DUP3 DUP6 ADD PUSH2 0x1B9A JUMP JUMPDEST PUSH1 0x20 DUP4 ADD MSTORE POP PUSH1 0x40 PUSH2 0x1CE4 DUP5 DUP3 DUP6 ADD PUSH2 0x1A4F JUMP JUMPDEST PUSH1 0x40 DUP4 ADD MSTORE POP PUSH1 0x60 PUSH2 0x1CF8 DUP5 DUP3 DUP6 ADD PUSH2 0x1A4F JUMP JUMPDEST PUSH1 0x60 DUP4 ADD MSTORE POP PUSH1 0x80 DUP3 ADD CALLDATALOAD PUSH8 0xFFFFFFFFFFFFFFFF DUP2 GT ISZERO PUSH2 0x1D1C JUMPI PUSH2 0x1D1B PUSH2 0x2A16 JUMP JUMPDEST JUMPDEST PUSH2 0x1D28 DUP5 DUP3 DUP6 ADD PUSH2 0x1A64 JUMP JUMPDEST PUSH1 0x80 DUP4 ADD MSTORE POP SWAP3 SWAP2 POP POP JUMP JUMPDEST PUSH1 0x0 PUSH1 0xA0 DUP3 DUP5 SUB SLT ISZERO PUSH2 0x1D4A JUMPI PUSH2 0x1D49 PUSH2 0x2A11 JUMP JUMPDEST JUMPDEST PUSH2 0x1D54 PUSH1 0xA0 PUSH2 0x2578 JUMP JUMPDEST SWAP1 POP PUSH1 0x0 PUSH2 0x1D64 DUP5 DUP3 DUP6 ADD PUSH2 0x1B5B JUMP JUMPDEST PUSH1 0x0 DUP4 ADD MSTORE POP PUSH1 0x20 DUP3 ADD CALLDATALOAD PUSH8 0xFFFFFFFFFFFFFFFF DUP2 GT ISZERO PUSH2 0x1D88 JUMPI PUSH2 0x1D87 PUSH2 0x2A16 JUMP JUMPDEST JUMPDEST PUSH2 0x1D94 DUP5 DUP3 DUP6 ADD PUSH2 0x1B9A JUMP JUMPDEST PUSH1 0x20 DUP4 ADD MSTORE POP PUSH1 0x40 PUSH2 0x1DA8 DUP5 DUP3 DUP6 ADD PUSH2 0x1A4F JUMP JUMPDEST PUSH1 0x40 DUP4 ADD MSTORE POP PUSH1 0x60 PUSH2 0x1DBC DUP5 DUP3 DUP6 ADD PUSH2 0x1A4F JUMP JUMPDEST PUSH1 0x60 DUP4 ADD MSTORE POP PUSH1 0x80 PUSH2 0x1DD0 DUP5 DUP3 DUP6 ADD PUSH2 0x1B85 JUMP JUMPDEST PUSH1 0x80 DUP4 ADD MSTORE POP SWAP3 SWAP2 POP POP JUMP JUMPDEST PUSH1 0x0 PUSH1 0xA0 DUP3 DUP5 SUB SLT ISZERO PUSH2 0x1DF2 JUMPI PUSH2 0x1DF1 PUSH2 0x2A11 JUMP JUMPDEST JUMPDEST PUSH2 0x1DFC PUSH1 0xA0 PUSH2 0x2578 JUMP JUMPDEST SWAP1 POP PUSH1 0x0 PUSH2 0x1E0C DUP5 DUP3 DUP6 ADD PUSH2 0x1A4F JUMP JUMPDEST PUSH1 0x0 DUP4 ADD MSTORE POP PUSH1 0x20 PUSH2 0x1E20 DUP5 DUP3 DUP6 ADD PUSH2 0x1A4F JUMP JUMPDEST PUSH1 0x20 DUP4 ADD MSTORE POP PUSH1 0x40 PUSH2 0x1E34 DUP5 DUP3 DUP6 ADD PUSH2 0x1B5B JUMP JUMPDEST PUSH1 0x40 DUP4 ADD MSTORE POP PUSH1 0x60 PUSH2 0x1E48 DUP5 DUP3 DUP6 ADD PUSH2 0x1E84 JUMP JUMPDEST PUSH1 0x60 DUP4 ADD MSTORE POP PUSH1 0x80 DUP3 ADD CALLDATALOAD PUSH8 0xFFFFFFFFFFFFFFFF DUP2 GT ISZERO PUSH2 0x1E6C JUMPI PUSH2 0x1E6B PUSH2 0x2A16 JUMP JUMPDEST JUMPDEST PUSH2 0x1E78 DUP5 DUP3 DUP6 ADD PUSH2 0x1B9A JUMP JUMPDEST PUSH1 0x80 DUP4 ADD MSTORE POP SWAP3 SWAP2 POP POP JUMP JUMPDEST PUSH1 0x0 DUP2 CALLDATALOAD SWAP1 POP PUSH2 0x1E93 DUP2 PUSH2 0x2AFB JUMP JUMPDEST SWAP3 SWAP2 POP POP JUMP JUMPDEST PUSH1 0x0 DUP1 PUSH1 0x0 DUP1 PUSH1 0x0 DUP1 PUSH1 0xC0 DUP8 DUP10 SUB SLT ISZERO PUSH2 0x1EB6 JUMPI PUSH2 0x1EB5 PUSH2 0x2A2A JUMP JUMPDEST JUMPDEST PUSH1 0x0 PUSH2 0x1EC4 DUP10 DUP3 DUP11 ADD PUSH2 0x1AC0 JUMP JUMPDEST SWAP7 POP POP PUSH1 0x20 PUSH2 0x1ED5 DUP10 DUP3 DUP11 ADD PUSH2 0x1B5B JUMP JUMPDEST SWAP6 POP POP PUSH1 0x40 DUP8 ADD CALLDATALOAD PUSH8 0xFFFFFFFFFFFFFFFF DUP2 GT ISZERO PUSH2 0x1EF6 JUMPI PUSH2 0x1EF5 PUSH2 0x2A25 JUMP JUMPDEST JUMPDEST PUSH2 0x1F02 DUP10 DUP3 DUP11 ADD PUSH2 0x1B9A JUMP JUMPDEST SWAP5 POP POP PUSH1 0x60 PUSH2 0x1F13 DUP10 DUP3 DUP11 ADD PUSH2 0x1A4F JUMP JUMPDEST SWAP4 POP POP PUSH1 0x80 PUSH2 0x1F24 DUP10 DUP3 DUP11 ADD PUSH2 0x1A4F JUMP JUMPDEST SWAP3 POP POP PUSH1 0xA0 PUSH2 0x1F35 DUP10 DUP3 DUP11 ADD PUSH2 0x1B70 JUMP JUMPDEST SWAP2 POP POP SWAP3 SWAP6 POP SWAP3 SWAP6 POP SWAP3 SWAP6 JUMP JUMPDEST PUSH1 0x0 DUP1 PUSH1 0x0 DUP1 PUSH1 0x0 DUP1 PUSH1 0xC0 DUP8 DUP10 SUB SLT ISZERO PUSH2 0x1F5F JUMPI PUSH2 0x1F5E PUSH2 0x2A2A JUMP JUMPDEST JUMPDEST PUSH1 0x0 PUSH2 0x1F6D DUP10 DUP3 DUP11 ADD PUSH2 0x1B03 JUMP JUMPDEST SWAP7 POP POP PUSH1 0x20 PUSH2 0x1F7E DUP10 DUP3 DUP11 ADD PUSH2 0x1B5B JUMP JUMPDEST SWAP6 POP POP PUSH1 0x40 DUP8 ADD CALLDATALOAD PUSH8 0xFFFFFFFFFFFFFFFF DUP2 GT ISZERO PUSH2 0x1F9F JUMPI PUSH2 0x1F9E PUSH2 0x2A25 JUMP JUMPDEST JUMPDEST PUSH2 0x1FAB DUP10 DUP3 DUP11 ADD PUSH2 0x1B9A JUMP JUMPDEST SWAP5 POP POP PUSH1 0x60 PUSH2 0x1FBC DUP10 DUP3 DUP11 ADD PUSH2 0x1A4F JUMP JUMPDEST SWAP4 POP POP PUSH1 0x80 PUSH2 0x1FCD DUP10 DUP3 DUP11 ADD PUSH2 0x1A4F JUMP JUMPDEST SWAP3 POP POP PUSH1 0xA0 DUP8 ADD CALLDATALOAD PUSH8 0xFFFFFFFFFFFFFFFF DUP2 GT ISZERO PUSH2 0x1FEE JUMPI PUSH2 0x1FED PUSH2 0x2A25 JUMP JUMPDEST JUMPDEST PUSH2 0x1FFA DUP10 DUP3 DUP11 ADD PUSH2 0x1A64 JUMP JUMPDEST SWAP2 POP POP SWAP3 SWAP6 POP SWAP3 SWAP6 POP SWAP3 SWAP6 JUMP JUMPDEST PUSH1 0x0 DUP1 PUSH1 0x0 DUP1 PUSH1 0x0 DUP1 PUSH1 0xC0 DUP8 DUP10 SUB SLT ISZERO PUSH2 0x2024 JUMPI PUSH2 0x2023 PUSH2 0x2A2A JUMP JUMPDEST JUMPDEST PUSH1 0x0 PUSH2 0x2032 DUP10 DUP3 DUP11 ADD PUSH2 0x1B46 JUMP JUMPDEST SWAP7 POP POP PUSH1 0x20 PUSH2 0x2043 DUP10 DUP3 DUP11 ADD PUSH2 0x1B5B JUMP JUMPDEST SWAP6 POP POP PUSH1 0x40 DUP8 ADD CALLDATALOAD PUSH8 0xFFFFFFFFFFFFFFFF DUP2 GT ISZERO PUSH2 0x2064 JUMPI PUSH2 0x2063 PUSH2 0x2A25 JUMP JUMPDEST JUMPDEST PUSH2 0x2070 DUP10 DUP3 DUP11 ADD PUSH2 0x1B9A JUMP JUMPDEST SWAP5 POP POP PUSH1 0x60 PUSH2 0x2081 DUP10 DUP3 DUP11 ADD PUSH2 0x1A4F JUMP JUMPDEST SWAP4 POP POP PUSH1 0x80 PUSH2 0x2092 DUP10 DUP3 DUP11 ADD PUSH2 0x1A4F JUMP JUMPDEST SWAP3 POP POP PUSH1 0xA0 PUSH2 0x20A3 DUP10 DUP3 DUP11 ADD PUSH2 0x1B85 JUMP JUMPDEST SWAP2 POP POP SWAP3 SWAP6 POP SWAP3 SWAP6 POP SWAP3 SWAP6 JUMP JUMPDEST PUSH1 0x0 DUP1 PUSH1 0x40 DUP4 DUP6 SUB SLT ISZERO PUSH2 0x20C7 JUMPI PUSH2 0x20C6 PUSH2 0x2A2A JUMP JUMPDEST JUMPDEST PUSH1 0x0 DUP4 ADD CALLDATALOAD PUSH8 0xFFFFFFFFFFFFFFFF DUP2 GT ISZERO PUSH2 0x20E5 JUMPI PUSH2 0x20E4 PUSH2 0x2A25 JUMP JUMPDEST JUMPDEST PUSH2 0x20F1 DUP6 DUP3 DUP7 ADD PUSH2 0x1DDC JUMP JUMPDEST SWAP3 POP POP PUSH1 0x20 DUP4 ADD CALLDATALOAD PUSH8 0xFFFFFFFFFFFFFFFF DUP2 GT ISZERO PUSH2 0x2112 JUMPI PUSH2 0x2111 PUSH2 0x2A25 JUMP JUMPDEST JUMPDEST PUSH2 0x211E DUP6 DUP3 DUP7 ADD PUSH2 0x1A92 JUMP JUMPDEST SWAP2 POP POP SWAP3 POP SWAP3 SWAP1 POP JUMP JUMPDEST PUSH1 0x0 DUP1 PUSH1 0x40 DUP4 DUP6 SUB SLT ISZERO PUSH2 0x213F JUMPI PUSH2 0x213E PUSH2 0x2A2A JUMP JUMPDEST JUMPDEST PUSH1 0x0 DUP4 ADD CALLDATALOAD PUSH8 0xFFFFFFFFFFFFFFFF DUP2 GT ISZERO PUSH2 0x215D JUMPI PUSH2 0x215C PUSH2 0x2A25 JUMP JUMPDEST JUMPDEST PUSH2 0x2169 DUP6 DUP3 DUP7 ADD PUSH2 0x1DDC JUMP JUMPDEST SWAP3 POP POP PUSH1 0x20 DUP4 ADD CALLDATALOAD PUSH8 0xFFFFFFFFFFFFFFFF DUP2 GT ISZERO PUSH2 0x218A JUMPI PUSH2 0x2189 PUSH2 0x2A25 JUMP JUMPDEST JUMPDEST PUSH2 0x2196 DUP6 DUP3 DUP7 ADD PUSH2 0x1AD5 JUMP JUMPDEST SWAP2 POP POP SWAP3 POP SWAP3 SWAP1 POP JUMP JUMPDEST PUSH1 0x0 DUP1 PUSH1 0x40 DUP4 DUP6 SUB SLT ISZERO PUSH2 0x21B7 JUMPI PUSH2 0x21B6 PUSH2 0x2A2A JUMP JUMPDEST JUMPDEST PUSH1 0x0 DUP4 ADD CALLDATALOAD PUSH8 0xFFFFFFFFFFFFFFFF DUP2 GT ISZERO PUSH2 0x21D5 JUMPI PUSH2 0x21D4 PUSH2 0x2A25 JUMP JUMPDEST JUMPDEST PUSH2 0x21E1 DUP6 DUP3 DUP7 ADD PUSH2 0x1DDC JUMP JUMPDEST SWAP3 POP POP PUSH1 0x20 DUP4 ADD CALLDATALOAD PUSH8 0xFFFFFFFFFFFFFFFF DUP2 GT ISZERO PUSH2 0x2202 JUMPI PUSH2 0x2201 PUSH2 0x2A25 JUMP JUMPDEST JUMPDEST PUSH2 0x220E DUP6 DUP3 DUP7 ADD PUSH2 0x1B18 JUMP JUMPDEST SWAP2 POP POP SWAP3 POP SWAP3 SWAP1 POP JUMP JUMPDEST PUSH1 0x0 DUP1 PUSH1 0x40 DUP4 DUP6 SUB SLT ISZERO PUSH2 0x222F JUMPI PUSH2 0x222E PUSH2 0x2A2A JUMP JUMPDEST JUMPDEST PUSH1 0x0 PUSH2 0x223D DUP6 DUP3 DUP7 ADD PUSH2 0x1E84 JUMP JUMPDEST SWAP3 POP POP PUSH1 0x20 PUSH2 0x224E DUP6 DUP3 DUP7 ADD PUSH2 0x1AC0 JUMP JUMPDEST SWAP2 POP POP SWAP3 POP SWAP3 SWAP1 POP JUMP JUMPDEST PUSH1 0x0 DUP1 PUSH1 0x0 DUP1 PUSH1 0x0 DUP1 PUSH1 0x0 PUSH1 0xE0 DUP9 DUP11 SUB SLT ISZERO PUSH2 0x2277 JUMPI PUSH2 0x2276 PUSH2 0x2A2A JUMP JUMPDEST JUMPDEST PUSH1 0x0 PUSH2 0x2285 DUP11 DUP3 DUP12 ADD PUSH2 0x1E84 JUMP JUMPDEST SWAP8 POP POP PUSH1 0x20 PUSH2 0x2296 DUP11 DUP3 DUP12 ADD PUSH2 0x1AC0 JUMP JUMPDEST SWAP7 POP POP PUSH1 0x40 PUSH2 0x22A7 DUP11 DUP3 DUP12 ADD PUSH2 0x1B5B JUMP JUMPDEST SWAP6 POP POP PUSH1 0x60 DUP9 ADD CALLDATALOAD PUSH8 0xFFFFFFFFFFFFFFFF DUP2 GT ISZERO PUSH2 0x22C8 JUMPI PUSH2 0x22C7 PUSH2 0x2A25 JUMP JUMPDEST JUMPDEST PUSH2 0x22D4 DUP11 DUP3 DUP12 ADD PUSH2 0x1B9A JUMP JUMPDEST SWAP5 POP POP PUSH1 0x80 PUSH2 0x22E5 DUP11 DUP3 DUP12 ADD PUSH2 0x1A4F JUMP JUMPDEST SWAP4 POP POP PUSH1 0xA0 PUSH2 0x22F6 DUP11 DUP3 DUP12 ADD PUSH2 0x1A4F JUMP JUMPDEST SWAP3 POP POP PUSH1 0xC0 PUSH2 0x2307 DUP11 DUP3 DUP12 ADD PUSH2 0x1B70 JUMP JUMPDEST SWAP2 POP POP SWAP3 SWAP6 SWAP9 SWAP2 SWAP5 SWAP8 POP SWAP3 SWAP6 POP JUMP JUMPDEST PUSH1 0x0 DUP1 PUSH1 0x40 DUP4 DUP6 SUB SLT ISZERO PUSH2 0x232D JUMPI PUSH2 0x232C PUSH2 0x2A2A JUMP JUMPDEST JUMPDEST PUSH1 0x0 PUSH2 0x233B DUP6 DUP3 DUP7 ADD PUSH2 0x1E84 JUMP JUMPDEST SWAP3 POP POP PUSH1 0x20 PUSH2 0x234C DUP6 DUP3 DUP7 ADD PUSH2 0x1B03 JUMP JUMPDEST SWAP2 POP POP SWAP3 POP SWAP3 SWAP1 POP JUMP JUMPDEST PUSH1 0x0 DUP1 PUSH1 0x40 DUP4 DUP6 SUB SLT ISZERO PUSH2 0x236D JUMPI PUSH2 0x236C PUSH2 0x2A2A JUMP JUMPDEST JUMPDEST PUSH1 0x0 PUSH2 0x237B DUP6 DUP3 DUP7 ADD PUSH2 0x1E84 JUMP JUMPDEST SWAP3 POP POP PUSH1 0x20 PUSH2 0x238C DUP6 DUP3 DUP7 ADD PUSH2 0x1B46 JUMP JUMPDEST SWAP2 POP POP SWAP3 POP SWAP3 SWAP1 POP JUMP JUMPDEST PUSH1 0x0 PUSH2 0x23A2 DUP4 DUP4 PUSH2 0x23AE JUMP JUMPDEST PUSH1 0x20 DUP4 ADD SWAP1 POP SWAP3 SWAP2 POP POP JUMP JUMPDEST PUSH2 0x23B7 DUP2 PUSH2 0x2757 JUMP JUMPDEST DUP3 MSTORE POP POP JUMP JUMPDEST PUSH1 0x0 PUSH2 0x23C8 DUP3 PUSH2 0x268E JUMP JUMPDEST PUSH2 0x23D2 DUP2 DUP6 PUSH2 0x26B1 JUMP JUMPDEST SWAP4 POP PUSH2 0x23DD DUP4 PUSH2 0x267E JUMP JUMPDEST DUP1 PUSH1 0x0 JUMPDEST DUP4 DUP2 LT ISZERO PUSH2 0x240E JUMPI DUP2 MLOAD PUSH2 0x23F5 DUP9 DUP3 PUSH2 0x2396 JUMP JUMPDEST SWAP8 POP PUSH2 0x2400 DUP4 PUSH2 0x26A4 JUMP JUMPDEST SWAP3 POP POP PUSH1 0x1 DUP2 ADD SWAP1 POP PUSH2 0x23E1 JUMP JUMPDEST POP DUP6 SWAP4 POP POP POP POP SWAP3 SWAP2 POP POP JUMP JUMPDEST DUP1 DUP3 MSTORE POP POP JUMP JUMPDEST DUP1 DUP3 MSTORE POP POP JUMP JUMPDEST DUP1 DUP3 MSTORE POP POP JUMP JUMPDEST PUSH2 0x2439 DUP2 PUSH2 0x2787 JUMP JUMPDEST DUP3 MSTORE POP POP JUMP JUMPDEST PUSH2 0x2448 DUP2 PUSH2 0x280F JUMP JUMPDEST DUP3 MSTORE POP POP JUMP JUMPDEST PUSH2 0x2457 DUP2 PUSH2 0x2821 JUMP JUMPDEST DUP3 MSTORE POP POP JUMP JUMPDEST PUSH1 0x0 PUSH2 0x2468 DUP3 PUSH2 0x2699 JUMP JUMPDEST PUSH2 0x2472 DUP2 DUP6 PUSH2 0x26C2 JUMP JUMPDEST SWAP4 POP PUSH2 0x2482 DUP2 DUP6 PUSH1 0x20 DUP7 ADD PUSH2 0x2842 JUMP JUMPDEST DUP1 DUP5 ADD SWAP2 POP POP SWAP3 SWAP2 POP POP JUMP JUMPDEST PUSH1 0x0 PUSH2 0x249A DUP3 DUP5 PUSH2 0x245D JUMP JUMPDEST SWAP2 POP DUP2 SWAP1 POP SWAP3 SWAP2 POP POP JUMP JUMPDEST PUSH1 0x0 PUSH1 0x20 DUP3 ADD SWAP1 POP PUSH2 0x24BA PUSH1 0x0 DUP4 ADD DUP5 PUSH2 0x241B JUMP JUMPDEST SWAP3 SWAP2 POP POP JUMP JUMPDEST PUSH1 0x0 PUSH1 0x20 DUP3 ADD SWAP1 POP PUSH2 0x24D5 PUSH1 0x0 DUP4 ADD DUP5 PUSH2 0x2422 JUMP JUMPDEST SWAP3 SWAP2 POP POP JUMP JUMPDEST PUSH1 0x0 PUSH1 0x20 DUP3 ADD SWAP1 POP PUSH2 0x24F0 PUSH1 0x0 DUP4 ADD DUP5 PUSH2 0x2429 JUMP JUMPDEST SWAP3 SWAP2 POP POP JUMP JUMPDEST PUSH1 0x0 PUSH1 0x40 DUP3 ADD SWAP1 POP PUSH2 0x250B PUSH1 0x0 DUP4 ADD DUP6 PUSH2 0x2430 JUMP JUMPDEST DUP2 DUP2 SUB PUSH1 0x20 DUP4 ADD MSTORE PUSH2 0x251D DUP2 DUP5 PUSH2 0x23BD JUMP JUMPDEST SWAP1 POP SWAP4 SWAP3 POP POP POP JUMP JUMPDEST PUSH1 0x0 PUSH1 0x40 DUP3 ADD SWAP1 POP PUSH2 0x253B PUSH1 0x0 DUP4 ADD DUP6 PUSH2 0x2430 JUMP JUMPDEST PUSH2 0x2548 PUSH1 0x20 DUP4 ADD DUP5 PUSH2 0x243F JUMP JUMPDEST SWAP4 SWAP3 POP POP POP JUMP JUMPDEST PUSH1 0x0 PUSH1 0x40 DUP3 ADD SWAP1 POP PUSH2 0x2564 PUSH1 0x0 DUP4 ADD DUP6 PUSH2 0x2430 JUMP JUMPDEST PUSH2 0x2571 PUSH1 0x20 DUP4 ADD DUP5 PUSH2 0x244E JUMP JUMPDEST SWAP4 SWAP3 POP POP POP JUMP JUMPDEST PUSH1 0x0 PUSH2 0x2582 PUSH2 0x2593 JUMP JUMPDEST SWAP1 POP PUSH2 0x258E DUP3 DUP3 PUSH2 0x28A7 JUMP JUMPDEST SWAP2 SWAP1 POP JUMP JUMPDEST PUSH1 0x0 PUSH1 0x40 MLOAD SWAP1 POP SWAP1 JUMP JUMPDEST PUSH1 0x0 PUSH8 0xFFFFFFFFFFFFFFFF DUP3 GT ISZERO PUSH2 0x25B8 JUMPI PUSH2 0x25B7 PUSH2 0x29DD JUMP JUMPDEST JUMPDEST PUSH1 0x20 DUP3 MUL SWAP1 POP PUSH1 0x20 DUP2 ADD SWAP1 POP SWAP2 SWAP1 POP JUMP JUMPDEST PUSH1 0x0 PUSH8 0xFFFFFFFFFFFFFFFF DUP3 GT ISZERO PUSH2 0x25E4 JUMPI PUSH2 0x25E3 PUSH2 0x29DD JUMP JUMPDEST JUMPDEST PUSH1 0x20 DUP3 MUL SWAP1 POP PUSH1 0x20 DUP2 ADD SWAP1 POP SWAP2 SWAP1 POP JUMP JUMPDEST PUSH1 0x0 PUSH8 0xFFFFFFFFFFFFFFFF DUP3 GT ISZERO PUSH2 0x2610 JUMPI PUSH2 0x260F PUSH2 0x29DD JUMP JUMPDEST JUMPDEST PUSH1 0x20 DUP3 MUL SWAP1 POP PUSH1 0x20 DUP2 ADD SWAP1 POP SWAP2 SWAP1 POP JUMP JUMPDEST PUSH1 0x0 PUSH8 0xFFFFFFFFFFFFFFFF DUP3 GT ISZERO PUSH2 0x263C JUMPI PUSH2 0x263B PUSH2 0x29DD JUMP JUMPDEST JUMPDEST PUSH1 0x20 DUP3 MUL SWAP1 POP PUSH1 0x20 DUP2 ADD SWAP1 POP SWAP2 SWAP1 POP JUMP JUMPDEST PUSH1 0x0 PUSH8 0xFFFFFFFFFFFFFFFF DUP3 GT ISZERO PUSH2 0x2668 JUMPI PUSH2 0x2667 PUSH2 0x29DD JUMP JUMPDEST JUMPDEST PUSH2 0x2671 DUP3 PUSH2 0x2A2F JUMP JUMPDEST SWAP1 POP PUSH1 0x20 DUP2 ADD SWAP1 POP SWAP2 SWAP1 POP JUMP JUMPDEST PUSH1 0x0 DUP2 SWAP1 POP PUSH1 0x20 DUP3 ADD SWAP1 POP SWAP2 SWAP1 POP JUMP JUMPDEST PUSH1 0x0 DUP2 MLOAD SWAP1 POP SWAP2 SWAP1 POP JUMP JUMPDEST PUSH1 0x0 DUP2 MLOAD SWAP1 POP SWAP2 SWAP1 POP JUMP JUMPDEST PUSH1 0x0 PUSH1 0x20 DUP3 ADD SWAP1 POP SWAP2 SWAP1 POP JUMP JUMPDEST PUSH1 0x0 DUP3 DUP3 MSTORE PUSH1 0x20 DUP3 ADD SWAP1 POP SWAP3 SWAP2 POP POP JUMP JUMPDEST PUSH1 0x0 DUP2 SWAP1 POP SWAP3 SWAP2 POP POP JUMP JUMPDEST PUSH1 0x0 PUSH2 0x26D8 DUP3 PUSH2 0x2805 JUMP JUMPDEST SWAP2 POP PUSH2 0x26E3 DUP4 PUSH2 0x2805 JUMP JUMPDEST SWAP3 POP DUP3 PUSH32 0xFFFFFFFFFFFFFFFFFFFFFFFFFFFFFFFFFFFFFFFFFFFFFFFFFFFFFFFFFFFFFFFF SUB DUP3 GT ISZERO PUSH2 0x2718 JUMPI PUSH2 0x2717 PUSH2 0x2921 JUMP JUMPDEST JUMPDEST DUP3 DUP3 ADD SWAP1 POP SWAP3 SWAP2 POP POP JUMP JUMPDEST PUSH1 0x0 PUSH2 0x272E DUP3 PUSH2 0x2805 JUMP JUMPDEST SWAP2 POP PUSH2 0x2739 DUP4 PUSH2 0x2805 JUMP JUMPDEST SWAP3 POP DUP3 DUP3 LT ISZERO PUSH2 0x274C JUMPI PUSH2 0x274B PUSH2 0x2921 JUMP JUMPDEST JUMPDEST DUP3 DUP3 SUB SWAP1 POP SWAP3 SWAP2 POP POP JUMP JUMPDEST PUSH1 0x0 PUSH2 0x2762 DUP3 PUSH2 0x27E5 JUMP JUMPDEST SWAP1 POP SWAP2 SWAP1 POP JUMP JUMPDEST PUSH1 0x0 DUP2 SWAP1 POP SWAP2 SWAP1 POP JUMP JUMPDEST PUSH1 0x0 DUP2 SWAP1 POP SWAP2 SWAP1 POP JUMP JUMPDEST PUSH1 0x0 DUP2 SWAP1 POP SWAP2 SWAP1 POP JUMP JUMPDEST PUSH1 0x0 DUP2 ISZERO ISZERO SWAP1 POP SWAP2 SWAP1 POP JUMP JUMPDEST PUSH1 0x0 PUSH32 0xFFFFFFFF00000000000000000000000000000000000000000000000000000000 DUP3 AND SWAP1 POP SWAP2 SWAP1 POP JUMP JUMPDEST PUSH1 0x0 DUP2 SWAP1 POP PUSH2 0x27CD DUP3 PUSH2 0x2A40 JUMP JUMPDEST SWAP2 SWAP1 POP JUMP JUMPDEST PUSH1 0x0 DUP2 SWAP1 POP PUSH2 0x27E0 DUP3 PUSH2 0x2A54 JUMP JUMPDEST SWAP2 SWAP1 POP JUMP JUMPDEST PUSH1 0x0 PUSH20 0xFFFFFFFFFFFFFFFFFFFFFFFFFFFFFFFFFFFFFFFF DUP3 AND SWAP1 POP SWAP2 SWAP1 POP JUMP JUMPDEST PUSH1 0x0 DUP2 SWAP1 POP SWAP2 SWAP1 POP JUMP JUMPDEST PUSH1 0x0 PUSH2 0x281A DUP3 PUSH2 0x27BF JUMP JUMPDEST SWAP1 POP SWAP2 SWAP1 POP JUMP JUMPDEST PUSH1 0x0 PUSH2 0x282C DUP3 PUSH2 0x27D2 JUMP JUMPDEST SWAP1 POP SWAP2 SWAP1 POP JUMP JUMPDEST DUP3 DUP2 DUP4 CALLDATACOPY PUSH1 0x0 DUP4 DUP4 ADD MSTORE POP POP POP JUMP JUMPDEST PUSH1 0x0 JUMPDEST DUP4 DUP2 LT ISZERO PUSH2 0x2860 JUMPI DUP1 DUP3 ADD MLOAD DUP2 DUP5 ADD MSTORE PUSH1 0x20 DUP2 ADD SWAP1 POP PUSH2 0x2845 JUMP JUMPDEST DUP4 DUP2 GT ISZERO PUSH2 0x286F JUMPI PUSH1 0x0 DUP5 DUP5 ADD MSTORE JUMPDEST POP POP POP POP JUMP JUMPDEST PUSH1 0x0 PUSH1 0x2 DUP3 DIV SWAP1 POP PUSH1 0x1 DUP3 AND DUP1 PUSH2 0x288D JUMPI PUSH1 0x7F DUP3 AND SWAP2 POP JUMPDEST PUSH1 0x20 DUP3 LT DUP2 EQ ISZERO PUSH2 0x28A1 JUMPI PUSH2 0x28A0 PUSH2 0x297F JUMP JUMPDEST JUMPDEST POP SWAP2 SWAP1 POP JUMP JUMPDEST PUSH2 0x28B0 DUP3 PUSH2 0x2A2F JUMP JUMPDEST DUP2 ADD DUP2 DUP2 LT PUSH8 0xFFFFFFFFFFFFFFFF DUP3 GT OR ISZERO PUSH2 0x28CF JUMPI PUSH2 0x28CE PUSH2 0x29DD JUMP JUMPDEST JUMPDEST DUP1 PUSH1 0x40 MSTORE POP POP POP JUMP JUMPDEST PUSH1 0x0 PUSH2 0x28E3 DUP3 PUSH2 0x2805 JUMP JUMPDEST SWAP2 POP PUSH32 0xFFFFFFFFFFFFFFFFFFFFFFFFFFFFFFFFFFFFFFFFFFFFFFFFFFFFFFFFFFFFFFFF DUP3 EQ ISZERO PUSH2 0x2916 JUMPI PUSH2 0x2915 PUSH2 0x2921 JUMP JUMPDEST JUMPDEST PUSH1 0x1 DUP3 ADD SWAP1 POP SWAP2 SWAP1 POP JUMP JUMPDEST PUSH32 0x4E487B7100000000000000000000000000000000000000000000000000000000 PUSH1 0x0 MSTORE PUSH1 0x11 PUSH1 0x4 MSTORE PUSH1 0x24 PUSH1 0x0 REVERT JUMPDEST PUSH32 0x4E487B7100000000000000000000000000000000000000000000000000000000 PUSH1 0x0 MSTORE PUSH1 0x21 PUSH1 0x4 MSTORE PUSH1 0x24 PUSH1 0x0 REVERT JUMPDEST PUSH32 0x4E487B7100000000000000000000000000000000000000000000000000000000 PUSH1 0x0 MSTORE PUSH1 0x22 PUSH1 0x4 MSTORE PUSH1 0x24 PUSH1 0x0 REVERT JUMPDEST PUSH32 0x4E487B7100000000000000000000000000000000000000000000000000000000 PUSH1 0x0 MSTORE PUSH1 0x32 PUSH1 0x4 MSTORE PUSH1 0x24 PUSH1 0x0 REVERT JUMPDEST PUSH32 0x4E487B7100000000000000000000000000000000000000000000000000000000 PUSH1 0x0 MSTORE PUSH1 0x41 PUSH1 0x4 MSTORE PUSH1 0x24 PUSH1 0x0 REVERT JUMPDEST PUSH1 0x0 DUP1 REVERT JUMPDEST PUSH1 0x0 DUP1 REVERT JUMPDEST PUSH1 0x0 DUP1 REVERT JUMPDEST PUSH1 0x0 DUP1 REVERT JUMPDEST PUSH1 0x0 DUP1 REVERT JUMPDEST PUSH1 0x0 DUP1 REVERT JUMPDEST PUSH1 0x0 DUP1 REVERT JUMPDEST PUSH1 0x0 PUSH1 0x1F NOT PUSH1 0x1F DUP4 ADD AND SWAP1 POP SWAP2 SWAP1 POP JUMP JUMPDEST PUSH1 0x3 DUP2 LT PUSH2 0x2A51 JUMPI PUSH2 0x2A50 PUSH2 0x2950 JUMP JUMPDEST JUMPDEST POP JUMP JUMPDEST PUSH1 0x4 DUP2 LT PUSH2 0x2A65 JUMPI PUSH2 0x2A64 PUSH2 0x2950 JUMP JUMPDEST JUMPDEST POP JUMP JUMPDEST PUSH2 0x2A71 DUP2 PUSH2 0x2757 JUMP JUMPDEST DUP2 EQ PUSH2 0x2A7C JUMPI PUSH1 0x0 DUP1 REVERT JUMPDEST POP JUMP JUMPDEST PUSH2 0x2A88 DUP2 PUSH2 0x2769 JUMP JUMPDEST DUP2 EQ PUSH2 0x2A93 JUMPI PUSH1 0x0 DUP1 REVERT JUMPDEST POP JUMP JUMPDEST PUSH2 0x2A9F DUP2 PUSH2 0x2773 JUMP JUMPDEST DUP2 EQ PUSH2 0x2AAA JUMPI PUSH1 0x0 DUP1 REVERT JUMPDEST POP JUMP JUMPDEST PUSH2 0x2AB6 DUP2 PUSH2 0x277D JUMP JUMPDEST DUP2 EQ PUSH2 0x2AC1 JUMPI PUSH1 0x0 DUP1 REVERT JUMPDEST POP JUMP JUMPDEST PUSH2 0x2ACD DUP2 PUSH2 0x2793 JUMP JUMPDEST DUP2 EQ PUSH2 0x2AD8 JUMPI PUSH1 0x0 DUP1 REVERT JUMPDEST POP JUMP JUMPDEST PUSH1 0x3 DUP2 LT PUSH2 0x2AE8 JUMPI PUSH1 0x0 DUP1 REVERT JUMPDEST POP JUMP JUMPDEST PUSH1 0x4 DUP2 LT PUSH2 0x2AF8 JUMPI PUSH1 0x0 DUP1 REVERT JUMPDEST POP JUMP JUMPDEST PUSH2 0x2B04 DUP2 PUSH2 0x2805 JUMP JUMPDEST DUP2 EQ PUSH2 0x2B0F JUMPI PUSH1 0x0 DUP1 REVERT JUMPDEST POP JUMP INVALID LOG2 PUSH5 0x6970667358 0x22 SLT KECCAK256 SWAP8 0xB1 0x2D 0xDA 0xDA 0xE9 0x4F CODESIZE LOG0 BYTE DUP3 0xA7 DELEGATECALL PUSH29 0xC50FD0C5A127D66A6B65AA7865134B377EB564736F6C63430008070033 "
		},
		"gasEstimates": {
			"creation": {
				"codeDepositCost": "2216000",
				"executionCost": "2393",
				"totalCost": "2218393"
			},
			"external": {
				"addRawTable(LRawAndRouter.RawTable[] storage,bytes4,string,address,address,LRawAndRouter.RawChoice)": "infinite",
				"addRelayTable(LRawAndRouter.RelayTable[] storage,bytes4,string,address,address,address[])": "infinite",
				"addRouteTable(LRawAndRouter.RouteTable[] storage,bytes4,string,address,address,LRawAndRouter.RouteChoice)": "infinite",
				"checkTransactionIfMatchBasedRawTable(LDecoder.Transaction,LRawAndRouter.RawTable[])": "infinite",
				"checkTransactionIfMatchBasedRelayTable(LDecoder.Transaction,LRawAndRouter.RelayTable[])": "infinite",
				"checkTransactionIfMatchBasedRouteTable(LDecoder.Transaction,LRawAndRouter.RouteTable[])": "infinite",
				"modifyRawTable(uint256,LRawAndRouter.RawTable[] storage,bytes4,string,address,address,LRawAndRouter.RawChoice)": "infinite",
				"removRelayTablesAtIndex(uint256,LRawAndRouter.RelayTable[] storage)": "infinite",
				"removRouteTablesAtIndex(uint256,LRawAndRouter.RouteTable[] storage)": "infinite",
				"removeRawTablesAtIndex(uint256,LRawAndRouter.RawTable[] storage)": "infinite"
			},
			"internal": {
				"hashCompareInternal(string memory,string memory)": "infinite"
			}
		},
		"methodIdentifiers": {
			"addRawTable(LRawAndRouter.RawTable[] storage,bytes4,string,address,address,LRawAndRouter.RawChoice)": "467363a1",
			"addRelayTable(LRawAndRouter.RelayTable[] storage,bytes4,string,address,address,address[])": "0cb86d1b",
			"addRouteTable(LRawAndRouter.RouteTable[] storage,bytes4,string,address,address,LRawAndRouter.RouteChoice)": "c880e545",
			"checkTransactionIfMatchBasedRawTable(LDecoder.Transaction,LRawAndRouter.RawTable[])": "72820891",
			"checkTransactionIfMatchBasedRelayTable(LDecoder.Transaction,LRawAndRouter.RelayTable[])": "3ff98140",
			"checkTransactionIfMatchBasedRouteTable(LDecoder.Transaction,LRawAndRouter.RouteTable[])": "5d5125ee",
			"modifyRawTable(uint256,LRawAndRouter.RawTable[] storage,bytes4,string,address,address,LRawAndRouter.RawChoice)": "e553ecf6",
			"removRelayTablesAtIndex(uint256,LRawAndRouter.RelayTable[] storage)": "7c85e517",
			"removRouteTablesAtIndex(uint256,LRawAndRouter.RouteTable[] storage)": "28c4d776",
			"removeRawTablesAtIndex(uint256,LRawAndRouter.RawTable[] storage)": "1f76872c"
		}
	},
	"abi": [
		{
			"inputs": [
				{
					"components": [
						{
							"internalType": "address",
							"name": "msgSender",
							"type": "address"
						},
						{
							"internalType": "address",
							"name": "txOrigin",
							"type": "address"
						},
						{
							"internalType": "bytes4",
							"name": "msgSig",
							"type": "bytes4"
						},
						{
							"internalType": "uint256",
							"name": "msgValue",
							"type": "uint256"
						},
						{
							"internalType": "string",
							"name": "funName",
							"type": "string"
						}
					],
					"internalType": "struct LDecoder.Transaction",
					"name": "tx",
					"type": "tuple"
				},
				{
					"components": [
						{
							"internalType": "bytes4",
							"name": "msgSig",
							"type": "bytes4"
						},
						{
							"internalType": "string",
							"name": "funName",
							"type": "string"
						},
						{
							"internalType": "address",
							"name": "msgSender",
							"type": "address"
						},
						{
							"internalType": "address",
							"name": "txOrigin",
							"type": "address"
						},
						{
							"internalType": "enum LRawAndRouter.RawChoice",
							"name": "choice",
							"type": "LRawAndRouter.RawChoice"
						}
					],
					"internalType": "struct LRawAndRouter.RawTable[]",
					"name": "tables",
					"type": "tuple[]"
				}
			],
			"name": "checkTransactionIfMatchBasedRawTable",
			"outputs": [
				{
					"internalType": "bool",
					"name": "",
					"type": "bool"
				},
				{
					"internalType": "enum LRawAndRouter.RawChoice",
					"name": "",
					"type": "LRawAndRouter.RawChoice"
				}
			],
			"stateMutability": "pure",
			"type": "function"
		},
		{
			"inputs": [
				{
					"components": [
						{
							"internalType": "address",
							"name": "msgSender",
							"type": "address"
						},
						{
							"internalType": "address",
							"name": "txOrigin",
							"type": "address"
						},
						{
							"internalType": "bytes4",
							"name": "msgSig",
							"type": "bytes4"
						},
						{
							"internalType": "uint256",
							"name": "msgValue",
							"type": "uint256"
						},
						{
							"internalType": "string",
							"name": "funName",
							"type": "string"
						}
					],
					"internalType": "struct LDecoder.Transaction",
					"name": "tx",
					"type": "tuple"
				},
				{
					"components": [
						{
							"internalType": "bytes4",
							"name": "msgSig",
							"type": "bytes4"
						},
						{
							"internalType": "string",
							"name": "funName",
							"type": "string"
						},
						{
							"internalType": "address",
							"name": "msgSender",
							"type": "address"
						},
						{
							"internalType": "address",
							"name": "txOrigin",
							"type": "address"
						},
						{
							"internalType": "address[]",
							"name": "relayModules",
							"type": "address[]"
						}
					],
					"internalType": "struct LRawAndRouter.RelayTable[]",
					"name": "tables",
					"type": "tuple[]"
				}
			],
			"name": "checkTransactionIfMatchBasedRelayTable",
			"outputs": [
				{
					"internalType": "bool",
					"name": "",
					"type": "bool"
				},
				{
					"internalType": "address[]",
					"name": "",
					"type": "address[]"
				}
			],
			"stateMutability": "pure",
			"type": "function"
		},
		{
			"inputs": [
				{
					"components": [
						{
							"internalType": "address",
							"name": "msgSender",
							"type": "address"
						},
						{
							"internalType": "address",
							"name": "txOrigin",
							"type": "address"
						},
						{
							"internalType": "bytes4",
							"name": "msgSig",
							"type": "bytes4"
						},
						{
							"internalType": "uint256",
							"name": "msgValue",
							"type": "uint256"
						},
						{
							"internalType": "string",
							"name": "funName",
							"type": "string"
						}
					],
					"internalType": "struct LDecoder.Transaction",
					"name": "tx",
					"type": "tuple"
				},
				{
					"components": [
						{
							"internalType": "bytes4",
							"name": "msgSig",
							"type": "bytes4"
						},
						{
							"internalType": "string",
							"name": "funName",
							"type": "string"
						},
						{
							"internalType": "address",
							"name": "msgSender",
							"type": "address"
						},
						{
							"internalType": "address",
							"name": "txOrigin",
							"type": "address"
						},
						{
							"internalType": "enum LRawAndRouter.RouteChoice",
							"name": "choice",
							"type": "LRawAndRouter.RouteChoice"
						}
					],
					"internalType": "struct LRawAndRouter.RouteTable[]",
					"name": "tables",
					"type": "tuple[]"
				}
			],
			"name": "checkTransactionIfMatchBasedRouteTable",
			"outputs": [
				{
					"internalType": "bool",
					"name": "",
					"type": "bool"
				},
				{
					"internalType": "enum LRawAndRouter.RouteChoice",
					"name": "",
					"type": "LRawAndRouter.RouteChoice"
				}
			],
			"stateMutability": "pure",
			"type": "function"
		}
	]
}